{
  "_format": "hh-sol-artifact-1",
  "contractName": "ERC20Sacred",
  "sourceName": "contracts/ERC20Sacred.sol",
  "abi": [
    {
      "inputs": [
        {
          "internalType": "contract IVerifier",
          "name": "_verifier",
          "type": "address"
        },
        {
          "internalType": "uint256",
          "name": "_denomination",
          "type": "uint256"
        },
        {
          "internalType": "uint32",
          "name": "_merkleTreeHeight",
          "type": "uint32"
        },
        {
          "internalType": "address",
          "name": "_lendingPoolAddressProvider",
          "type": "address"
        },
        {
          "internalType": "address",
          "name": "_aToken",
          "type": "address"
        },
        {
          "internalType": "address",
          "name": "_owner",
          "type": "address"
        },
        {
          "internalType": "address",
          "name": "_token",
          "type": "address"
        },
        {
          "internalType": "uint256",
          "name": "_fee",
          "type": "uint256"
        }
      ],
      "stateMutability": "nonpayable",
      "type": "constructor"
    },
    {
      "anonymous": false,
      "inputs": [
        {
          "indexed": true,
          "internalType": "bytes32",
          "name": "commitment",
          "type": "bytes32"
        },
        {
          "indexed": false,
          "internalType": "uint32",
          "name": "leafIndex",
          "type": "uint32"
        },
        {
          "indexed": false,
          "internalType": "uint256",
          "name": "timestamp",
          "type": "uint256"
        }
      ],
      "name": "Deposit",
      "type": "event"
    },
    {
      "anonymous": false,
      "inputs": [
        {
          "indexed": true,
          "internalType": "address",
          "name": "previousOwner",
          "type": "address"
        },
        {
          "indexed": true,
          "internalType": "address",
          "name": "newOwner",
          "type": "address"
        }
      ],
      "name": "OwnershipTransferred",
      "type": "event"
    },
    {
      "anonymous": false,
      "inputs": [
        {
          "indexed": false,
          "internalType": "address",
          "name": "to",
          "type": "address"
        },
        {
          "indexed": false,
          "internalType": "bytes32",
          "name": "nullifierHash",
          "type": "bytes32"
        },
        {
          "indexed": true,
          "internalType": "address",
          "name": "relayer",
          "type": "address"
        },
        {
          "indexed": false,
          "internalType": "uint256",
          "name": "fee",
          "type": "uint256"
        }
      ],
      "name": "Withdrawal",
      "type": "event"
    },
    {
      "inputs": [],
      "name": "FIELD_SIZE",
      "outputs": [
        {
          "internalType": "uint256",
          "name": "",
          "type": "uint256"
        }
      ],
      "stateMutability": "view",
      "type": "function"
    },
    {
      "inputs": [],
      "name": "ROOT_HISTORY_SIZE",
      "outputs": [
        {
          "internalType": "uint32",
          "name": "",
          "type": "uint32"
        }
      ],
      "stateMutability": "view",
      "type": "function"
    },
    {
      "inputs": [],
      "name": "ZERO_VALUE",
      "outputs": [
        {
          "internalType": "uint256",
          "name": "",
          "type": "uint256"
        }
      ],
      "stateMutability": "view",
      "type": "function"
    },
    {
      "inputs": [],
      "name": "aToken",
      "outputs": [
        {
          "internalType": "address",
          "name": "",
          "type": "address"
        }
      ],
      "stateMutability": "view",
      "type": "function"
    },
    {
      "inputs": [],
      "name": "aaveInterestsProxy",
      "outputs": [
        {
          "internalType": "address",
          "name": "",
          "type": "address"
        }
      ],
      "stateMutability": "view",
      "type": "function"
    },
    {
      "inputs": [
        {
          "internalType": "bytes32",
          "name": "",
          "type": "bytes32"
        }
      ],
      "name": "commitments",
      "outputs": [
        {
          "internalType": "bool",
          "name": "",
          "type": "bool"
        }
      ],
      "stateMutability": "view",
      "type": "function"
    },
    {
      "inputs": [],
      "name": "currentRootIndex",
      "outputs": [
        {
          "internalType": "uint32",
          "name": "",
          "type": "uint32"
        }
      ],
      "stateMutability": "view",
      "type": "function"
    },
    {
      "inputs": [],
      "name": "denomination",
      "outputs": [
        {
          "internalType": "uint256",
          "name": "",
          "type": "uint256"
        }
      ],
      "stateMutability": "view",
      "type": "function"
    },
    {
      "inputs": [
        {
          "internalType": "bytes32",
          "name": "_commitment",
          "type": "bytes32"
        }
      ],
      "name": "deposit",
      "outputs": [],
      "stateMutability": "payable",
      "type": "function"
    },
    {
      "inputs": [],
      "name": "fee",
      "outputs": [
        {
          "internalType": "uint256",
          "name": "",
          "type": "uint256"
        }
      ],
      "stateMutability": "view",
      "type": "function"
    },
    {
      "inputs": [
        {
          "internalType": "uint256",
          "name": "",
          "type": "uint256"
        }
      ],
      "name": "filledSubtrees",
      "outputs": [
        {
          "internalType": "bytes32",
          "name": "",
          "type": "bytes32"
        }
      ],
      "stateMutability": "view",
      "type": "function"
    },
    {
      "inputs": [],
      "name": "getLastRoot",
      "outputs": [
        {
          "internalType": "bytes32",
          "name": "",
          "type": "bytes32"
        }
      ],
      "stateMutability": "view",
      "type": "function"
    },
    {
      "inputs": [
        {
          "internalType": "bytes32",
          "name": "_left",
          "type": "bytes32"
        },
        {
          "internalType": "bytes32",
          "name": "_right",
          "type": "bytes32"
        }
      ],
      "name": "hashLeftRight",
      "outputs": [
        {
          "internalType": "bytes32",
          "name": "",
          "type": "bytes32"
        }
      ],
      "stateMutability": "pure",
      "type": "function"
    },
    {
      "inputs": [
        {
          "internalType": "bytes32",
          "name": "_root",
          "type": "bytes32"
        }
      ],
      "name": "isKnownRoot",
      "outputs": [
        {
          "internalType": "bool",
          "name": "",
          "type": "bool"
        }
      ],
      "stateMutability": "view",
      "type": "function"
    },
    {
      "inputs": [
        {
          "internalType": "bytes32",
          "name": "_nullifierHash",
          "type": "bytes32"
        }
      ],
      "name": "isSpent",
      "outputs": [
        {
          "internalType": "bool",
          "name": "",
          "type": "bool"
        }
      ],
      "stateMutability": "view",
      "type": "function"
    },
    {
      "inputs": [
        {
          "internalType": "bytes32[]",
          "name": "_nullifierHashes",
          "type": "bytes32[]"
        }
      ],
      "name": "isSpentArray",
      "outputs": [
        {
          "internalType": "bool[]",
          "name": "spent",
          "type": "bool[]"
        }
      ],
      "stateMutability": "view",
      "type": "function"
    },
    {
      "inputs": [],
      "name": "lendingPoolAddressProvider",
      "outputs": [
        {
          "internalType": "address",
          "name": "",
          "type": "address"
        }
      ],
      "stateMutability": "view",
      "type": "function"
    },
    {
      "inputs": [],
      "name": "levels",
      "outputs": [
        {
          "internalType": "uint32",
          "name": "",
          "type": "uint32"
        }
      ],
      "stateMutability": "view",
      "type": "function"
    },
    {
      "inputs": [],
      "name": "nextIndex",
      "outputs": [
        {
          "internalType": "uint32",
          "name": "",
          "type": "uint32"
        }
      ],
      "stateMutability": "view",
      "type": "function"
    },
    {
      "inputs": [
        {
          "internalType": "bytes32",
          "name": "",
          "type": "bytes32"
        }
      ],
      "name": "nullifierHashes",
      "outputs": [
        {
          "internalType": "bool",
          "name": "",
          "type": "bool"
        }
      ],
      "stateMutability": "view",
      "type": "function"
    },
    {
      "inputs": [],
      "name": "ownershipAccepted",
      "outputs": [],
      "stateMutability": "nonpayable",
      "type": "function"
    },
    {
      "inputs": [],
      "name": "renounceOwnership",
      "outputs": [],
      "stateMutability": "nonpayable",
      "type": "function"
    },
    {
      "inputs": [
        {
          "internalType": "uint256",
          "name": "",
          "type": "uint256"
        }
      ],
      "name": "roots",
      "outputs": [
        {
          "internalType": "bytes32",
          "name": "",
          "type": "bytes32"
        }
      ],
      "stateMutability": "view",
      "type": "function"
    },
    {
      "inputs": [
        {
          "internalType": "address",
          "name": "_aaveInterestsProxy",
          "type": "address"
        }
      ],
      "name": "setAaveInterestsProxy",
      "outputs": [],
      "stateMutability": "nonpayable",
      "type": "function"
    },
    {
      "inputs": [
        {
          "internalType": "uint256",
          "name": "_fee",
          "type": "uint256"
        }
      ],
      "name": "setFee",
      "outputs": [],
      "stateMutability": "nonpayable",
      "type": "function"
    },
    {
      "inputs": [],
      "name": "token",
      "outputs": [
        {
          "internalType": "address",
          "name": "",
          "type": "address"
        }
      ],
      "stateMutability": "view",
      "type": "function"
    },
    {
      "inputs": [],
      "name": "totalAaveInterests",
      "outputs": [
        {
          "internalType": "uint256",
          "name": "",
          "type": "uint256"
        }
      ],
      "stateMutability": "view",
      "type": "function"
    },
    {
      "inputs": [
        {
          "internalType": "address",
          "name": "newOwner",
          "type": "address"
        }
      ],
      "name": "transferOwnership",
      "outputs": [],
      "stateMutability": "nonpayable",
      "type": "function"
    },
    {
      "inputs": [],
      "name": "verifier",
      "outputs": [
        {
          "internalType": "contract IVerifier",
          "name": "",
          "type": "address"
        }
      ],
      "stateMutability": "view",
      "type": "function"
    },
    {
      "inputs": [
        {
          "internalType": "uint256[2]",
          "name": "a",
          "type": "uint256[2]"
        },
        {
          "internalType": "uint256[2][2]",
          "name": "b",
          "type": "uint256[2][2]"
        },
        {
          "internalType": "uint256[2]",
          "name": "c",
          "type": "uint256[2]"
        },
        {
          "internalType": "bytes32",
          "name": "_root",
          "type": "bytes32"
        },
        {
          "internalType": "bytes32",
          "name": "_nullifierHash",
          "type": "bytes32"
        },
        {
          "internalType": "address payable",
          "name": "_recipient",
          "type": "address"
        },
        {
          "internalType": "address payable",
          "name": "_relayer",
          "type": "address"
        },
        {
          "internalType": "uint256",
          "name": "_fee",
          "type": "uint256"
        },
        {
          "internalType": "uint256",
          "name": "_refund",
          "type": "uint256"
        }
      ],
      "name": "withdraw",
      "outputs": [],
      "stateMutability": "payable",
      "type": "function"
    },
    {
      "inputs": [
        {
          "internalType": "uint256",
          "name": "",
          "type": "uint256"
        }
      ],
      "name": "zeros",
      "outputs": [
        {
          "internalType": "bytes32",
          "name": "",
          "type": "bytes32"
        }
      ],
      "stateMutability": "view",
      "type": "function"
    }
  ],
  "bytecode": "0x60806040526000600360006101000a81548163ffffffff021916908363ffffffff1602179055506000600360046101000a81548163ffffffff021916908363ffffffff1602179055506032606f553480156200005a57600080fd5b50604051620058a3380380620058a38339818101604052810190620000809190620006ec565b8787878584818360008163ffffffff1611620000d3576040517f08c379a0000000000000000000000000000000000000000000000000000000008152600401620000ca906200083c565b60405180910390fd5b60208163ffffffff16106200011f576040517f08c379a00000000000000000000000000000000000000000000000000000000081526004016200011690620008d4565b60405180910390fd5b806000806101000a81548163ffffffff021916908363ffffffff16021790555060007f2fe54c60d3acabf3343a35b6eba15db4821b340f76e741e2249685ed4899af6c60001b9050600281908060018154018082558091505060019003906000526020600020016000909190919091505560018190806001815401808255809150506001900390600052602060002001600090919091909150556000600190505b60008054906101000a900463ffffffff1663ffffffff168163ffffffff1610156200025f57620001f782836200044660201b60201c565b91506002829080600181540180825580915050600190039060005260206000200160009091909190915055600182908060018154018082558091505060019003906000526020600020016000909190919091505580620002579062000925565b9050620001c0565b506200027281826200044660201b60201c565b60046000606481106200028a576200028962000957565b5b01819055505050600160688190555080606960006101000a81548173ffffffffffffffffffffffffffffffffffffffff021916908373ffffffffffffffffffffffffffffffffffffffff160217905550506000841162000321576040517f08c379a00000000000000000000000000000000000000000000000000000000081526004016200031890620009fc565b60405180910390fd5b84606e60006101000a81548173ffffffffffffffffffffffffffffffffffffffff021916908373ffffffffffffffffffffffffffffffffffffffff16021790555083606b8190555080606f81905550505050505081607060006101000a81548173ffffffffffffffffffffffffffffffffffffffff021916908373ffffffffffffffffffffffffffffffffffffffff16021790555084607160006101000a81548173ffffffffffffffffffffffffffffffffffffffff021916908373ffffffffffffffffffffffffffffffffffffffff16021790555083607260006101000a81548173ffffffffffffffffffffffffffffffffffffffff021916908373ffffffffffffffffffffffffffffffffffffffff160217905550505050505050505062000c6d565b60007f30644e72e131a029b85045b68181585d2833e84879b9709143e1f593f00000018360001c10620004b0576040517f08c379a0000000000000000000000000000000000000000000000000000000008152600401620004a79062000a6e565b60405180910390fd5b7f30644e72e131a029b85045b68181585d2833e84879b9709143e1f593f00000018260001c1062000518576040517f08c379a00000000000000000000000000000000000000000000000000000000081526004016200050f9062000b06565b60405180910390fd5b73__$9780738a116369df5fe6eb1df74865bc0a$__63299e56606040518060400160405280868152602001858152506040518263ffffffff1660e01b815260040162000565919062000bed565b60206040518083038186803b1580156200057e57600080fd5b505af415801562000593573d6000803e3d6000fd5b505050506040513d601f19601f82011682018060405250810190620005b9919062000c3b565b905092915050565b600080fd5b600073ffffffffffffffffffffffffffffffffffffffff82169050919050565b6000620005f382620005c6565b9050919050565b60006200060782620005e6565b9050919050565b6200061981620005fa565b81146200062557600080fd5b50565b60008151905062000639816200060e565b92915050565b6000819050919050565b62000654816200063f565b81146200066057600080fd5b50565b600081519050620006748162000649565b92915050565b600063ffffffff82169050919050565b62000695816200067a565b8114620006a157600080fd5b50565b600081519050620006b5816200068a565b92915050565b620006c681620005e6565b8114620006d257600080fd5b50565b600081519050620006e681620006bb565b92915050565b600080600080600080600080610100898b03121562000710576200070f620005c1565b5b6000620007208b828c0162000628565b9850506020620007338b828c0162000663565b9750506040620007468b828c01620006a4565b9650506060620007598b828c01620006d5565b95505060806200076c8b828c01620006d5565b94505060a06200077f8b828c01620006d5565b93505060c0620007928b828c01620006d5565b92505060e0620007a58b828c0162000663565b9150509295985092959890939650565b600082825260208201905092915050565b7f5f747265654c6576656c732073686f756c64206265206772656174657220746860008201527f616e207a65726f00000000000000000000000000000000000000000000000000602082015250565b600062000824602783620007b5565b91506200083182620007c6565b604082019050919050565b60006020820190508181036000830152620008578162000815565b9050919050565b7f5f747265654c6576656c732073686f756c64206265206c657373207468616e2060008201527f3332000000000000000000000000000000000000000000000000000000000000602082015250565b6000620008bc602283620007b5565b9150620008c9826200085e565b604082019050919050565b60006020820190508181036000830152620008ef81620008ad565b9050919050565b7f4e487b7100000000000000000000000000000000000000000000000000000000600052601160045260246000fd5b600062000932826200067a565b915063ffffffff8214156200094c576200094b620008f6565b5b600182019050919050565b7f4e487b7100000000000000000000000000000000000000000000000000000000600052603260045260246000fd5b7f64656e6f6d696e6174696f6e2073686f756c642062652067726561746572207460008201527f68616e2030000000000000000000000000000000000000000000000000000000602082015250565b6000620009e4602583620007b5565b9150620009f18262000986565b604082019050919050565b6000602082019050818103600083015262000a1781620009d5565b9050919050565b7f5f6c6566742073686f756c6420626520696e7369646520746865206669656c64600082015250565b600062000a56602083620007b5565b915062000a638262000a1e565b602082019050919050565b6000602082019050818103600083015262000a898162000a47565b9050919050565b7f5f72696768742073686f756c6420626520696e7369646520746865206669656c60008201527f6400000000000000000000000000000000000000000000000000000000000000602082015250565b600062000aee602183620007b5565b915062000afb8262000a90565b604082019050919050565b6000602082019050818103600083015262000b218162000adf565b9050919050565b600060029050919050565b600081905092915050565b6000819050919050565b6000819050919050565b62000b5d8162000b48565b82525050565b600062000b71838362000b52565b60208301905092915050565b6000602082019050919050565b62000b958162000b28565b62000ba1818462000b33565b925062000bae8262000b3e565b8060005b8381101562000be557815162000bc9878262000b63565b965062000bd68362000b7d565b92505060018101905062000bb2565b505050505050565b600060408201905062000c04600083018462000b8a565b92915050565b62000c158162000b48565b811462000c2157600080fd5b50565b60008151905062000c358162000c0a565b92915050565b60006020828403121562000c545762000c53620005c1565b5b600062000c648482850162000c24565b91505092915050565b614c268062000c7d6000396000f3fe6080604052600436106101d85760003560e01c80639fa12d0b11610102578063e829558811610095578063f2fde38b11610064578063f2fde38b146106be578063f9db6c48146106e7578063fc0c546a14610712578063fc7e9c6f1461073d576101d8565b8063e829558814610602578063eb1dbc1b1461063f578063ec73295914610656578063f178e47c14610681576101d8565b8063c2b40ae4116100d1578063c2b40ae414610532578063cd87a3b41461056f578063ddca3f431461059a578063e5285dcc146105c5576101d8565b80639fa12d0b14610483578063a0c1f15e146104c0578063b214faa5146104eb578063ba70f75714610507576101d8565b8063633803001161017a578063839df94511610149578063839df945146103c55780638bca6d161461040257806390eeb02b1461042d57806393524b1714610458576101d8565b8063633803001461031d57806369fe0e2d146103485780636d9833e314610371578063715018a6146103ae576101d8565b80632b7ac3f3116101b65780632b7ac3f31461025f57806338bf282e1461028a578063414a37ba146102c75780634ecf518b146102f2576101d8565b806317cc915c146101dd57806327dc46691461021a5780632aa4eeec14610243575b600080fd5b3480156101e957600080fd5b5061020460048036038101906101ff9190612e58565b610768565b6040516102119190612ea0565b60405180910390f35b34801561022657600080fd5b50610241600480360381019061023c9190612f19565b610788565b005b61025d600480360381019061025891906131b2565b61085c565b005b34801561026b57600080fd5b50610274610b85565b60405161028191906132e0565b60405180910390f35b34801561029657600080fd5b506102b160048036038101906102ac91906132fb565b610bab565b6040516102be919061334a565b60405180910390f35b3480156102d357600080fd5b506102dc610d1a565b6040516102e99190613374565b60405180910390f35b3480156102fe57600080fd5b50610307610d3e565b60405161031491906133ae565b60405180910390f35b34801561032957600080fd5b50610332610d52565b60405161033f91906133d8565b60405180910390f35b34801561035457600080fd5b5061036f600480360381019061036a91906133f3565b610d78565b005b34801561037d57600080fd5b5061039860048036038101906103939190612e58565b610e57565b6040516103a59190612ea0565b60405180910390f35b3480156103ba57600080fd5b506103c3610f05565b005b3480156103d157600080fd5b506103ec60048036038101906103e79190612e58565b610fa1565b6040516103f99190612ea0565b60405180910390f35b34801561040e57600080fd5b50610417610fc1565b6040516104249190613374565b60405180910390f35b34801561043957600080fd5b50610442610fc7565b60405161044f91906133ae565b60405180910390f35b34801561046457600080fd5b5061046d610fdd565b60405161047a91906133d8565b60405180910390f35b34801561048f57600080fd5b506104aa60048036038101906104a5919061347b565b611003565b6040516104b79190613586565b60405180910390f35b3480156104cc57600080fd5b506104d56110c8565b6040516104e291906133d8565b60405180910390f35b61050560048036038101906105009190612e58565b6110ee565b005b34801561051357600080fd5b5061051c611224565b604051610529919061334a565b60405180910390f35b34801561053e57600080fd5b50610559600480360381019061055491906133f3565b611259565b604051610566919061334a565b60405180910390f35b34801561057b57600080fd5b50610584611274565b60405161059191906133ae565b60405180910390f35b3480156105a657600080fd5b506105af611279565b6040516105bc9190613374565b60405180910390f35b3480156105d157600080fd5b506105ec60048036038101906105e79190612e58565b61127f565b6040516105f99190612ea0565b60405180910390f35b34801561060e57600080fd5b50610629600480360381019061062491906133f3565b6112a9565b604051610636919061334a565b60405180910390f35b34801561064b57600080fd5b506106546112cd565b005b34801561066257600080fd5b5061066b6113ba565b6040516106789190613374565b60405180910390f35b34801561068d57600080fd5b506106a860048036038101906106a391906133f3565b6113de565b6040516106b5919061334a565b60405180910390f35b3480156106ca57600080fd5b506106e560048036038101906106e09190612f19565b611402565b005b3480156106f357600080fd5b506106fc61155d565b6040516107099190613374565b60405180910390f35b34801561071e57600080fd5b50610727611563565b60405161073491906133d8565b60405180910390f35b34801561074957600080fd5b50610752611589565b60405161075f91906133ae565b60405180910390f35b606c6020528060005260406000206000915054906101000a900460ff1681565b606960009054906101000a900473ffffffffffffffffffffffffffffffffffffffff1673ffffffffffffffffffffffffffffffffffffffff163373ffffffffffffffffffffffffffffffffffffffff1614610818576040517f08c379a000000000000000000000000000000000000000000000000000000000815260040161080f90613605565b60405180910390fd5b80607360006101000a81548173ffffffffffffffffffffffffffffffffffffffff021916908373ffffffffffffffffffffffffffffffffffffffff16021790555050565b600260685414156108a2576040517f08c379a000000000000000000000000000000000000000000000000000000000815260040161089990613671565b60405180910390fd5b6002606881905550606b548211156108ef576040517f08c379a00000000000000000000000000000000000000000000000000000000081526004016108e6906136dd565b60405180910390fd5b606c600086815260200190815260200160002060009054906101000a900460ff1615610950576040517f08c379a000000000000000000000000000000000000000000000000000000000815260040161094790613749565b60405180910390fd5b61095986610e57565b610998576040517f08c379a000000000000000000000000000000000000000000000000000000000815260040161098f906137b5565b60405180910390fd5b606e60009054906101000a900473ffffffffffffffffffffffffffffffffffffffff1673ffffffffffffffffffffffffffffffffffffffff1663f398789b8a8a8a6040518060c001604052808c60001c81526020018b60001c81526020018a73ffffffffffffffffffffffffffffffffffffffff1681526020018973ffffffffffffffffffffffffffffffffffffffff168152602001888152602001878152506040518563ffffffff1660e01b8152600401610a579493929190613a02565b602060405180830381600087803b158015610a7157600080fd5b505af1158015610a85573d6000803e3d6000fd5b505050506040513d601f19601f82011682018060405250810190610aa99190613a75565b610ae8576040517f08c379a0000000000000000000000000000000000000000000000000000000008152600401610adf90613aee565b60405180910390fd5b6001606c600087815260200190815260200160002060006101000a81548160ff021916908315150217905550610b208484848461159f565b8273ffffffffffffffffffffffffffffffffffffffff167fe9e508bad6d4c3227e881ca19068f099da81b5164dd6d62b2eaf1e8bc6c34931858785604051610b6a93929190613b2f565b60405180910390a26001606881905550505050505050505050565b606e60009054906101000a900473ffffffffffffffffffffffffffffffffffffffff1681565b60007f30644e72e131a029b85045b68181585d2833e84879b9709143e1f593f00000018360001c10610c12576040517f08c379a0000000000000000000000000000000000000000000000000000000008152600401610c0990613bb2565b60405180910390fd5b7f30644e72e131a029b85045b68181585d2833e84879b9709143e1f593f00000018260001c10610c77576040517f08c379a0000000000000000000000000000000000000000000000000000000008152600401610c6e90613c44565b60405180910390fd5b73__$9780738a116369df5fe6eb1df74865bc0a$__63299e56606040518060400160405280868152602001858152506040518263ffffffff1660e01b8152600401610cc29190613d0f565b60206040518083038186803b158015610cda57600080fd5b505af4158015610cee573d6000803e3d6000fd5b505050506040513d601f19601f82011682018060405250810190610d129190613d3f565b905092915050565b7f30644e72e131a029b85045b68181585d2833e84879b9709143e1f593f000000181565b60008054906101000a900463ffffffff1681565b607160009054906101000a900473ffffffffffffffffffffffffffffffffffffffff1681565b606960009054906101000a900473ffffffffffffffffffffffffffffffffffffffff1673ffffffffffffffffffffffffffffffffffffffff163373ffffffffffffffffffffffffffffffffffffffff1614610e08576040517f08c379a0000000000000000000000000000000000000000000000000000000008152600401610dff90613605565b60405180910390fd5b6103e8811115610e4d576040517f08c379a0000000000000000000000000000000000000000000000000000000008152600401610e4490613dde565b60405180910390fd5b80606f8190555050565b60008060001b821415610e6d5760009050610f00565b6000600360009054906101000a900463ffffffff1690505b60048163ffffffff1660648110610e9f57610e9e613dfe565b5b0154831415610eb2576001915050610f00565b60008163ffffffff161415610ec657606490505b8080610ed190613e5c565b915050600360009054906101000a900463ffffffff1663ffffffff168163ffffffff161415610e855760009150505b919050565b606960009054906101000a900473ffffffffffffffffffffffffffffffffffffffff1673ffffffffffffffffffffffffffffffffffffffff163373ffffffffffffffffffffffffffffffffffffffff1614610f95576040517f08c379a0000000000000000000000000000000000000000000000000000000008152600401610f8c90613605565b60405180910390fd5b610f9f6000611c3b565b565b606d6020528060005260406000206000915054906101000a900460ff1681565b606b5481565b600360009054906101000a900463ffffffff1681565b607360009054906101000a900473ffffffffffffffffffffffffffffffffffffffff1681565b60608282905067ffffffffffffffff81111561102257611021612f5c565b5b6040519080825280602002602001820160405280156110505781602001602082028036833780820191505090505b50905060005b838390508110156110c15761108384848381811061107757611076613dfe565b5b9050602002013561127f565b156110b057600182828151811061109d5761109c613dfe565b5b6020026020010190151590811515815250505b806110ba90613e86565b9050611056565b5092915050565b607260009054906101000a900473ffffffffffffffffffffffffffffffffffffffff1681565b60026068541415611134576040517f08c379a000000000000000000000000000000000000000000000000000000000815260040161112b90613671565b60405180910390fd5b6002606881905550606d600082815260200190815260200160002060009054906101000a900460ff161561119d576040517f08c379a000000000000000000000000000000000000000000000000000000000815260040161119490613f41565b60405180910390fd5b60006111a882611cfb565b90506001606d600084815260200190815260200160002060006101000a81548160ff0219169083151502179055506111de611f5f565b817fa945e51eec50ab98c161376f0db4cf2aeba3ec92755fe2fcd388bdbbb80ff1968242604051611210929190613f61565b60405180910390a250600160688190555050565b60006004600360009054906101000a900463ffffffff1663ffffffff166064811061125257611251613dfe565b5b0154905090565b6004816064811061126957600080fd5b016000915090505481565b606481565b606f5481565b6000606c600083815260200190815260200160002060009054906101000a900460ff169050919050565b600281815481106112b957600080fd5b906000526020600020016000915090505481565b60011515606a60003373ffffffffffffffffffffffffffffffffffffffff1673ffffffffffffffffffffffffffffffffffffffff16815260200190815260200160002060009054906101000a900460ff16151514611360576040517f08c379a000000000000000000000000000000000000000000000000000000000815260040161135790613605565b60405180910390fd5b61136933611c3b565b606a60003373ffffffffffffffffffffffffffffffffffffffff1673ffffffffffffffffffffffffffffffffffffffff16815260200190815260200160002060006101000a81549060ff0219169055565b7f2fe54c60d3acabf3343a35b6eba15db4821b340f76e741e2249685ed4899af6c81565b600181815481106113ee57600080fd5b906000526020600020016000915090505481565b606960009054906101000a900473ffffffffffffffffffffffffffffffffffffffff1673ffffffffffffffffffffffffffffffffffffffff163373ffffffffffffffffffffffffffffffffffffffff1614611492576040517f08c379a000000000000000000000000000000000000000000000000000000000815260040161148990613605565b60405180910390fd5b600073ffffffffffffffffffffffffffffffffffffffff168173ffffffffffffffffffffffffffffffffffffffff161415611502576040517f08c379a00000000000000000000000000000000000000000000000000000000081526004016114f990613fd6565b60405180910390fd5b6001606a60008373ffffffffffffffffffffffffffffffffffffffff1673ffffffffffffffffffffffffffffffffffffffff16815260200190815260200160002060006101000a81548160ff02191690831515021790555050565b60755481565b607060009054906101000a900473ffffffffffffffffffffffffffffffffffffffff1681565b600360049054906101000a900463ffffffff1681565b8034146115e1576040517f08c379a00000000000000000000000000000000000000000000000000000000081526004016115d890614068565b60405180910390fd5b6000607160009054906101000a900473ffffffffffffffffffffffffffffffffffffffff1673ffffffffffffffffffffffffffffffffffffffff1663026b1d5f6040518163ffffffff1660e01b815260040160206040518083038186803b15801561164b57600080fd5b505afa15801561165f573d6000803e3d6000fd5b505050506040513d601f19601f82011682018060405250810190611683919061409d565b90506000612710606f54606b5461169a91906140ca565b6116a49190614153565b90506116e56040518060400160405280601181526020017f2323236f70657261746f724665652323230000000000000000000000000000008152508261242a565b6117ce6040518060400160405280601281526020017f23232361546f6b656e416d6f756e742323230000000000000000000000000000815250607260009054906101000a900473ffffffffffffffffffffffffffffffffffffffff1673ffffffffffffffffffffffffffffffffffffffff166370a08231306040518263ffffffff1660e01b815260040161177991906133d8565b60206040518083038186803b15801561179157600080fd5b505afa1580156117a5573d6000803e3d6000fd5b505050506040513d601f19601f820116820180604052508101906117c99190614199565b61242a565b6118256040518060400160405280600681526020017f23232323232300000000000000000000000000000000000000000000000000008152508583606b5461181691906141c6565b61182091906141c6565b61242a565b607260009054906101000a900473ffffffffffffffffffffffffffffffffffffffff1673ffffffffffffffffffffffffffffffffffffffff1663095ea7b383606b546040518363ffffffff1660e01b81526004016118849291906141fa565b602060405180830381600087803b15801561189e57600080fd5b505af11580156118b2573d6000803e3d6000fd5b505050506040513d601f19601f820116820180604052508101906118d69190613a75565b611915576040517f08c379a000000000000000000000000000000000000000000000000000000000815260040161190c9061426f565b60405180910390fd5b8173ffffffffffffffffffffffffffffffffffffffff166369328dec607060009054906101000a900473ffffffffffffffffffffffffffffffffffffffff168684606b5461196391906141c6565b61196d91906141c6565b306040518463ffffffff1660e01b815260040161198c9392919061428f565b600060405180830381600087803b1580156119a657600080fd5b505af11580156119ba573d6000803e3d6000fd5b505050506119e0868583606b546119d191906141c6565b6119db91906141c6565b6124c6565b6000811115611aa7578173ffffffffffffffffffffffffffffffffffffffff166369328dec607060009054906101000a900473ffffffffffffffffffffffffffffffffffffffff1683306040518463ffffffff1660e01b8152600401611a489392919061428f565b600060405180830381600087803b158015611a6257600080fd5b505af1158015611a76573d6000803e3d6000fd5b50505050611aa6606960009054906101000a900473ffffffffffffffffffffffffffffffffffffffff16826124c6565b5b6000841115611b4c578173ffffffffffffffffffffffffffffffffffffffff166369328dec607060009054906101000a900473ffffffffffffffffffffffffffffffffffffffff1686306040518463ffffffff1660e01b8152600401611b0f9392919061428f565b600060405180830381600087803b158015611b2957600080fd5b505af1158015611b3d573d6000803e3d6000fd5b50505050611b4b85856124c6565b5b606b5460746000828254611b6091906141c6565b92505081905550611b6f61269a565b6000831115611c335760008673ffffffffffffffffffffffffffffffffffffffff1684604051611b9e906142f7565b60006040518083038185875af1925050503d8060008114611bdb576040519150601f19603f3d011682016040523d82523d6000602084013e611be0565b606091505b5050905080611c31578573ffffffffffffffffffffffffffffffffffffffff166108fc859081150290604051600060405180830381858888f19350505050158015611c2f573d6000803e3d6000fd5b505b505b505050505050565b8073ffffffffffffffffffffffffffffffffffffffff16606960009054906101000a900473ffffffffffffffffffffffffffffffffffffffff1673ffffffffffffffffffffffffffffffffffffffff167f8be0079c531659141344cd1fd0a4f28419497f9722a3daafe3b4186f6b6457e060405160405180910390a380606960006101000a81548173ffffffffffffffffffffffffffffffffffffffff021916908373ffffffffffffffffffffffffffffffffffffffff16021790555050565b600080600360049054906101000a900463ffffffff16905060008054906101000a900463ffffffff166002611d30919061443f565b63ffffffff168163ffffffff161415611d7e576040517f08c379a0000000000000000000000000000000000000000000000000000000008152600401611d75906144e0565b60405180910390fd5b6001600360048282829054906101000a900463ffffffff16611da09190614500565b92506101000a81548163ffffffff021916908363ffffffff160217905550600083905060008060005b60008054906101000a900463ffffffff1663ffffffff168163ffffffff161015611eb7576000600286611dfc919061453a565b63ffffffff161415611e605783925060028163ffffffff1681548110611e2557611e24613dfe565b5b906000526020600020015491508360018263ffffffff1681548110611e4d57611e4c613dfe565b5b9060005260206000200181905550611e8b565b60018163ffffffff1681548110611e7a57611e79613dfe565b5b906000526020600020015492508391505b611e958383610bab565b9350600285611ea4919061456b565b945080611eb09061459c565b9050611dc9565b5060646001600360009054906101000a900463ffffffff16611ed99190614500565b611ee3919061453a565b600360006101000a81548163ffffffff021916908363ffffffff160217905550826004600360009054906101000a900463ffffffff1663ffffffff1660648110611f3057611f2f613dfe565b5b01819055506001600360049054906101000a900463ffffffff16611f5491906145c9565b945050505050919050565b60003414611fa2576040517f08c379a0000000000000000000000000000000000000000000000000000000008152600401611f999061466f565b60405180910390fd5b611faf3330606b54612ad9565b6120106040518060400160405280600b81526020017f232323546f6b656e232323000000000000000000000000000000000000000000815250607060009054906101000a900473ffffffffffffffffffffffffffffffffffffffff16612cb0565b6120716040518060400160405280600c81526020017f23232361546f6b656e2323230000000000000000000000000000000000000000815250607260009054906101000a900473ffffffffffffffffffffffffffffffffffffffff16612cb0565b61215a6040518060400160405280601181526020017f232323506f6f6c42616c616e6365232323000000000000000000000000000000815250607060009054906101000a900473ffffffffffffffffffffffffffffffffffffffff1673ffffffffffffffffffffffffffffffffffffffff166370a08231306040518263ffffffff1660e01b815260040161210591906133d8565b60206040518083038186803b15801561211d57600080fd5b505afa158015612131573d6000803e3d6000fd5b505050506040513d601f19601f820116820180604052508101906121559190614199565b61242a565b6000607160009054906101000a900473ffffffffffffffffffffffffffffffffffffffff1673ffffffffffffffffffffffffffffffffffffffff1663026b1d5f6040518163ffffffff1660e01b815260040160206040518083038186803b1580156121c457600080fd5b505afa1580156121d8573d6000803e3d6000fd5b505050506040513d601f19601f820116820180604052508101906121fc919061409d565b905061223f6040518060400160405280601281526020017f23232364656e6f6d696e6174696f6e2323230000000000000000000000000000815250606b5461242a565b61227e6040518060400160405280601181526020017f2323236c656e64696e67506f6f6c23232300000000000000000000000000000081525082612cb0565b607060009054906101000a900473ffffffffffffffffffffffffffffffffffffffff1673ffffffffffffffffffffffffffffffffffffffff1663095ea7b382606b546040518363ffffffff1660e01b81526004016122dd9291906141fa565b602060405180830381600087803b1580156122f757600080fd5b505af115801561230b573d6000803e3d6000fd5b505050506040513d601f19601f8201168201806040525081019061232f9190613a75565b61236e576040517f08c379a0000000000000000000000000000000000000000000000000000000008152600401612365906146db565b60405180910390fd5b8073ffffffffffffffffffffffffffffffffffffffff1663617ba037607060009054906101000a900473ffffffffffffffffffffffffffffffffffffffff16606b543060006040518563ffffffff1660e01b81526004016123d29493929190614744565b600060405180830381600087803b1580156123ec57600080fd5b505af1158015612400573d6000803e3d6000fd5b50505050606b54607460008282546124189190614789565b9250508190555061242761269a565b50565b6124c28282604051602401612440929190614856565b6040516020818303038152906040527f9710a9d0000000000000000000000000000000000000000000000000000000007bffffffffffffffffffffffffffffffffffffffffffffffffffffffff19166020820180517bffffffffffffffffffffffffffffffffffffffffffffffffffffffff8381831617835250505050612d4c565b5050565b600080607060009054906101000a900473ffffffffffffffffffffffffffffffffffffffff1673ffffffffffffffffffffffffffffffffffffffff1663a9059cbb858560405160240161251a9291906141fa565b6040516020818303038152906040529060e01b6020820180517bffffffffffffffffffffffffffffffffffffffffffffffffffffffff838183161783525050505060405161256891906148c2565b6000604051808303816000865af19150503d80600081146125a5576040519150601f19603f3d011682016040523d82523d6000602084013e6125aa565b606091505b5091509150816125ef576040517f08c379a00000000000000000000000000000000000000000000000000000000081526004016125e690614925565b60405180910390fd5b60008151111561269457602081511461263d576040517f08c379a0000000000000000000000000000000000000000000000000000000008152600401612634906149b7565b60405180910390fd5b808060200190518101906126519190613a75565b915081612693576040517f08c379a000000000000000000000000000000000000000000000000000000000815260040161268a90614a49565b60405180910390fd5b5b50505050565b6000607454607260009054906101000a900473ffffffffffffffffffffffffffffffffffffffff1673ffffffffffffffffffffffffffffffffffffffff166370a08231306040518263ffffffff1660e01b81526004016126fa91906133d8565b60206040518083038186803b15801561271257600080fd5b505afa158015612726573d6000803e3d6000fd5b505050506040513d601f19601f8201168201806040525081019061274a9190614199565b61275491906141c6565b90506127956040518060400160405280601381526020017f2323236e657720696e74657265737473232323000000000000000000000000008152508261242a565b6000811180156127f45750600073ffffffffffffffffffffffffffffffffffffffff16607360009054906101000a900473ffffffffffffffffffffffffffffffffffffffff1673ffffffffffffffffffffffffffffffffffffffff1614155b15612ad6576000607160009054906101000a900473ffffffffffffffffffffffffffffffffffffffff1673ffffffffffffffffffffffffffffffffffffffff1663026b1d5f6040518163ffffffff1660e01b815260040160206040518083038186803b15801561286357600080fd5b505afa158015612877573d6000803e3d6000fd5b505050506040513d601f19601f8201168201806040525081019061289b919061409d565b90506128db6040518060400160405280601e81526020017f2323237072657061726520746f2073656e6420696e7465726573742323230000815250612d75565b607260009054906101000a900473ffffffffffffffffffffffffffffffffffffffff1673ffffffffffffffffffffffffffffffffffffffff1663095ea7b382846040518363ffffffff1660e01b81526004016129389291906141fa565b602060405180830381600087803b15801561295257600080fd5b505af1158015612966573d6000803e3d6000fd5b505050506040513d601f19601f8201168201806040525081019061298a9190613a75565b6129c9576040517f08c379a00000000000000000000000000000000000000000000000000000000081526004016129c09061426f565b60405180910390fd5b8073ffffffffffffffffffffffffffffffffffffffff166369328dec607260009054906101000a900473ffffffffffffffffffffffffffffffffffffffff1684607360009054906101000a900473ffffffffffffffffffffffffffffffffffffffff166040518463ffffffff1660e01b8152600401612a4a9392919061428f565b600060405180830381600087803b158015612a6457600080fd5b505af1158015612a78573d6000803e3d6000fd5b50505050612abb6040518060400160405280601381526020017f23232353656e7420496e746572657374232323000000000000000000000000008152508361242a565b8160756000828254612acd9190614789565b92505081905550505b50565b600080607060009054906101000a900473ffffffffffffffffffffffffffffffffffffffff1673ffffffffffffffffffffffffffffffffffffffff166323b872dd868686604051602401612b2f93929190614a69565b6040516020818303038152906040529060e01b6020820180517bffffffffffffffffffffffffffffffffffffffffffffffffffffffff8381831617835250505050604051612b7d91906148c2565b6000604051808303816000865af19150503d8060008114612bba576040519150601f19603f3d011682016040523d82523d6000602084013e612bbf565b606091505b509150915081612c04576040517f08c379a0000000000000000000000000000000000000000000000000000000008152600401612bfb90614aec565b60405180910390fd5b600081511115612ca9576020815114612c52576040517f08c379a0000000000000000000000000000000000000000000000000000000008152600401612c49906149b7565b60405180910390fd5b80806020019051810190612c669190613a75565b915081612ca8576040517f08c379a0000000000000000000000000000000000000000000000000000000008152600401612c9f90614b7e565b60405180910390fd5b5b5050505050565b612d488282604051602401612cc6929190614b9e565b6040516020818303038152906040527f319af333000000000000000000000000000000000000000000000000000000007bffffffffffffffffffffffffffffffffffffffffffffffffffffffff19166020820180517bffffffffffffffffffffffffffffffffffffffffffffffffffffffff8381831617835250505050612d4c565b5050565b60008151905060006a636f6e736f6c652e6c6f679050602083016000808483855afa5050505050565b612e0b81604051602401612d899190614bce565b6040516020818303038152906040527f41304fac000000000000000000000000000000000000000000000000000000007bffffffffffffffffffffffffffffffffffffffffffffffffffffffff19166020820180517bffffffffffffffffffffffffffffffffffffffffffffffffffffffff8381831617835250505050612d4c565b50565b6000604051905090565b600080fd5b600080fd5b6000819050919050565b612e3581612e22565b8114612e4057600080fd5b50565b600081359050612e5281612e2c565b92915050565b600060208284031215612e6e57612e6d612e18565b5b6000612e7c84828501612e43565b91505092915050565b60008115159050919050565b612e9a81612e85565b82525050565b6000602082019050612eb56000830184612e91565b92915050565b600073ffffffffffffffffffffffffffffffffffffffff82169050919050565b6000612ee682612ebb565b9050919050565b612ef681612edb565b8114612f0157600080fd5b50565b600081359050612f1381612eed565b92915050565b600060208284031215612f2f57612f2e612e18565b5b6000612f3d84828501612f04565b91505092915050565b600080fd5b6000601f19601f8301169050919050565b7f4e487b7100000000000000000000000000000000000000000000000000000000600052604160045260246000fd5b612f9482612f4b565b810181811067ffffffffffffffff82111715612fb357612fb2612f5c565b5b80604052505050565b6000612fc6612e0e565b9050612fd28282612f8b565b919050565b600067ffffffffffffffff821115612ff257612ff1612f5c565b5b602082029050919050565b600080fd5b6000819050919050565b61301581613002565b811461302057600080fd5b50565b6000813590506130328161300c565b92915050565b600061304b61304684612fd7565b612fbc565b9050806020840283018581111561306557613064612ffd565b5b835b8181101561308e578061307a8882613023565b845260208401935050602081019050613067565b5050509392505050565b600082601f8301126130ad576130ac612f46565b5b60026130ba848285613038565b91505092915050565b600067ffffffffffffffff8211156130de576130dd612f5c565b5b602082029050919050565b60006130fc6130f7846130c3565b612fbc565b9050806040840283018581111561311657613115612ffd565b5b835b8181101561313f578061312b8882613098565b845260208401935050604081019050613118565b5050509392505050565b600082601f83011261315e5761315d612f46565b5b600261316b8482856130e9565b91505092915050565b600061317f82612ebb565b9050919050565b61318f81613174565b811461319a57600080fd5b50565b6000813590506131ac81613186565b92915050565b60008060008060008060008060006101c08a8c0312156131d5576131d4612e18565b5b60006131e38c828d01613098565b99505060406131f48c828d01613149565b98505060c06132058c828d01613098565b9750506101006132178c828d01612e43565b9650506101206132298c828d01612e43565b95505061014061323b8c828d0161319d565b94505061016061324d8c828d0161319d565b93505061018061325f8c828d01613023565b9250506101a06132718c828d01613023565b9150509295985092959850929598565b6000819050919050565b60006132a66132a161329c84612ebb565b613281565b612ebb565b9050919050565b60006132b88261328b565b9050919050565b60006132ca826132ad565b9050919050565b6132da816132bf565b82525050565b60006020820190506132f560008301846132d1565b92915050565b6000806040838503121561331257613311612e18565b5b600061332085828601612e43565b925050602061333185828601612e43565b9150509250929050565b61334481612e22565b82525050565b600060208201905061335f600083018461333b565b92915050565b61336e81613002565b82525050565b60006020820190506133896000830184613365565b92915050565b600063ffffffff82169050919050565b6133a88161338f565b82525050565b60006020820190506133c3600083018461339f565b92915050565b6133d281612edb565b82525050565b60006020820190506133ed60008301846133c9565b92915050565b60006020828403121561340957613408612e18565b5b600061341784828501613023565b91505092915050565b600080fd5b60008083601f84011261343b5761343a612f46565b5b8235905067ffffffffffffffff81111561345857613457613420565b5b60208301915083602082028301111561347457613473612ffd565b5b9250929050565b6000806020838503121561349257613491612e18565b5b600083013567ffffffffffffffff8111156134b0576134af612e1d565b5b6134bc85828601613425565b92509250509250929050565b600081519050919050565b600082825260208201905092915050565b6000819050602082019050919050565b6134fd81612e85565b82525050565b600061350f83836134f4565b60208301905092915050565b6000602082019050919050565b6000613533826134c8565b61353d81856134d3565b9350613548836134e4565b8060005b838110156135795781516135608882613503565b975061356b8361351b565b92505060018101905061354c565b5085935050505092915050565b600060208201905081810360008301526135a08184613528565b905092915050565b600082825260208201905092915050565b7f4e6f7420617574686f72697a6564000000000000000000000000000000000000600082015250565b60006135ef600e836135a8565b91506135fa826135b9565b602082019050919050565b6000602082019050818103600083015261361e816135e2565b9050919050565b7f5265656e7472616e637947756172643a207265656e7472616e742063616c6c00600082015250565b600061365b601f836135a8565b915061366682613625565b602082019050919050565b6000602082019050818103600083015261368a8161364e565b9050919050565b7f4665652065786365656473207472616e736665722076616c7565000000000000600082015250565b60006136c7601a836135a8565b91506136d282613691565b602082019050919050565b600060208201905081810360008301526136f6816136ba565b9050919050565b7f546865206e6f746520686173206265656e20616c7265616479207370656e7400600082015250565b6000613733601f836135a8565b915061373e826136fd565b602082019050919050565b6000602082019050818103600083015261376281613726565b9050919050565b7f43616e6e6f742066696e6420796f7572206d65726b6c6520726f6f7400000000600082015250565b600061379f601c836135a8565b91506137aa82613769565b602082019050919050565b600060208201905081810360008301526137ce81613792565b9050919050565b600060029050919050565b600081905092915050565b6000819050919050565b6137fe81613002565b82525050565b600061381083836137f5565b60208301905092915050565b6000602082019050919050565b613832816137d5565b61383c81846137e0565b9250613847826137eb565b8060005b8381101561387857815161385f8782613804565b965061386a8361381c565b92505060018101905061384b565b505050505050565b600060029050919050565b600081905092915050565b6000819050919050565b600081905092915050565b6138b4816137d5565b6138be81846138a0565b92506138c9826137eb565b8060005b838110156138fa5781516138e18782613804565b96506138ec8361381c565b9250506001810190506138cd565b505050505050565b600061390e83836138ab565b60408301905092915050565b6000602082019050919050565b61393081613880565b61393a818461388b565b925061394582613896565b8060005b8381101561397657815161395d8782613902565b96506139688361391a565b925050600181019050613949565b505050505050565b600060069050919050565b600081905092915050565b6000819050919050565b6000602082019050919050565b6139b48161397e565b6139be8184613989565b92506139c982613994565b8060005b838110156139fa5781516139e18782613804565b96506139ec8361399e565b9250506001810190506139cd565b505050505050565b60006101c082019050613a186000830187613829565b613a256040830186613927565b613a3260c0830185613829565b613a406101008301846139ab565b95945050505050565b613a5281612e85565b8114613a5d57600080fd5b50565b600081519050613a6f81613a49565b92915050565b600060208284031215613a8b57613a8a612e18565b5b6000613a9984828501613a60565b91505092915050565b7f496e76616c69642077697468647261772070726f6f6600000000000000000000600082015250565b6000613ad86016836135a8565b9150613ae382613aa2565b602082019050919050565b60006020820190508181036000830152613b0781613acb565b9050919050565b6000613b19826132ad565b9050919050565b613b2981613b0e565b82525050565b6000606082019050613b446000830186613b20565b613b51602083018561333b565b613b5e6040830184613365565b949350505050565b7f5f6c6566742073686f756c6420626520696e7369646520746865206669656c64600082015250565b6000613b9c6020836135a8565b9150613ba782613b66565b602082019050919050565b60006020820190508181036000830152613bcb81613b8f565b9050919050565b7f5f72696768742073686f756c6420626520696e7369646520746865206669656c60008201527f6400000000000000000000000000000000000000000000000000000000000000602082015250565b6000613c2e6021836135a8565b9150613c3982613bd2565b604082019050919050565b60006020820190508181036000830152613c5d81613c21565b9050919050565b600060029050919050565b600081905092915050565b6000819050919050565b613c8d81612e22565b82525050565b6000613c9f8383613c84565b60208301905092915050565b6000602082019050919050565b613cc181613c64565b613ccb8184613c6f565b9250613cd682613c7a565b8060005b83811015613d07578151613cee8782613c93565b9650613cf983613cab565b925050600181019050613cda565b505050505050565b6000604082019050613d246000830184613cb8565b92915050565b600081519050613d3981612e2c565b92915050565b600060208284031215613d5557613d54612e18565b5b6000613d6384828501613d2a565b91505092915050565b7f4f70657261746f72206665652068617320746f20626520736d616c6c6572207460008201527f68616e2031302500000000000000000000000000000000000000000000000000602082015250565b6000613dc86027836135a8565b9150613dd382613d6c565b604082019050919050565b60006020820190508181036000830152613df781613dbb565b9050919050565b7f4e487b7100000000000000000000000000000000000000000000000000000000600052603260045260246000fd5b7f4e487b7100000000000000000000000000000000000000000000000000000000600052601160045260246000fd5b6000613e678261338f565b91506000821415613e7b57613e7a613e2d565b5b600182039050919050565b6000613e9182613002565b91507fffffffffffffffffffffffffffffffffffffffffffffffffffffffffffffffff821415613ec457613ec3613e2d565b5b600182019050919050565b7f54686520636f6d6d69746d656e7420686173206265656e207375626d6974746560008201527f6400000000000000000000000000000000000000000000000000000000000000602082015250565b6000613f2b6021836135a8565b9150613f3682613ecf565b604082019050919050565b60006020820190508181036000830152613f5a81613f1e565b9050919050565b6000604082019050613f76600083018561339f565b613f836020830184613365565b9392505050565b7f6f776e65722063616e6e6f74206265207a65726f206164647265737300000000600082015250565b6000613fc0601c836135a8565b9150613fcb82613f8a565b602082019050919050565b60006020820190508181036000830152613fef81613fb3565b9050919050565b7f496e636f727265637420726566756e6420616d6f756e7420726563656976656460008201527f2062792074686520636f6e747261637400000000000000000000000000000000602082015250565b60006140526030836135a8565b915061405d82613ff6565b604082019050919050565b6000602082019050818103600083015261408181614045565b9050919050565b60008151905061409781612eed565b92915050565b6000602082840312156140b3576140b2612e18565b5b60006140c184828501614088565b91505092915050565b60006140d582613002565b91506140e083613002565b9250817fffffffffffffffffffffffffffffffffffffffffffffffffffffffffffffffff048311821515161561411957614118613e2d565b5b828202905092915050565b7f4e487b7100000000000000000000000000000000000000000000000000000000600052601260045260246000fd5b600061415e82613002565b915061416983613002565b92508261417957614178614124565b5b828204905092915050565b6000815190506141938161300c565b92915050565b6000602082840312156141af576141ae612e18565b5b60006141bd84828501614184565b91505092915050565b60006141d182613002565b91506141dc83613002565b9250828210156141ef576141ee613e2d565b5b828203905092915050565b600060408201905061420f60008301856133c9565b61421c6020830184613365565b9392505050565b7f61546f6b656e20617070726f76616c206661696c656400000000000000000000600082015250565b60006142596016836135a8565b915061426482614223565b602082019050919050565b600060208201905081810360008301526142888161424c565b9050919050565b60006060820190506142a460008301866133c9565b6142b16020830185613365565b6142be60408301846133c9565b949350505050565b600081905092915050565b50565b60006142e16000836142c6565b91506142ec826142d1565b600082019050919050565b6000614302826142d4565b9150819050919050565b60008160011c9050919050565b6000808291508390505b60018511156143635780860481111561433f5761433e613e2d565b5b600185161561434e5780820291505b808102905061435c8561430c565b9450614323565b94509492505050565b60008261437c5760019050614438565b8161438a5760009050614438565b81600181146143a057600281146143aa576143d9565b6001915050614438565b60ff8411156143bc576143bb613e2d565b5b8360020a9150848211156143d3576143d2613e2d565b5b50614438565b5060208310610133831016604e8410600b841016171561440e5782820a90508381111561440957614408613e2d565b5b614438565b61441b8484846001614319565b9250905081840481111561443257614431613e2d565b5b81810290505b9392505050565b600061444a8261338f565b91506144558361338f565b925061446663ffffffff848461436c565b905092915050565b7f4d65726b6c6520747265652069732066756c6c2e204e6f206d6f7265206c656160008201527f66732063616e2062652061646465640000000000000000000000000000000000602082015250565b60006144ca602f836135a8565b91506144d58261446e565b604082019050919050565b600060208201905081810360008301526144f9816144bd565b9050919050565b600061450b8261338f565b91506145168361338f565b92508263ffffffff0382111561452f5761452e613e2d565b5b828201905092915050565b60006145458261338f565b91506145508361338f565b9250826145605761455f614124565b5b828206905092915050565b60006145768261338f565b91506145818361338f565b92508261459157614590614124565b5b828204905092915050565b60006145a78261338f565b915063ffffffff8214156145be576145bd613e2d565b5b600182019050919050565b60006145d48261338f565b91506145df8361338f565b9250828210156145f2576145f1613e2d565b5b828203905092915050565b7f4554482076616c756520697320737570706f73656420746f206265203020666f60008201527f7220455243323020696e7374616e636500000000000000000000000000000000602082015250565b60006146596030836135a8565b9150614664826145fd565b604082019050919050565b600060208201905081810360008301526146888161464c565b9050919050565b7f746f6b656e20617070726f76616c206661696c65640000000000000000000000600082015250565b60006146c56015836135a8565b91506146d08261468f565b602082019050919050565b600060208201905081810360008301526146f4816146b8565b9050919050565b6000819050919050565b600061ffff82169050919050565b600061472e614729614724846146fb565b613281565b614705565b9050919050565b61473e81614713565b82525050565b600060808201905061475960008301876133c9565b6147666020830186613365565b61477360408301856133c9565b6147806060830184614735565b95945050505050565b600061479482613002565b915061479f83613002565b9250827fffffffffffffffffffffffffffffffffffffffffffffffffffffffffffffffff038211156147d4576147d3613e2d565b5b828201905092915050565b600081519050919050565b60005b838110156148085780820151818401526020810190506147ed565b83811115614817576000848401525b50505050565b6000614828826147df565b61483281856135a8565b93506148428185602086016147ea565b61484b81612f4b565b840191505092915050565b60006040820190508181036000830152614870818561481d565b905061487f6020830184613365565b9392505050565b600081519050919050565b600061489c82614886565b6148a681856142c6565b93506148b68185602086016147ea565b80840191505092915050565b60006148ce8284614891565b915081905092915050565b7f6e6f7420656e6f75676820746f6b656e73000000000000000000000000000000600082015250565b600061490f6011836135a8565b915061491a826148d9565b602082019050919050565b6000602082019050818103600083015261493e81614902565b9050919050565b7f64617461206c656e6774682073686f756c64206265206569746865722030206f60008201527f7220333220627974657300000000000000000000000000000000000000000000602082015250565b60006149a1602a836135a8565b91506149ac82614945565b604082019050919050565b600060208201905081810360008301526149d081614994565b9050919050565b7f6e6f7420656e6f75676820746f6b656e732e20546f6b656e2072657475726e7360008201527f2066616c73652e00000000000000000000000000000000000000000000000000602082015250565b6000614a336027836135a8565b9150614a3e826149d7565b604082019050919050565b60006020820190508181036000830152614a6281614a26565b9050919050565b6000606082019050614a7e60008301866133c9565b614a8b60208301856133c9565b614a986040830184613365565b949350505050565b7f6e6f7420656e6f75676820616c6c6f77656420746f6b656e7300000000000000600082015250565b6000614ad66019836135a8565b9150614ae182614aa0565b602082019050919050565b60006020820190508181036000830152614b0581614ac9565b9050919050565b7f6e6f7420656e6f75676820616c6c6f77656420746f6b656e732e20546f6b656e60008201527f2072657475726e732066616c73652e0000000000000000000000000000000000602082015250565b6000614b68602f836135a8565b9150614b7382614b0c565b604082019050919050565b60006020820190508181036000830152614b9781614b5b565b9050919050565b60006040820190508181036000830152614bb8818561481d565b9050614bc760208301846133c9565b9392505050565b60006020820190508181036000830152614be8818461481d565b90509291505056fea2646970667358221220c3355bd842d2385681f524bb63db1c99d4b350335178f20b767cb83ad82f26ce64736f6c63430008090033",
  "linkReferences": {
    "contracts/MerkleTreeWithHistory.sol": {
      "Hasher": [
        {
          "length": 20,
          "start": 1306
        },
        {
          "length": 20,
          "start": 6390
        }
      ]
    }
  },
  "deployedLinkReferences": {
    "contracts/MerkleTreeWithHistory.sol": {
      "Hasher": [
        {
          "length": 20,
          "start": 3193
        }
      ]
    }
  }
}