{
  "_format": "hh-sol-artifact-1",
  "contractName": "ERC20Sacred",
  "sourceName": "contracts/ERC20Sacred.sol",
  "abi": [
    {
      "inputs": [
        {
          "internalType": "contract IVerifier",
          "name": "_verifier",
          "type": "address"
        },
        {
          "internalType": "uint256",
          "name": "_denomination",
          "type": "uint256"
        },
        {
          "internalType": "uint32",
          "name": "_merkleTreeHeight",
          "type": "uint32"
        },
        {
          "internalType": "address",
          "name": "_owner",
          "type": "address"
        },
        {
          "internalType": "address",
          "name": "_token",
          "type": "address"
        },
        {
          "internalType": "uint256",
          "name": "_fee",
          "type": "uint256"
        }
      ],
      "stateMutability": "nonpayable",
      "type": "constructor"
    },
    {
      "anonymous": false,
      "inputs": [
        {
          "indexed": true,
          "internalType": "bytes32",
          "name": "commitment",
          "type": "bytes32"
        },
        {
          "indexed": false,
          "internalType": "uint32",
          "name": "leafIndex",
          "type": "uint32"
        },
        {
          "indexed": false,
          "internalType": "uint256",
          "name": "timestamp",
          "type": "uint256"
        }
      ],
      "name": "Deposit",
      "type": "event"
    },
    {
      "anonymous": false,
      "inputs": [
        {
          "indexed": true,
          "internalType": "address",
          "name": "previousOwner",
          "type": "address"
        },
        {
          "indexed": true,
          "internalType": "address",
          "name": "newOwner",
          "type": "address"
        }
      ],
      "name": "OwnershipTransferred",
      "type": "event"
    },
    {
      "anonymous": false,
      "inputs": [
        {
          "indexed": false,
          "internalType": "address",
          "name": "to",
          "type": "address"
        },
        {
          "indexed": false,
          "internalType": "bytes32",
          "name": "nullifierHash",
          "type": "bytes32"
        },
        {
          "indexed": true,
          "internalType": "address",
          "name": "relayer",
          "type": "address"
        },
        {
          "indexed": false,
          "internalType": "uint256",
          "name": "fee",
          "type": "uint256"
        }
      ],
      "name": "Withdrawal",
      "type": "event"
    },
    {
      "inputs": [],
      "name": "FIELD_SIZE",
      "outputs": [
        {
          "internalType": "uint256",
          "name": "",
          "type": "uint256"
        }
      ],
      "stateMutability": "view",
      "type": "function"
    },
    {
      "inputs": [],
      "name": "ROOT_HISTORY_SIZE",
      "outputs": [
        {
          "internalType": "uint32",
          "name": "",
          "type": "uint32"
        }
      ],
      "stateMutability": "view",
      "type": "function"
    },
    {
      "inputs": [],
      "name": "ZERO_VALUE",
      "outputs": [
        {
          "internalType": "uint256",
          "name": "",
          "type": "uint256"
        }
      ],
      "stateMutability": "view",
      "type": "function"
    },
    {
      "inputs": [
        {
          "internalType": "bytes32",
          "name": "",
          "type": "bytes32"
        }
      ],
      "name": "commitments",
      "outputs": [
        {
          "internalType": "bool",
          "name": "",
          "type": "bool"
        }
      ],
      "stateMutability": "view",
      "type": "function"
    },
    {
      "inputs": [],
      "name": "currentRootIndex",
      "outputs": [
        {
          "internalType": "uint32",
          "name": "",
          "type": "uint32"
        }
      ],
      "stateMutability": "view",
      "type": "function"
    },
    {
      "inputs": [],
      "name": "denomination",
      "outputs": [
        {
          "internalType": "uint256",
          "name": "",
          "type": "uint256"
        }
      ],
      "stateMutability": "view",
      "type": "function"
    },
    {
      "inputs": [
        {
          "internalType": "bytes32",
          "name": "_commitment",
          "type": "bytes32"
        }
      ],
      "name": "deposit",
      "outputs": [],
      "stateMutability": "payable",
      "type": "function"
    },
    {
      "inputs": [],
      "name": "fee",
      "outputs": [
        {
          "internalType": "uint256",
          "name": "",
          "type": "uint256"
        }
      ],
      "stateMutability": "view",
      "type": "function"
    },
    {
      "inputs": [
        {
          "internalType": "uint256",
          "name": "",
          "type": "uint256"
        }
      ],
      "name": "filledSubtrees",
      "outputs": [
        {
          "internalType": "bytes32",
          "name": "",
          "type": "bytes32"
        }
      ],
      "stateMutability": "view",
      "type": "function"
    },
    {
      "inputs": [],
      "name": "getLastRoot",
      "outputs": [
        {
          "internalType": "bytes32",
          "name": "",
          "type": "bytes32"
        }
      ],
      "stateMutability": "view",
      "type": "function"
    },
    {
      "inputs": [
        {
          "internalType": "bytes32",
          "name": "_left",
          "type": "bytes32"
        },
        {
          "internalType": "bytes32",
          "name": "_right",
          "type": "bytes32"
        }
      ],
      "name": "hashLeftRight",
      "outputs": [
        {
          "internalType": "bytes32",
          "name": "",
          "type": "bytes32"
        }
      ],
      "stateMutability": "pure",
      "type": "function"
    },
    {
      "inputs": [
        {
          "internalType": "bytes32",
          "name": "_root",
          "type": "bytes32"
        }
      ],
      "name": "isKnownRoot",
      "outputs": [
        {
          "internalType": "bool",
          "name": "",
          "type": "bool"
        }
      ],
      "stateMutability": "view",
      "type": "function"
    },
    {
      "inputs": [
        {
          "internalType": "bytes32",
          "name": "_nullifierHash",
          "type": "bytes32"
        }
      ],
      "name": "isSpent",
      "outputs": [
        {
          "internalType": "bool",
          "name": "",
          "type": "bool"
        }
      ],
      "stateMutability": "view",
      "type": "function"
    },
    {
      "inputs": [
        {
          "internalType": "bytes32[]",
          "name": "_nullifierHashes",
          "type": "bytes32[]"
        }
      ],
      "name": "isSpentArray",
      "outputs": [
        {
          "internalType": "bool[]",
          "name": "spent",
          "type": "bool[]"
        }
      ],
      "stateMutability": "view",
      "type": "function"
    },
    {
      "inputs": [],
      "name": "levels",
      "outputs": [
        {
          "internalType": "uint32",
          "name": "",
          "type": "uint32"
        }
      ],
      "stateMutability": "view",
      "type": "function"
    },
    {
      "inputs": [],
      "name": "nextIndex",
      "outputs": [
        {
          "internalType": "uint32",
          "name": "",
          "type": "uint32"
        }
      ],
      "stateMutability": "view",
      "type": "function"
    },
    {
      "inputs": [
        {
          "internalType": "bytes32",
          "name": "",
          "type": "bytes32"
        }
      ],
      "name": "nullifierHashes",
      "outputs": [
        {
          "internalType": "bool",
          "name": "",
          "type": "bool"
        }
      ],
      "stateMutability": "view",
      "type": "function"
    },
    {
      "inputs": [],
      "name": "ownershipAccepted",
      "outputs": [],
      "stateMutability": "nonpayable",
      "type": "function"
    },
    {
      "inputs": [],
      "name": "renounceOwnership",
      "outputs": [],
      "stateMutability": "nonpayable",
      "type": "function"
    },
    {
      "inputs": [
        {
          "internalType": "uint256",
          "name": "",
          "type": "uint256"
        }
      ],
      "name": "roots",
      "outputs": [
        {
          "internalType": "bytes32",
          "name": "",
          "type": "bytes32"
        }
      ],
      "stateMutability": "view",
      "type": "function"
    },
    {
      "inputs": [
        {
          "internalType": "uint256",
          "name": "_fee",
          "type": "uint256"
        }
      ],
      "name": "setFee",
      "outputs": [],
      "stateMutability": "nonpayable",
      "type": "function"
    },
    {
      "inputs": [],
      "name": "token",
      "outputs": [
        {
          "internalType": "address",
          "name": "",
          "type": "address"
        }
      ],
      "stateMutability": "view",
      "type": "function"
    },
    {
      "inputs": [
        {
          "internalType": "address",
          "name": "newOwner",
          "type": "address"
        }
      ],
      "name": "transferOwnership",
      "outputs": [],
      "stateMutability": "nonpayable",
      "type": "function"
    },
    {
      "inputs": [],
      "name": "verifier",
      "outputs": [
        {
          "internalType": "contract IVerifier",
          "name": "",
          "type": "address"
        }
      ],
      "stateMutability": "view",
      "type": "function"
    },
    {
      "inputs": [
        {
          "internalType": "bytes",
          "name": "_proof",
          "type": "bytes"
        },
        {
          "internalType": "bytes32",
          "name": "_root",
          "type": "bytes32"
        },
        {
          "internalType": "bytes32",
          "name": "_nullifierHash",
          "type": "bytes32"
        },
        {
          "internalType": "address payable",
          "name": "_recipient",
          "type": "address"
        },
        {
          "internalType": "address payable",
          "name": "_relayer",
          "type": "address"
        },
        {
          "internalType": "uint256",
          "name": "_fee",
          "type": "uint256"
        },
        {
          "internalType": "uint256",
          "name": "_refund",
          "type": "uint256"
        }
      ],
      "name": "withdraw",
      "outputs": [],
      "stateMutability": "payable",
      "type": "function"
    },
    {
      "inputs": [
        {
          "internalType": "uint256",
          "name": "",
          "type": "uint256"
        }
      ],
      "name": "zeros",
      "outputs": [
        {
          "internalType": "bytes32",
          "name": "",
          "type": "bytes32"
        }
      ],
      "stateMutability": "view",
      "type": "function"
    }
  ],
  "bytecode": "0x60806040526000600360006101000a81548163ffffffff021916908363ffffffff1602179055506000600360046101000a81548163ffffffff021916908363ffffffff1602179055506032606f553480156200005a57600080fd5b5060405162003fcd38038062003fcd833981810160405281019062000080919062000668565b8585858584818360008163ffffffff1611620000d3576040517f08c379a0000000000000000000000000000000000000000000000000000000008152600401620000ca906200078b565b60405180910390fd5b60208163ffffffff16106200011f576040517f08c379a0000000000000000000000000000000000000000000000000000000008152600401620001169062000823565b60405180910390fd5b806000806101000a81548163ffffffff021916908363ffffffff16021790555060007f2fe54c60d3acabf3343a35b6eba15db4821b340f76e741e2249685ed4899af6c60001b9050600281908060018154018082558091505060019003906000526020600020016000909190919091505560018190806001815401808255809150506001900390600052602060002001600090919091909150556000600190505b60008054906101000a900463ffffffff1663ffffffff168163ffffffff1610156200025f57620001f78283620003c260201b60201c565b91506002829080600181540180825580915050600190039060005260206000200160009091909190915055600182908060018154018082558091505060019003906000526020600020016000909190919091505580620002579062000874565b9050620001c0565b50620002728182620003c260201b60201c565b60046000606481106200028a5762000289620008a6565b5b01819055505050600160688190555080606960006101000a81548173ffffffffffffffffffffffffffffffffffffffff021916908373ffffffffffffffffffffffffffffffffffffffff160217905550506000841162000321576040517f08c379a000000000000000000000000000000000000000000000000000000000815260040162000318906200094b565b60405180910390fd5b84606e60006101000a81548173ffffffffffffffffffffffffffffffffffffffff021916908373ffffffffffffffffffffffffffffffffffffffff16021790555083606b8190555080606f81905550505050505081607060006101000a81548173ffffffffffffffffffffffffffffffffffffffff021916908373ffffffffffffffffffffffffffffffffffffffff16021790555050505050505062000bbc565b60007f30644e72e131a029b85045b68181585d2833e84879b9709143e1f593f00000018360001c106200042c576040517f08c379a00000000000000000000000000000000000000000000000000000000081526004016200042390620009bd565b60405180910390fd5b7f30644e72e131a029b85045b68181585d2833e84879b9709143e1f593f00000018260001c1062000494576040517f08c379a00000000000000000000000000000000000000000000000000000000081526004016200048b9062000a55565b60405180910390fd5b73__$9780738a116369df5fe6eb1df74865bc0a$__63299e56606040518060400160405280868152602001858152506040518263ffffffff1660e01b8152600401620004e1919062000b3c565b60206040518083038186803b158015620004fa57600080fd5b505af41580156200050f573d6000803e3d6000fd5b505050506040513d601f19601f8201168201806040525081019062000535919062000b8a565b905092915050565b600080fd5b600073ffffffffffffffffffffffffffffffffffffffff82169050919050565b60006200056f8262000542565b9050919050565b6000620005838262000562565b9050919050565b620005958162000576565b8114620005a157600080fd5b50565b600081519050620005b5816200058a565b92915050565b6000819050919050565b620005d081620005bb565b8114620005dc57600080fd5b50565b600081519050620005f081620005c5565b92915050565b600063ffffffff82169050919050565b6200061181620005f6565b81146200061d57600080fd5b50565b600081519050620006318162000606565b92915050565b620006428162000562565b81146200064e57600080fd5b50565b600081519050620006628162000637565b92915050565b60008060008060008060c087890312156200068857620006876200053d565b5b60006200069889828a01620005a4565b9650506020620006ab89828a01620005df565b9550506040620006be89828a0162000620565b9450506060620006d189828a0162000651565b9350506080620006e489828a0162000651565b92505060a0620006f789828a01620005df565b9150509295509295509295565b600082825260208201905092915050565b7f5f747265654c6576656c732073686f756c64206265206772656174657220746860008201527f616e207a65726f00000000000000000000000000000000000000000000000000602082015250565b60006200077360278362000704565b9150620007808262000715565b604082019050919050565b60006020820190508181036000830152620007a68162000764565b9050919050565b7f5f747265654c6576656c732073686f756c64206265206c657373207468616e2060008201527f3332000000000000000000000000000000000000000000000000000000000000602082015250565b60006200080b60228362000704565b91506200081882620007ad565b604082019050919050565b600060208201905081810360008301526200083e81620007fc565b9050919050565b7f4e487b7100000000000000000000000000000000000000000000000000000000600052601160045260246000fd5b60006200088182620005f6565b915063ffffffff8214156200089b576200089a62000845565b5b600182019050919050565b7f4e487b7100000000000000000000000000000000000000000000000000000000600052603260045260246000fd5b7f64656e6f6d696e6174696f6e2073686f756c642062652067726561746572207460008201527f68616e2030000000000000000000000000000000000000000000000000000000602082015250565b60006200093360258362000704565b91506200094082620008d5565b604082019050919050565b60006020820190508181036000830152620009668162000924565b9050919050565b7f5f6c6566742073686f756c6420626520696e7369646520746865206669656c64600082015250565b6000620009a560208362000704565b9150620009b2826200096d565b602082019050919050565b60006020820190508181036000830152620009d88162000996565b9050919050565b7f5f72696768742073686f756c6420626520696e7369646520746865206669656c60008201527f6400000000000000000000000000000000000000000000000000000000000000602082015250565b600062000a3d60218362000704565b915062000a4a82620009df565b604082019050919050565b6000602082019050818103600083015262000a708162000a2e565b9050919050565b600060029050919050565b600081905092915050565b6000819050919050565b6000819050919050565b62000aac8162000a97565b82525050565b600062000ac0838362000aa1565b60208301905092915050565b6000602082019050919050565b62000ae48162000a77565b62000af0818462000a82565b925062000afd8262000a8d565b8060005b8381101562000b3457815162000b18878262000ab2565b965062000b258362000acc565b92505060018101905062000b01565b505050505050565b600060408201905062000b53600083018462000ad9565b92915050565b62000b648162000a97565b811462000b7057600080fd5b50565b60008151905062000b848162000b59565b92915050565b60006020828403121562000ba35762000ba26200053d565b5b600062000bb38482850162000b73565b91505092915050565b6134018062000bcc6000396000f3fe6080604052600436106101815760003560e01c8063b214faa5116100d1578063e82955881161008a578063f178e47c11610064578063f178e47c14610580578063f2fde38b146105bd578063fc0c546a146105e6578063fc7e9c6f1461061157610181565b8063e829558814610501578063eb1dbc1b1461053e578063ec7329591461055557610181565b8063b214faa5146103ea578063ba70f75714610406578063c2b40ae414610431578063cd87a3b41461046e578063ddca3f4314610499578063e5285dcc146104c457610181565b806369fe0e2d1161013e578063839df94511610118578063839df9451461031a5780638bca6d161461035757806390eeb02b146103825780639fa12d0b146103ad57610181565b806369fe0e2d1461029d5780636d9833e3146102c6578063715018a61461030357610181565b806317cc915c1461018657806321a0adb6146101c35780632b7ac3f3146101df57806338bf282e1461020a578063414a37ba146102475780634ecf518b14610272575b600080fd5b34801561019257600080fd5b506101ad60048036038101906101a89190611c1f565b61063c565b6040516101ba9190611c67565b60405180910390f35b6101dd60048036038101906101d89190611d7b565b61065c565b005b3480156101eb57600080fd5b506101f4610982565b6040516102019190611e9c565b60405180910390f35b34801561021657600080fd5b50610231600480360381019061022c9190611eb7565b6109a8565b60405161023e9190611f06565b60405180910390f35b34801561025357600080fd5b5061025c610b17565b6040516102699190611f30565b60405180910390f35b34801561027e57600080fd5b50610287610b3b565b6040516102949190611f6a565b60405180910390f35b3480156102a957600080fd5b506102c460048036038101906102bf9190611f85565b610b4f565b005b3480156102d257600080fd5b506102ed60048036038101906102e89190611c1f565b610c2e565b6040516102fa9190611c67565b60405180910390f35b34801561030f57600080fd5b50610318610cdc565b005b34801561032657600080fd5b50610341600480360381019061033c9190611c1f565b610d78565b60405161034e9190611c67565b60405180910390f35b34801561036357600080fd5b5061036c610d98565b6040516103799190611f30565b60405180910390f35b34801561038e57600080fd5b50610397610d9e565b6040516103a49190611f6a565b60405180910390f35b3480156103b957600080fd5b506103d460048036038101906103cf9190612008565b610db4565b6040516103e19190612113565b60405180910390f35b61040460048036038101906103ff9190611c1f565b610e79565b005b34801561041257600080fd5b5061041b610faf565b6040516104289190611f06565b60405180910390f35b34801561043d57600080fd5b5061045860048036038101906104539190611f85565b610fe4565b6040516104659190611f06565b60405180910390f35b34801561047a57600080fd5b50610483610fff565b6040516104909190611f6a565b60405180910390f35b3480156104a557600080fd5b506104ae611004565b6040516104bb9190611f30565b60405180910390f35b3480156104d057600080fd5b506104eb60048036038101906104e69190611c1f565b61100a565b6040516104f89190611c67565b60405180910390f35b34801561050d57600080fd5b5061052860048036038101906105239190611f85565b611034565b6040516105359190611f06565b60405180910390f35b34801561054a57600080fd5b50610553611058565b005b34801561056157600080fd5b5061056a611145565b6040516105779190611f30565b60405180910390f35b34801561058c57600080fd5b506105a760048036038101906105a29190611f85565b611169565b6040516105b49190611f06565b60405180910390f35b3480156105c957600080fd5b506105e460048036038101906105df9190612173565b61118d565b005b3480156105f257600080fd5b506105fb6112e8565b60405161060891906121af565b60405180910390f35b34801561061d57600080fd5b5061062661130e565b6040516106339190611f6a565b60405180910390f35b606c6020528060005260406000206000915054906101000a900460ff1681565b600260685414156106a2576040517f08c379a000000000000000000000000000000000000000000000000000000000815260040161069990612227565b60405180910390fd5b6002606881905550606b548211156106ef576040517f08c379a00000000000000000000000000000000000000000000000000000000081526004016106e690612293565b60405180910390fd5b606c600086815260200190815260200160002060009054906101000a900460ff1615610750576040517f08c379a0000000000000000000000000000000000000000000000000000000008152600401610747906122ff565b60405180910390fd5b61075986610c2e565b610798576040517f08c379a000000000000000000000000000000000000000000000000000000000815260040161078f9061236b565b60405180910390fd5b606e60009054906101000a900473ffffffffffffffffffffffffffffffffffffffff1673ffffffffffffffffffffffffffffffffffffffff1663695ef6f989896040518060c001604052808b60001c81526020018a60001c81526020018973ffffffffffffffffffffffffffffffffffffffff1681526020018873ffffffffffffffffffffffffffffffffffffffff168152602001878152602001868152506040518463ffffffff1660e01b815260040161085593929190612494565b602060405180830381600087803b15801561086f57600080fd5b505af1158015610883573d6000803e3d6000fd5b505050506040513d601f19601f820116820180604052508101906108a791906124f2565b6108e6576040517f08c379a00000000000000000000000000000000000000000000000000000000081526004016108dd9061256b565b60405180910390fd5b6001606c600087815260200190815260200160002060006101000a81548160ff02191690831515021790555061091e84848484611324565b8273ffffffffffffffffffffffffffffffffffffffff167fe9e508bad6d4c3227e881ca19068f099da81b5164dd6d62b2eaf1e8bc6c34931858785604051610968939291906125ac565b60405180910390a260016068819055505050505050505050565b606e60009054906101000a900473ffffffffffffffffffffffffffffffffffffffff1681565b60007f30644e72e131a029b85045b68181585d2833e84879b9709143e1f593f00000018360001c10610a0f576040517f08c379a0000000000000000000000000000000000000000000000000000000008152600401610a069061262f565b60405180910390fd5b7f30644e72e131a029b85045b68181585d2833e84879b9709143e1f593f00000018260001c10610a74576040517f08c379a0000000000000000000000000000000000000000000000000000000008152600401610a6b906126c1565b60405180910390fd5b73__$9780738a116369df5fe6eb1df74865bc0a$__63299e56606040518060400160405280868152602001858152506040518263ffffffff1660e01b8152600401610abf919061278c565b60206040518083038186803b158015610ad757600080fd5b505af4158015610aeb573d6000803e3d6000fd5b505050506040513d601f19601f82011682018060405250810190610b0f91906127bc565b905092915050565b7f30644e72e131a029b85045b68181585d2833e84879b9709143e1f593f000000181565b60008054906101000a900463ffffffff1681565b606960009054906101000a900473ffffffffffffffffffffffffffffffffffffffff1673ffffffffffffffffffffffffffffffffffffffff163373ffffffffffffffffffffffffffffffffffffffff1614610bdf576040517f08c379a0000000000000000000000000000000000000000000000000000000008152600401610bd690612835565b60405180910390fd5b6103e8811115610c24576040517f08c379a0000000000000000000000000000000000000000000000000000000008152600401610c1b906128c7565b60405180910390fd5b80606f8190555050565b60008060001b821415610c445760009050610cd7565b6000600360009054906101000a900463ffffffff1690505b60048163ffffffff1660648110610c7657610c756128e7565b5b0154831415610c89576001915050610cd7565b60008163ffffffff161415610c9d57606490505b8080610ca890612945565b915050600360009054906101000a900463ffffffff1663ffffffff168163ffffffff161415610c5c5760009150505b919050565b606960009054906101000a900473ffffffffffffffffffffffffffffffffffffffff1673ffffffffffffffffffffffffffffffffffffffff163373ffffffffffffffffffffffffffffffffffffffff1614610d6c576040517f08c379a0000000000000000000000000000000000000000000000000000000008152600401610d6390612835565b60405180910390fd5b610d7660006114be565b565b606d6020528060005260406000206000915054906101000a900460ff1681565b606b5481565b600360009054906101000a900463ffffffff1681565b60608282905067ffffffffffffffff811115610dd357610dd261296f565b5b604051908082528060200260200182016040528015610e015781602001602082028036833780820191505090505b50905060005b83839050811015610e7257610e34848483818110610e2857610e276128e7565b5b9050602002013561100a565b15610e61576001828281518110610e4e57610e4d6128e7565b5b6020026020010190151590811515815250505b80610e6b9061299e565b9050610e07565b5092915050565b60026068541415610ebf576040517f08c379a0000000000000000000000000000000000000000000000000000000008152600401610eb690612227565b60405180910390fd5b6002606881905550606d600082815260200190815260200160002060009054906101000a900460ff1615610f28576040517f08c379a0000000000000000000000000000000000000000000000000000000008152600401610f1f90612a59565b60405180910390fd5b6000610f338261157e565b90506001606d600084815260200190815260200160002060006101000a81548160ff021916908315150217905550610f696117e2565b817fa945e51eec50ab98c161376f0db4cf2aeba3ec92755fe2fcd388bdbbb80ff1968242604051610f9b929190612a79565b60405180910390a250600160688190555050565b60006004600360009054906101000a900463ffffffff1663ffffffff1660648110610fdd57610fdc6128e7565b5b0154905090565b60048160648110610ff457600080fd5b016000915090505481565b606481565b606f5481565b6000606c600083815260200190815260200160002060009054906101000a900460ff169050919050565b6002818154811061104457600080fd5b906000526020600020016000915090505481565b60011515606a60003373ffffffffffffffffffffffffffffffffffffffff1673ffffffffffffffffffffffffffffffffffffffff16815260200190815260200160002060009054906101000a900460ff161515146110eb576040517f08c379a00000000000000000000000000000000000000000000000000000000081526004016110e290612835565b60405180910390fd5b6110f4336114be565b606a60003373ffffffffffffffffffffffffffffffffffffffff1673ffffffffffffffffffffffffffffffffffffffff16815260200190815260200160002060006101000a81549060ff0219169055565b7f2fe54c60d3acabf3343a35b6eba15db4821b340f76e741e2249685ed4899af6c81565b6001818154811061117957600080fd5b906000526020600020016000915090505481565b606960009054906101000a900473ffffffffffffffffffffffffffffffffffffffff1673ffffffffffffffffffffffffffffffffffffffff163373ffffffffffffffffffffffffffffffffffffffff161461121d576040517f08c379a000000000000000000000000000000000000000000000000000000000815260040161121490612835565b60405180910390fd5b600073ffffffffffffffffffffffffffffffffffffffff168173ffffffffffffffffffffffffffffffffffffffff16141561128d576040517f08c379a000000000000000000000000000000000000000000000000000000000815260040161128490612aee565b60405180910390fd5b6001606a60008373ffffffffffffffffffffffffffffffffffffffff1673ffffffffffffffffffffffffffffffffffffffff16815260200190815260200160002060006101000a81548160ff02191690831515021790555050565b607060009054906101000a900473ffffffffffffffffffffffffffffffffffffffff1681565b600360049054906101000a900463ffffffff1681565b803414611366576040517f08c379a000000000000000000000000000000000000000000000000000000000815260040161135d90612b80565b60405180910390fd5b6000612710606f54606b5461137b9190612ba0565b6113859190612c29565b90506113a9858483606b5461139a9190612c5a565b6113a49190612c5a565b611834565b60008111156113df576113de606960009054906101000a900473ffffffffffffffffffffffffffffffffffffffff1682611834565b5b60008311156113f3576113f28484611834565b5b60008211156114b75760008573ffffffffffffffffffffffffffffffffffffffff168360405161142290612cbf565b60006040518083038185875af1925050503d806000811461145f576040519150601f19603f3d011682016040523d82523d6000602084013e611464565b606091505b50509050806114b5578473ffffffffffffffffffffffffffffffffffffffff166108fc849081150290604051600060405180830381858888f193505050501580156114b3573d6000803e3d6000fd5b505b505b5050505050565b8073ffffffffffffffffffffffffffffffffffffffff16606960009054906101000a900473ffffffffffffffffffffffffffffffffffffffff1673ffffffffffffffffffffffffffffffffffffffff167f8be0079c531659141344cd1fd0a4f28419497f9722a3daafe3b4186f6b6457e060405160405180910390a380606960006101000a81548173ffffffffffffffffffffffffffffffffffffffff021916908373ffffffffffffffffffffffffffffffffffffffff16021790555050565b600080600360049054906101000a900463ffffffff16905060008054906101000a900463ffffffff1660026115b39190612e07565b63ffffffff168163ffffffff161415611601576040517f08c379a00000000000000000000000000000000000000000000000000000000081526004016115f890612ea8565b60405180910390fd5b6001600360048282829054906101000a900463ffffffff166116239190612ec8565b92506101000a81548163ffffffff021916908363ffffffff160217905550600083905060008060005b60008054906101000a900463ffffffff1663ffffffff168163ffffffff16101561173a57600060028661167f9190612f02565b63ffffffff1614156116e35783925060028163ffffffff16815481106116a8576116a76128e7565b5b906000526020600020015491508360018263ffffffff16815481106116d0576116cf6128e7565b5b906000526020600020018190555061170e565b60018163ffffffff16815481106116fd576116fc6128e7565b5b906000526020600020015492508391505b61171883836109a8565b93506002856117279190612f33565b94508061173390612f64565b905061164c565b5060646001600360009054906101000a900463ffffffff1661175c9190612ec8565b6117669190612f02565b600360006101000a81548163ffffffff021916908363ffffffff160217905550826004600360009054906101000a900463ffffffff1663ffffffff16606481106117b3576117b26128e7565b5b01819055506001600360049054906101000a900463ffffffff166117d79190612f91565b945050505050919050565b60003414611825576040517f08c379a000000000000000000000000000000000000000000000000000000000815260040161181c90613037565b60405180910390fd5b6118323330606b54611a08565b565b600080607060009054906101000a900473ffffffffffffffffffffffffffffffffffffffff1673ffffffffffffffffffffffffffffffffffffffff1663a9059cbb8585604051602401611888929190613057565b6040516020818303038152906040529060e01b6020820180517bffffffffffffffffffffffffffffffffffffffffffffffffffffffff83818316178352505050506040516118d691906130ef565b6000604051808303816000865af19150503d8060008114611913576040519150601f19603f3d011682016040523d82523d6000602084013e611918565b606091505b50915091508161195d576040517f08c379a000000000000000000000000000000000000000000000000000000000815260040161195490613152565b60405180910390fd5b600081511115611a025760208151146119ab576040517f08c379a00000000000000000000000000000000000000000000000000000000081526004016119a2906131e4565b60405180910390fd5b808060200190518101906119bf91906124f2565b915081611a01576040517f08c379a00000000000000000000000000000000000000000000000000000000081526004016119f890613276565b60405180910390fd5b5b50505050565b600080607060009054906101000a900473ffffffffffffffffffffffffffffffffffffffff1673ffffffffffffffffffffffffffffffffffffffff166323b872dd868686604051602401611a5e93929190613296565b6040516020818303038152906040529060e01b6020820180517bffffffffffffffffffffffffffffffffffffffffffffffffffffffff8381831617835250505050604051611aac91906130ef565b6000604051808303816000865af19150503d8060008114611ae9576040519150601f19603f3d011682016040523d82523d6000602084013e611aee565b606091505b509150915081611b33576040517f08c379a0000000000000000000000000000000000000000000000000000000008152600401611b2a90613319565b60405180910390fd5b600081511115611bd8576020815114611b81576040517f08c379a0000000000000000000000000000000000000000000000000000000008152600401611b78906131e4565b60405180910390fd5b80806020019051810190611b9591906124f2565b915081611bd7576040517f08c379a0000000000000000000000000000000000000000000000000000000008152600401611bce906133ab565b60405180910390fd5b5b5050505050565b600080fd5b600080fd5b6000819050919050565b611bfc81611be9565b8114611c0757600080fd5b50565b600081359050611c1981611bf3565b92915050565b600060208284031215611c3557611c34611bdf565b5b6000611c4384828501611c0a565b91505092915050565b60008115159050919050565b611c6181611c4c565b82525050565b6000602082019050611c7c6000830184611c58565b92915050565b600080fd5b600080fd5b600080fd5b60008083601f840112611ca757611ca6611c82565b5b8235905067ffffffffffffffff811115611cc457611cc3611c87565b5b602083019150836001820283011115611ce057611cdf611c8c565b5b9250929050565b600073ffffffffffffffffffffffffffffffffffffffff82169050919050565b6000611d1282611ce7565b9050919050565b611d2281611d07565b8114611d2d57600080fd5b50565b600081359050611d3f81611d19565b92915050565b6000819050919050565b611d5881611d45565b8114611d6357600080fd5b50565b600081359050611d7581611d4f565b92915050565b60008060008060008060008060e0898b031215611d9b57611d9a611bdf565b5b600089013567ffffffffffffffff811115611db957611db8611be4565b5b611dc58b828c01611c91565b98509850506020611dd88b828c01611c0a565b9650506040611de98b828c01611c0a565b9550506060611dfa8b828c01611d30565b9450506080611e0b8b828c01611d30565b93505060a0611e1c8b828c01611d66565b92505060c0611e2d8b828c01611d66565b9150509295985092959890939650565b6000819050919050565b6000611e62611e5d611e5884611ce7565b611e3d565b611ce7565b9050919050565b6000611e7482611e47565b9050919050565b6000611e8682611e69565b9050919050565b611e9681611e7b565b82525050565b6000602082019050611eb16000830184611e8d565b92915050565b60008060408385031215611ece57611ecd611bdf565b5b6000611edc85828601611c0a565b9250506020611eed85828601611c0a565b9150509250929050565b611f0081611be9565b82525050565b6000602082019050611f1b6000830184611ef7565b92915050565b611f2a81611d45565b82525050565b6000602082019050611f456000830184611f21565b92915050565b600063ffffffff82169050919050565b611f6481611f4b565b82525050565b6000602082019050611f7f6000830184611f5b565b92915050565b600060208284031215611f9b57611f9a611bdf565b5b6000611fa984828501611d66565b91505092915050565b60008083601f840112611fc857611fc7611c82565b5b8235905067ffffffffffffffff811115611fe557611fe4611c87565b5b60208301915083602082028301111561200157612000611c8c565b5b9250929050565b6000806020838503121561201f5761201e611bdf565b5b600083013567ffffffffffffffff81111561203d5761203c611be4565b5b61204985828601611fb2565b92509250509250929050565b600081519050919050565b600082825260208201905092915050565b6000819050602082019050919050565b61208a81611c4c565b82525050565b600061209c8383612081565b60208301905092915050565b6000602082019050919050565b60006120c082612055565b6120ca8185612060565b93506120d583612071565b8060005b838110156121065781516120ed8882612090565b97506120f8836120a8565b9250506001810190506120d9565b5085935050505092915050565b6000602082019050818103600083015261212d81846120b5565b905092915050565b600061214082611ce7565b9050919050565b61215081612135565b811461215b57600080fd5b50565b60008135905061216d81612147565b92915050565b60006020828403121561218957612188611bdf565b5b60006121978482850161215e565b91505092915050565b6121a981612135565b82525050565b60006020820190506121c460008301846121a0565b92915050565b600082825260208201905092915050565b7f5265656e7472616e637947756172643a207265656e7472616e742063616c6c00600082015250565b6000612211601f836121ca565b915061221c826121db565b602082019050919050565b6000602082019050818103600083015261224081612204565b9050919050565b7f4665652065786365656473207472616e736665722076616c7565000000000000600082015250565b600061227d601a836121ca565b915061228882612247565b602082019050919050565b600060208201905081810360008301526122ac81612270565b9050919050565b7f546865206e6f746520686173206265656e20616c7265616479207370656e7400600082015250565b60006122e9601f836121ca565b91506122f4826122b3565b602082019050919050565b60006020820190508181036000830152612318816122dc565b9050919050565b7f43616e6e6f742066696e6420796f7572206d65726b6c6520726f6f7400000000600082015250565b6000612355601c836121ca565b91506123608261231f565b602082019050919050565b6000602082019050818103600083015261238481612348565b9050919050565b600082825260208201905092915050565b82818337600083830152505050565b6000601f19601f8301169050919050565b60006123c8838561238b565b93506123d583858461239c565b6123de836123ab565b840190509392505050565b600060069050919050565b600081905092915050565b6000819050919050565b61241281611d45565b82525050565b60006124248383612409565b60208301905092915050565b6000602082019050919050565b612446816123e9565b61245081846123f4565b925061245b826123ff565b8060005b8381101561248c5781516124738782612418565b965061247e83612430565b92505060018101905061245f565b505050505050565b600060e08201905081810360008301526124af8185876123bc565b90506124be602083018461243d565b949350505050565b6124cf81611c4c565b81146124da57600080fd5b50565b6000815190506124ec816124c6565b92915050565b60006020828403121561250857612507611bdf565b5b6000612516848285016124dd565b91505092915050565b7f496e76616c69642077697468647261772070726f6f6600000000000000000000600082015250565b60006125556016836121ca565b91506125608261251f565b602082019050919050565b6000602082019050818103600083015261258481612548565b9050919050565b600061259682611e69565b9050919050565b6125a68161258b565b82525050565b60006060820190506125c1600083018661259d565b6125ce6020830185611ef7565b6125db6040830184611f21565b949350505050565b7f5f6c6566742073686f756c6420626520696e7369646520746865206669656c64600082015250565b60006126196020836121ca565b9150612624826125e3565b602082019050919050565b600060208201905081810360008301526126488161260c565b9050919050565b7f5f72696768742073686f756c6420626520696e7369646520746865206669656c60008201527f6400000000000000000000000000000000000000000000000000000000000000602082015250565b60006126ab6021836121ca565b91506126b68261264f565b604082019050919050565b600060208201905081810360008301526126da8161269e565b9050919050565b600060029050919050565b600081905092915050565b6000819050919050565b61270a81611be9565b82525050565b600061271c8383612701565b60208301905092915050565b6000602082019050919050565b61273e816126e1565b61274881846126ec565b9250612753826126f7565b8060005b8381101561278457815161276b8782612710565b965061277683612728565b925050600181019050612757565b505050505050565b60006040820190506127a16000830184612735565b92915050565b6000815190506127b681611bf3565b92915050565b6000602082840312156127d2576127d1611bdf565b5b60006127e0848285016127a7565b91505092915050565b7f4e6f7420617574686f72697a6564000000000000000000000000000000000000600082015250565b600061281f600e836121ca565b915061282a826127e9565b602082019050919050565b6000602082019050818103600083015261284e81612812565b9050919050565b7f4f70657261746f72206665652068617320746f20626520736d616c6c6572207460008201527f68616e2031302500000000000000000000000000000000000000000000000000602082015250565b60006128b16027836121ca565b91506128bc82612855565b604082019050919050565b600060208201905081810360008301526128e0816128a4565b9050919050565b7f4e487b7100000000000000000000000000000000000000000000000000000000600052603260045260246000fd5b7f4e487b7100000000000000000000000000000000000000000000000000000000600052601160045260246000fd5b600061295082611f4b565b9150600082141561296457612963612916565b5b600182039050919050565b7f4e487b7100000000000000000000000000000000000000000000000000000000600052604160045260246000fd5b60006129a982611d45565b91507fffffffffffffffffffffffffffffffffffffffffffffffffffffffffffffffff8214156129dc576129db612916565b5b600182019050919050565b7f54686520636f6d6d69746d656e7420686173206265656e207375626d6974746560008201527f6400000000000000000000000000000000000000000000000000000000000000602082015250565b6000612a436021836121ca565b9150612a4e826129e7565b604082019050919050565b60006020820190508181036000830152612a7281612a36565b9050919050565b6000604082019050612a8e6000830185611f5b565b612a9b6020830184611f21565b9392505050565b7f6f776e65722063616e6e6f74206265207a65726f206164647265737300000000600082015250565b6000612ad8601c836121ca565b9150612ae382612aa2565b602082019050919050565b60006020820190508181036000830152612b0781612acb565b9050919050565b7f496e636f727265637420726566756e6420616d6f756e7420726563656976656460008201527f2062792074686520636f6e747261637400000000000000000000000000000000602082015250565b6000612b6a6030836121ca565b9150612b7582612b0e565b604082019050919050565b60006020820190508181036000830152612b9981612b5d565b9050919050565b6000612bab82611d45565b9150612bb683611d45565b9250817fffffffffffffffffffffffffffffffffffffffffffffffffffffffffffffffff0483118215151615612bef57612bee612916565b5b828202905092915050565b7f4e487b7100000000000000000000000000000000000000000000000000000000600052601260045260246000fd5b6000612c3482611d45565b9150612c3f83611d45565b925082612c4f57612c4e612bfa565b5b828204905092915050565b6000612c6582611d45565b9150612c7083611d45565b925082821015612c8357612c82612916565b5b828203905092915050565b600081905092915050565b50565b6000612ca9600083612c8e565b9150612cb482612c99565b600082019050919050565b6000612cca82612c9c565b9150819050919050565b60008160011c9050919050565b6000808291508390505b6001851115612d2b57808604811115612d0757612d06612916565b5b6001851615612d165780820291505b8081029050612d2485612cd4565b9450612ceb565b94509492505050565b600082612d445760019050612e00565b81612d525760009050612e00565b8160018114612d685760028114612d7257612da1565b6001915050612e00565b60ff841115612d8457612d83612916565b5b8360020a915084821115612d9b57612d9a612916565b5b50612e00565b5060208310610133831016604e8410600b8410161715612dd65782820a905083811115612dd157612dd0612916565b5b612e00565b612de38484846001612ce1565b92509050818404811115612dfa57612df9612916565b5b81810290505b9392505050565b6000612e1282611f4b565b9150612e1d83611f4b565b9250612e2e63ffffffff8484612d34565b905092915050565b7f4d65726b6c6520747265652069732066756c6c2e204e6f206d6f7265206c656160008201527f66732063616e2062652061646465640000000000000000000000000000000000602082015250565b6000612e92602f836121ca565b9150612e9d82612e36565b604082019050919050565b60006020820190508181036000830152612ec181612e85565b9050919050565b6000612ed382611f4b565b9150612ede83611f4b565b92508263ffffffff03821115612ef757612ef6612916565b5b828201905092915050565b6000612f0d82611f4b565b9150612f1883611f4b565b925082612f2857612f27612bfa565b5b828206905092915050565b6000612f3e82611f4b565b9150612f4983611f4b565b925082612f5957612f58612bfa565b5b828204905092915050565b6000612f6f82611f4b565b915063ffffffff821415612f8657612f85612916565b5b600182019050919050565b6000612f9c82611f4b565b9150612fa783611f4b565b925082821015612fba57612fb9612916565b5b828203905092915050565b7f4554482076616c756520697320737570706f73656420746f206265203020666f60008201527f7220455243323020696e7374616e636500000000000000000000000000000000602082015250565b60006130216030836121ca565b915061302c82612fc5565b604082019050919050565b6000602082019050818103600083015261305081613014565b9050919050565b600060408201905061306c60008301856121a0565b6130796020830184611f21565b9392505050565b600081519050919050565b60005b838110156130a957808201518184015260208101905061308e565b838111156130b8576000848401525b50505050565b60006130c982613080565b6130d38185612c8e565b93506130e381856020860161308b565b80840191505092915050565b60006130fb82846130be565b915081905092915050565b7f6e6f7420656e6f75676820746f6b656e73000000000000000000000000000000600082015250565b600061313c6011836121ca565b915061314782613106565b602082019050919050565b6000602082019050818103600083015261316b8161312f565b9050919050565b7f64617461206c656e6774682073686f756c64206265206569746865722030206f60008201527f7220333220627974657300000000000000000000000000000000000000000000602082015250565b60006131ce602a836121ca565b91506131d982613172565b604082019050919050565b600060208201905081810360008301526131fd816131c1565b9050919050565b7f6e6f7420656e6f75676820746f6b656e732e20546f6b656e2072657475726e7360008201527f2066616c73652e00000000000000000000000000000000000000000000000000602082015250565b60006132606027836121ca565b915061326b82613204565b604082019050919050565b6000602082019050818103600083015261328f81613253565b9050919050565b60006060820190506132ab60008301866121a0565b6132b860208301856121a0565b6132c56040830184611f21565b949350505050565b7f6e6f7420656e6f75676820616c6c6f77656420746f6b656e7300000000000000600082015250565b60006133036019836121ca565b915061330e826132cd565b602082019050919050565b60006020820190508181036000830152613332816132f6565b9050919050565b7f6e6f7420656e6f75676820616c6c6f77656420746f6b656e732e20546f6b656e60008201527f2072657475726e732066616c73652e0000000000000000000000000000000000602082015250565b6000613395602f836121ca565b91506133a082613339565b604082019050919050565b600060208201905081810360008301526133c481613388565b905091905056fea2646970667358221220b804d6b48b6cc8fa20d3d59dc5311bfcd03d40599cfcadd4e8f3e4875ddfbbab64736f6c63430008090033",
  "linkReferences": {
    "contracts/MerkleTreeWithHistory.sol": {
      "Hasher": [
        {
          "length": 20,
          "start": 1174
        },
        {
          "length": 20,
          "start": 5698
        }
      ]
    }
  },
  "deployedLinkReferences": {
    "contracts/MerkleTreeWithHistory.sol": {
      "Hasher": [
        {
          "length": 20,
          "start": 2678
        }
      ]
    }
  }
}