{
  "_format": "hh-sol-artifact-1",
  "contractName": "ERC20Sacred",
  "sourceName": "contracts/ERC20Sacred.sol",
  "abi": [
    {
      "inputs": [
        {
          "internalType": "contract IVerifier",
          "name": "_verifier",
          "type": "address"
        },
        {
          "internalType": "uint256",
          "name": "_denomination",
          "type": "uint256"
        },
        {
          "internalType": "uint32",
          "name": "_merkleTreeHeight",
          "type": "uint32"
        },
        {
          "internalType": "address",
          "name": "_owner",
          "type": "address"
        },
        {
          "internalType": "address",
          "name": "_token",
          "type": "address"
        },
        {
          "internalType": "uint256",
          "name": "_fee",
          "type": "uint256"
        }
      ],
      "stateMutability": "nonpayable",
      "type": "constructor"
    },
    {
      "anonymous": false,
      "inputs": [
        {
          "indexed": true,
          "internalType": "bytes32",
          "name": "commitment",
          "type": "bytes32"
        },
        {
          "indexed": false,
          "internalType": "uint32",
          "name": "leafIndex",
          "type": "uint32"
        },
        {
          "indexed": false,
          "internalType": "uint256",
          "name": "timestamp",
          "type": "uint256"
        }
      ],
      "name": "Deposit",
      "type": "event"
    },
    {
      "anonymous": false,
      "inputs": [
        {
          "indexed": true,
          "internalType": "address",
          "name": "previousOwner",
          "type": "address"
        },
        {
          "indexed": true,
          "internalType": "address",
          "name": "newOwner",
          "type": "address"
        }
      ],
      "name": "OwnershipTransferred",
      "type": "event"
    },
    {
      "anonymous": false,
      "inputs": [
        {
          "indexed": false,
          "internalType": "address",
          "name": "to",
          "type": "address"
        },
        {
          "indexed": false,
          "internalType": "bytes32",
          "name": "nullifierHash",
          "type": "bytes32"
        },
        {
          "indexed": true,
          "internalType": "address",
          "name": "relayer",
          "type": "address"
        },
        {
          "indexed": false,
          "internalType": "uint256",
          "name": "fee",
          "type": "uint256"
        }
      ],
      "name": "Withdrawal",
      "type": "event"
    },
    {
      "inputs": [],
      "name": "FIELD_SIZE",
      "outputs": [
        {
          "internalType": "uint256",
          "name": "",
          "type": "uint256"
        }
      ],
      "stateMutability": "view",
      "type": "function"
    },
    {
      "inputs": [],
      "name": "ROOT_HISTORY_SIZE",
      "outputs": [
        {
          "internalType": "uint32",
          "name": "",
          "type": "uint32"
        }
      ],
      "stateMutability": "view",
      "type": "function"
    },
    {
      "inputs": [],
      "name": "ZERO_VALUE",
      "outputs": [
        {
          "internalType": "uint256",
          "name": "",
          "type": "uint256"
        }
      ],
      "stateMutability": "view",
      "type": "function"
    },
    {
      "inputs": [
        {
          "internalType": "bytes32",
          "name": "",
          "type": "bytes32"
        }
      ],
      "name": "commitments",
      "outputs": [
        {
          "internalType": "bool",
          "name": "",
          "type": "bool"
        }
      ],
      "stateMutability": "view",
      "type": "function"
    },
    {
      "inputs": [],
      "name": "currentRootIndex",
      "outputs": [
        {
          "internalType": "uint32",
          "name": "",
          "type": "uint32"
        }
      ],
      "stateMutability": "view",
      "type": "function"
    },
    {
      "inputs": [],
      "name": "denomination",
      "outputs": [
        {
          "internalType": "uint256",
          "name": "",
          "type": "uint256"
        }
      ],
      "stateMutability": "view",
      "type": "function"
    },
    {
      "inputs": [
        {
          "internalType": "bytes32",
          "name": "_commitment",
          "type": "bytes32"
        }
      ],
      "name": "deposit",
      "outputs": [],
      "stateMutability": "payable",
      "type": "function"
    },
    {
      "inputs": [],
      "name": "fee",
      "outputs": [
        {
          "internalType": "uint256",
          "name": "",
          "type": "uint256"
        }
      ],
      "stateMutability": "view",
      "type": "function"
    },
    {
      "inputs": [
        {
          "internalType": "uint256",
          "name": "",
          "type": "uint256"
        }
      ],
      "name": "filledSubtrees",
      "outputs": [
        {
          "internalType": "bytes32",
          "name": "",
          "type": "bytes32"
        }
      ],
      "stateMutability": "view",
      "type": "function"
    },
    {
      "inputs": [],
      "name": "getLastRoot",
      "outputs": [
        {
          "internalType": "bytes32",
          "name": "",
          "type": "bytes32"
        }
      ],
      "stateMutability": "view",
      "type": "function"
    },
    {
      "inputs": [
        {
          "internalType": "bytes32",
          "name": "_left",
          "type": "bytes32"
        },
        {
          "internalType": "bytes32",
          "name": "_right",
          "type": "bytes32"
        }
      ],
      "name": "hashLeftRight",
      "outputs": [
        {
          "internalType": "bytes32",
          "name": "",
          "type": "bytes32"
        }
      ],
      "stateMutability": "pure",
      "type": "function"
    },
    {
      "inputs": [
        {
          "internalType": "bytes32",
          "name": "_root",
          "type": "bytes32"
        }
      ],
      "name": "isKnownRoot",
      "outputs": [
        {
          "internalType": "bool",
          "name": "",
          "type": "bool"
        }
      ],
      "stateMutability": "view",
      "type": "function"
    },
    {
      "inputs": [
        {
          "internalType": "bytes32",
          "name": "_nullifierHash",
          "type": "bytes32"
        }
      ],
      "name": "isSpent",
      "outputs": [
        {
          "internalType": "bool",
          "name": "",
          "type": "bool"
        }
      ],
      "stateMutability": "view",
      "type": "function"
    },
    {
      "inputs": [
        {
          "internalType": "bytes32[]",
          "name": "_nullifierHashes",
          "type": "bytes32[]"
        }
      ],
      "name": "isSpentArray",
      "outputs": [
        {
          "internalType": "bool[]",
          "name": "spent",
          "type": "bool[]"
        }
      ],
      "stateMutability": "view",
      "type": "function"
    },
    {
      "inputs": [],
      "name": "levels",
      "outputs": [
        {
          "internalType": "uint32",
          "name": "",
          "type": "uint32"
        }
      ],
      "stateMutability": "view",
      "type": "function"
    },
    {
      "inputs": [],
      "name": "nextIndex",
      "outputs": [
        {
          "internalType": "uint32",
          "name": "",
          "type": "uint32"
        }
      ],
      "stateMutability": "view",
      "type": "function"
    },
    {
      "inputs": [
        {
          "internalType": "bytes32",
          "name": "",
          "type": "bytes32"
        }
      ],
      "name": "nullifierHashes",
      "outputs": [
        {
          "internalType": "bool",
          "name": "",
          "type": "bool"
        }
      ],
      "stateMutability": "view",
      "type": "function"
    },
    {
      "inputs": [],
      "name": "ownershipAccepted",
      "outputs": [],
      "stateMutability": "nonpayable",
      "type": "function"
    },
    {
      "inputs": [],
      "name": "renounceOwnership",
      "outputs": [],
      "stateMutability": "nonpayable",
      "type": "function"
    },
    {
      "inputs": [],
      "name": "revokeInvitation",
      "outputs": [],
      "stateMutability": "nonpayable",
      "type": "function"
    },
    {
      "inputs": [
        {
          "internalType": "uint256",
          "name": "",
          "type": "uint256"
        }
      ],
      "name": "roots",
      "outputs": [
        {
          "internalType": "bytes32",
          "name": "",
          "type": "bytes32"
        }
      ],
      "stateMutability": "view",
      "type": "function"
    },
    {
      "inputs": [
        {
          "internalType": "uint256",
          "name": "_fee",
          "type": "uint256"
        }
      ],
      "name": "setFee",
      "outputs": [],
      "stateMutability": "nonpayable",
      "type": "function"
    },
    {
      "inputs": [],
      "name": "token",
      "outputs": [
        {
          "internalType": "address",
          "name": "",
          "type": "address"
        }
      ],
      "stateMutability": "view",
      "type": "function"
    },
    {
      "inputs": [
        {
          "internalType": "address",
          "name": "newOwner",
          "type": "address"
        }
      ],
      "name": "transferOwnership",
      "outputs": [],
      "stateMutability": "nonpayable",
      "type": "function"
    },
    {
      "inputs": [],
      "name": "verifier",
      "outputs": [
        {
          "internalType": "contract IVerifier",
          "name": "",
          "type": "address"
        }
      ],
      "stateMutability": "view",
      "type": "function"
    },
    {
      "inputs": [
        {
          "internalType": "bytes",
          "name": "_proof",
          "type": "bytes"
        },
        {
          "internalType": "bytes32",
          "name": "_root",
          "type": "bytes32"
        },
        {
          "internalType": "bytes32",
          "name": "_nullifierHash",
          "type": "bytes32"
        },
        {
          "internalType": "address payable",
          "name": "_recipient",
          "type": "address"
        },
        {
          "internalType": "address payable",
          "name": "_relayer",
          "type": "address"
        },
        {
          "internalType": "uint256",
          "name": "_fee",
          "type": "uint256"
        },
        {
          "internalType": "uint256",
          "name": "_refund",
          "type": "uint256"
        }
      ],
      "name": "withdraw",
      "outputs": [],
      "stateMutability": "payable",
      "type": "function"
    },
    {
      "inputs": [
        {
          "internalType": "uint256",
          "name": "",
          "type": "uint256"
        }
      ],
      "name": "zeros",
      "outputs": [
        {
          "internalType": "bytes32",
          "name": "",
          "type": "bytes32"
        }
      ],
      "stateMutability": "view",
      "type": "function"
    }
  ],
  "bytecode": "0x60806040526000600360006101000a81548163ffffffff021916908363ffffffff1602179055506000600360046101000a81548163ffffffff021916908363ffffffff1602179055506032606f553480156200005a57600080fd5b50604051620040ac380380620040ac833981810160405281019062000080919062000668565b8585858584818360008163ffffffff1611620000d3576040517f08c379a0000000000000000000000000000000000000000000000000000000008152600401620000ca906200078b565b60405180910390fd5b60208163ffffffff16106200011f576040517f08c379a0000000000000000000000000000000000000000000000000000000008152600401620001169062000823565b60405180910390fd5b806000806101000a81548163ffffffff021916908363ffffffff16021790555060007f2fe54c60d3acabf3343a35b6eba15db4821b340f76e741e2249685ed4899af6c60001b9050600281908060018154018082558091505060019003906000526020600020016000909190919091505560018190806001815401808255809150506001900390600052602060002001600090919091909150556000600190505b60008054906101000a900463ffffffff1663ffffffff168163ffffffff1610156200025f57620001f78283620003c260201b60201c565b91506002829080600181540180825580915050600190039060005260206000200160009091909190915055600182908060018154018082558091505060019003906000526020600020016000909190919091505580620002579062000874565b9050620001c0565b50620002728182620003c260201b60201c565b60046000606481106200028a5762000289620008a6565b5b01819055505050600160688190555080606960006101000a81548173ffffffffffffffffffffffffffffffffffffffff021916908373ffffffffffffffffffffffffffffffffffffffff160217905550506000841162000321576040517f08c379a000000000000000000000000000000000000000000000000000000000815260040162000318906200094b565b60405180910390fd5b84606e60006101000a81548173ffffffffffffffffffffffffffffffffffffffff021916908373ffffffffffffffffffffffffffffffffffffffff16021790555083606b8190555080606f81905550505050505081607060006101000a81548173ffffffffffffffffffffffffffffffffffffffff021916908373ffffffffffffffffffffffffffffffffffffffff16021790555050505050505062000bbc565b60007f30644e72e131a029b85045b68181585d2833e84879b9709143e1f593f00000018360001c106200042c576040517f08c379a00000000000000000000000000000000000000000000000000000000081526004016200042390620009bd565b60405180910390fd5b7f30644e72e131a029b85045b68181585d2833e84879b9709143e1f593f00000018260001c1062000494576040517f08c379a00000000000000000000000000000000000000000000000000000000081526004016200048b9062000a55565b60405180910390fd5b73__$9780738a116369df5fe6eb1df74865bc0a$__63299e56606040518060400160405280868152602001858152506040518263ffffffff1660e01b8152600401620004e1919062000b3c565b60206040518083038186803b158015620004fa57600080fd5b505af41580156200050f573d6000803e3d6000fd5b505050506040513d601f19601f8201168201806040525081019062000535919062000b8a565b905092915050565b600080fd5b600073ffffffffffffffffffffffffffffffffffffffff82169050919050565b60006200056f8262000542565b9050919050565b6000620005838262000562565b9050919050565b620005958162000576565b8114620005a157600080fd5b50565b600081519050620005b5816200058a565b92915050565b6000819050919050565b620005d081620005bb565b8114620005dc57600080fd5b50565b600081519050620005f081620005c5565b92915050565b600063ffffffff82169050919050565b6200061181620005f6565b81146200061d57600080fd5b50565b600081519050620006318162000606565b92915050565b620006428162000562565b81146200064e57600080fd5b50565b600081519050620006628162000637565b92915050565b60008060008060008060c087890312156200068857620006876200053d565b5b60006200069889828a01620005a4565b9650506020620006ab89828a01620005df565b9550506040620006be89828a0162000620565b9450506060620006d189828a0162000651565b9350506080620006e489828a0162000651565b92505060a0620006f789828a01620005df565b9150509295509295509295565b600082825260208201905092915050565b7f5f747265654c6576656c732073686f756c64206265206772656174657220746860008201527f616e207a65726f00000000000000000000000000000000000000000000000000602082015250565b60006200077360278362000704565b9150620007808262000715565b604082019050919050565b60006020820190508181036000830152620007a68162000764565b9050919050565b7f5f747265654c6576656c732073686f756c64206265206c657373207468616e2060008201527f3332000000000000000000000000000000000000000000000000000000000000602082015250565b60006200080b60228362000704565b91506200081882620007ad565b604082019050919050565b600060208201905081810360008301526200083e81620007fc565b9050919050565b7f4e487b7100000000000000000000000000000000000000000000000000000000600052601160045260246000fd5b60006200088182620005f6565b915063ffffffff8214156200089b576200089a62000845565b5b600182019050919050565b7f4e487b7100000000000000000000000000000000000000000000000000000000600052603260045260246000fd5b7f64656e6f6d696e6174696f6e2073686f756c642062652067726561746572207460008201527f68616e2030000000000000000000000000000000000000000000000000000000602082015250565b60006200093360258362000704565b91506200094082620008d5565b604082019050919050565b60006020820190508181036000830152620009668162000924565b9050919050565b7f5f6c6566742073686f756c6420626520696e7369646520746865206669656c64600082015250565b6000620009a560208362000704565b9150620009b2826200096d565b602082019050919050565b60006020820190508181036000830152620009d88162000996565b9050919050565b7f5f72696768742073686f756c6420626520696e7369646520746865206669656c60008201527f6400000000000000000000000000000000000000000000000000000000000000602082015250565b600062000a3d60218362000704565b915062000a4a82620009df565b604082019050919050565b6000602082019050818103600083015262000a708162000a2e565b9050919050565b600060029050919050565b600081905092915050565b6000819050919050565b6000819050919050565b62000aac8162000a97565b82525050565b600062000ac0838362000aa1565b60208301905092915050565b6000602082019050919050565b62000ae48162000a77565b62000af0818462000a82565b925062000afd8262000a8d565b8060005b8381101562000b3457815162000b18878262000ab2565b965062000b258362000acc565b92505060018101905062000b01565b505050505050565b600060408201905062000b53600083018462000ad9565b92915050565b62000b648162000a97565b811462000b7057600080fd5b50565b60008151905062000b848162000b59565b92915050565b60006020828403121562000ba35762000ba26200053d565b5b600062000bb38482850162000b73565b91505092915050565b6134e08062000bcc6000396000f3fe60806040526004361061019c5760003560e01c8063a19dd299116100ec578063e82955881161008a578063f178e47c11610064578063f178e47c146105b2578063f2fde38b146105ef578063fc0c546a14610618578063fc7e9c6f146106435761019c565b8063e829558814610533578063eb1dbc1b14610570578063ec732959146105875761019c565b8063c2b40ae4116100c6578063c2b40ae414610463578063cd87a3b4146104a0578063ddca3f43146104cb578063e5285dcc146104f65761019c565b8063a19dd29914610405578063b214faa51461041c578063ba70f757146104385761019c565b806369fe0e2d11610159578063839df94511610133578063839df945146103355780638bca6d161461037257806390eeb02b1461039d5780639fa12d0b146103c85761019c565b806369fe0e2d146102b85780636d9833e3146102e1578063715018a61461031e5761019c565b806317cc915c146101a157806321a0adb6146101de5780632b7ac3f3146101fa57806338bf282e14610225578063414a37ba146102625780634ecf518b1461028d575b600080fd5b3480156101ad57600080fd5b506101c860048036038101906101c39190611cfe565b61066e565b6040516101d59190611d46565b60405180910390f35b6101f860048036038101906101f39190611e5a565b61068e565b005b34801561020657600080fd5b5061020f6109b4565b60405161021c9190611f7b565b60405180910390f35b34801561023157600080fd5b5061024c60048036038101906102479190611f96565b6109da565b6040516102599190611fe5565b60405180910390f35b34801561026e57600080fd5b50610277610b49565b604051610284919061200f565b60405180910390f35b34801561029957600080fd5b506102a2610b6d565b6040516102af9190612049565b60405180910390f35b3480156102c457600080fd5b506102df60048036038101906102da9190612064565b610b81565b005b3480156102ed57600080fd5b5061030860048036038101906103039190611cfe565b610c60565b6040516103159190611d46565b60405180910390f35b34801561032a57600080fd5b50610333610d0e565b005b34801561034157600080fd5b5061035c60048036038101906103579190611cfe565b610daa565b6040516103699190611d46565b60405180910390f35b34801561037e57600080fd5b50610387610dca565b604051610394919061200f565b60405180910390f35b3480156103a957600080fd5b506103b2610dd0565b6040516103bf9190612049565b60405180910390f35b3480156103d457600080fd5b506103ef60048036038101906103ea91906120e7565b610de6565b6040516103fc91906121f2565b60405180910390f35b34801561041157600080fd5b5061041a610eab565b005b61043660048036038101906104319190611cfe565b610f7f565b005b34801561044457600080fd5b5061044d6110b5565b60405161045a9190611fe5565b60405180910390f35b34801561046f57600080fd5b5061048a60048036038101906104859190612064565b6110ea565b6040516104979190611fe5565b60405180910390f35b3480156104ac57600080fd5b506104b5611105565b6040516104c29190612049565b60405180910390f35b3480156104d757600080fd5b506104e061110a565b6040516104ed919061200f565b60405180910390f35b34801561050257600080fd5b5061051d60048036038101906105189190611cfe565b611110565b60405161052a9190611d46565b60405180910390f35b34801561053f57600080fd5b5061055a60048036038101906105559190612064565b61113a565b6040516105679190611fe5565b60405180910390f35b34801561057c57600080fd5b5061058561115e565b005b34801561059357600080fd5b5061059c61123b565b6040516105a9919061200f565b60405180910390f35b3480156105be57600080fd5b506105d960048036038101906105d49190612064565b61125f565b6040516105e69190611fe5565b60405180910390f35b3480156105fb57600080fd5b5061061660048036038101906106119190612252565b611283565b005b34801561062457600080fd5b5061062d6113c7565b60405161063a919061228e565b60405180910390f35b34801561064f57600080fd5b506106586113ed565b6040516106659190612049565b60405180910390f35b606c6020528060005260406000206000915054906101000a900460ff1681565b600260685414156106d4576040517f08c379a00000000000000000000000000000000000000000000000000000000081526004016106cb90612306565b60405180910390fd5b6002606881905550606b54821115610721576040517f08c379a000000000000000000000000000000000000000000000000000000000815260040161071890612372565b60405180910390fd5b606c600086815260200190815260200160002060009054906101000a900460ff1615610782576040517f08c379a0000000000000000000000000000000000000000000000000000000008152600401610779906123de565b60405180910390fd5b61078b86610c60565b6107ca576040517f08c379a00000000000000000000000000000000000000000000000000000000081526004016107c19061244a565b60405180910390fd5b606e60009054906101000a900473ffffffffffffffffffffffffffffffffffffffff1673ffffffffffffffffffffffffffffffffffffffff1663695ef6f989896040518060c001604052808b60001c81526020018a60001c81526020018973ffffffffffffffffffffffffffffffffffffffff1681526020018873ffffffffffffffffffffffffffffffffffffffff168152602001878152602001868152506040518463ffffffff1660e01b815260040161088793929190612573565b602060405180830381600087803b1580156108a157600080fd5b505af11580156108b5573d6000803e3d6000fd5b505050506040513d601f19601f820116820180604052508101906108d991906125d1565b610918576040517f08c379a000000000000000000000000000000000000000000000000000000000815260040161090f9061264a565b60405180910390fd5b6001606c600087815260200190815260200160002060006101000a81548160ff02191690831515021790555061095084848484611403565b8273ffffffffffffffffffffffffffffffffffffffff167fe9e508bad6d4c3227e881ca19068f099da81b5164dd6d62b2eaf1e8bc6c3493185878560405161099a9392919061268b565b60405180910390a260016068819055505050505050505050565b606e60009054906101000a900473ffffffffffffffffffffffffffffffffffffffff1681565b60007f30644e72e131a029b85045b68181585d2833e84879b9709143e1f593f00000018360001c10610a41576040517f08c379a0000000000000000000000000000000000000000000000000000000008152600401610a389061270e565b60405180910390fd5b7f30644e72e131a029b85045b68181585d2833e84879b9709143e1f593f00000018260001c10610aa6576040517f08c379a0000000000000000000000000000000000000000000000000000000008152600401610a9d906127a0565b60405180910390fd5b73__$9780738a116369df5fe6eb1df74865bc0a$__63299e56606040518060400160405280868152602001858152506040518263ffffffff1660e01b8152600401610af1919061286b565b60206040518083038186803b158015610b0957600080fd5b505af4158015610b1d573d6000803e3d6000fd5b505050506040513d601f19601f82011682018060405250810190610b41919061289b565b905092915050565b7f30644e72e131a029b85045b68181585d2833e84879b9709143e1f593f000000181565b60008054906101000a900463ffffffff1681565b606960009054906101000a900473ffffffffffffffffffffffffffffffffffffffff1673ffffffffffffffffffffffffffffffffffffffff163373ffffffffffffffffffffffffffffffffffffffff1614610c11576040517f08c379a0000000000000000000000000000000000000000000000000000000008152600401610c0890612914565b60405180910390fd5b6103e8811115610c56576040517f08c379a0000000000000000000000000000000000000000000000000000000008152600401610c4d906129a6565b60405180910390fd5b80606f8190555050565b60008060001b821415610c765760009050610d09565b6000600360009054906101000a900463ffffffff1690505b60048163ffffffff1660648110610ca857610ca76129c6565b5b0154831415610cbb576001915050610d09565b60008163ffffffff161415610ccf57606490505b8080610cda90612a24565b915050600360009054906101000a900463ffffffff1663ffffffff168163ffffffff161415610c8e5760009150505b919050565b606960009054906101000a900473ffffffffffffffffffffffffffffffffffffffff1673ffffffffffffffffffffffffffffffffffffffff163373ffffffffffffffffffffffffffffffffffffffff1614610d9e576040517f08c379a0000000000000000000000000000000000000000000000000000000008152600401610d9590612914565b60405180910390fd5b610da8600061159d565b565b606d6020528060005260406000206000915054906101000a900460ff1681565b606b5481565b600360009054906101000a900463ffffffff1681565b60608282905067ffffffffffffffff811115610e0557610e04612a4e565b5b604051908082528060200260200182016040528015610e335781602001602082028036833780820191505090505b50905060005b83839050811015610ea457610e66848483818110610e5a57610e596129c6565b5b90506020020135611110565b15610e93576001828281518110610e8057610e7f6129c6565b5b6020026020010190151590811515815250505b80610e9d90612a7d565b9050610e39565b5092915050565b606960009054906101000a900473ffffffffffffffffffffffffffffffffffffffff1673ffffffffffffffffffffffffffffffffffffffff163373ffffffffffffffffffffffffffffffffffffffff1614610f3b576040517f08c379a0000000000000000000000000000000000000000000000000000000008152600401610f3290612914565b60405180910390fd5b6000606a60006101000a81548173ffffffffffffffffffffffffffffffffffffffff021916908373ffffffffffffffffffffffffffffffffffffffff160217905550565b60026068541415610fc5576040517f08c379a0000000000000000000000000000000000000000000000000000000008152600401610fbc90612306565b60405180910390fd5b6002606881905550606d600082815260200190815260200160002060009054906101000a900460ff161561102e576040517f08c379a000000000000000000000000000000000000000000000000000000000815260040161102590612b38565b60405180910390fd5b60006110398261165d565b90506001606d600084815260200190815260200160002060006101000a81548160ff02191690831515021790555061106f6118c1565b817fa945e51eec50ab98c161376f0db4cf2aeba3ec92755fe2fcd388bdbbb80ff19682426040516110a1929190612b58565b60405180910390a250600160688190555050565b60006004600360009054906101000a900463ffffffff1663ffffffff16606481106110e3576110e26129c6565b5b0154905090565b600481606481106110fa57600080fd5b016000915090505481565b606481565b606f5481565b6000606c600083815260200190815260200160002060009054906101000a900460ff169050919050565b6002818154811061114a57600080fd5b906000526020600020016000915090505481565b606a60009054906101000a900473ffffffffffffffffffffffffffffffffffffffff1673ffffffffffffffffffffffffffffffffffffffff163373ffffffffffffffffffffffffffffffffffffffff16146111ee576040517f08c379a00000000000000000000000000000000000000000000000000000000081526004016111e590612914565b60405180910390fd5b6111f73361159d565b6000606a60006101000a81548173ffffffffffffffffffffffffffffffffffffffff021916908373ffffffffffffffffffffffffffffffffffffffff160217905550565b7f2fe54c60d3acabf3343a35b6eba15db4821b340f76e741e2249685ed4899af6c81565b6001818154811061126f57600080fd5b906000526020600020016000915090505481565b606960009054906101000a900473ffffffffffffffffffffffffffffffffffffffff1673ffffffffffffffffffffffffffffffffffffffff163373ffffffffffffffffffffffffffffffffffffffff1614611313576040517f08c379a000000000000000000000000000000000000000000000000000000000815260040161130a90612914565b60405180910390fd5b600073ffffffffffffffffffffffffffffffffffffffff168173ffffffffffffffffffffffffffffffffffffffff161415611383576040517f08c379a000000000000000000000000000000000000000000000000000000000815260040161137a90612bcd565b60405180910390fd5b80606a60006101000a81548173ffffffffffffffffffffffffffffffffffffffff021916908373ffffffffffffffffffffffffffffffffffffffff16021790555050565b607060009054906101000a900473ffffffffffffffffffffffffffffffffffffffff1681565b600360049054906101000a900463ffffffff1681565b803414611445576040517f08c379a000000000000000000000000000000000000000000000000000000000815260040161143c90612c5f565b60405180910390fd5b6000612710606f54606b5461145a9190612c7f565b6114649190612d08565b9050611488858483606b546114799190612d39565b6114839190612d39565b611913565b60008111156114be576114bd606960009054906101000a900473ffffffffffffffffffffffffffffffffffffffff1682611913565b5b60008311156114d2576114d18484611913565b5b60008211156115965760008573ffffffffffffffffffffffffffffffffffffffff168360405161150190612d9e565b60006040518083038185875af1925050503d806000811461153e576040519150601f19603f3d011682016040523d82523d6000602084013e611543565b606091505b5050905080611594578473ffffffffffffffffffffffffffffffffffffffff166108fc849081150290604051600060405180830381858888f19350505050158015611592573d6000803e3d6000fd5b505b505b5050505050565b8073ffffffffffffffffffffffffffffffffffffffff16606960009054906101000a900473ffffffffffffffffffffffffffffffffffffffff1673ffffffffffffffffffffffffffffffffffffffff167f8be0079c531659141344cd1fd0a4f28419497f9722a3daafe3b4186f6b6457e060405160405180910390a380606960006101000a81548173ffffffffffffffffffffffffffffffffffffffff021916908373ffffffffffffffffffffffffffffffffffffffff16021790555050565b600080600360049054906101000a900463ffffffff16905060008054906101000a900463ffffffff1660026116929190612ee6565b63ffffffff168163ffffffff1614156116e0576040517f08c379a00000000000000000000000000000000000000000000000000000000081526004016116d790612f87565b60405180910390fd5b6001600360048282829054906101000a900463ffffffff166117029190612fa7565b92506101000a81548163ffffffff021916908363ffffffff160217905550600083905060008060005b60008054906101000a900463ffffffff1663ffffffff168163ffffffff16101561181957600060028661175e9190612fe1565b63ffffffff1614156117c25783925060028163ffffffff1681548110611787576117866129c6565b5b906000526020600020015491508360018263ffffffff16815481106117af576117ae6129c6565b5b90600052602060002001819055506117ed565b60018163ffffffff16815481106117dc576117db6129c6565b5b906000526020600020015492508391505b6117f783836109da565b93506002856118069190613012565b94508061181290613043565b905061172b565b5060646001600360009054906101000a900463ffffffff1661183b9190612fa7565b6118459190612fe1565b600360006101000a81548163ffffffff021916908363ffffffff160217905550826004600360009054906101000a900463ffffffff1663ffffffff1660648110611892576118916129c6565b5b01819055506001600360049054906101000a900463ffffffff166118b69190613070565b945050505050919050565b60003414611904576040517f08c379a00000000000000000000000000000000000000000000000000000000081526004016118fb90613116565b60405180910390fd5b6119113330606b54611ae7565b565b600080607060009054906101000a900473ffffffffffffffffffffffffffffffffffffffff1673ffffffffffffffffffffffffffffffffffffffff1663a9059cbb8585604051602401611967929190613136565b6040516020818303038152906040529060e01b6020820180517bffffffffffffffffffffffffffffffffffffffffffffffffffffffff83818316178352505050506040516119b591906131ce565b6000604051808303816000865af19150503d80600081146119f2576040519150601f19603f3d011682016040523d82523d6000602084013e6119f7565b606091505b509150915081611a3c576040517f08c379a0000000000000000000000000000000000000000000000000000000008152600401611a3390613231565b60405180910390fd5b600081511115611ae1576020815114611a8a576040517f08c379a0000000000000000000000000000000000000000000000000000000008152600401611a81906132c3565b60405180910390fd5b80806020019051810190611a9e91906125d1565b915081611ae0576040517f08c379a0000000000000000000000000000000000000000000000000000000008152600401611ad790613355565b60405180910390fd5b5b50505050565b600080607060009054906101000a900473ffffffffffffffffffffffffffffffffffffffff1673ffffffffffffffffffffffffffffffffffffffff166323b872dd868686604051602401611b3d93929190613375565b6040516020818303038152906040529060e01b6020820180517bffffffffffffffffffffffffffffffffffffffffffffffffffffffff8381831617835250505050604051611b8b91906131ce565b6000604051808303816000865af19150503d8060008114611bc8576040519150601f19603f3d011682016040523d82523d6000602084013e611bcd565b606091505b509150915081611c12576040517f08c379a0000000000000000000000000000000000000000000000000000000008152600401611c09906133f8565b60405180910390fd5b600081511115611cb7576020815114611c60576040517f08c379a0000000000000000000000000000000000000000000000000000000008152600401611c57906132c3565b60405180910390fd5b80806020019051810190611c7491906125d1565b915081611cb6576040517f08c379a0000000000000000000000000000000000000000000000000000000008152600401611cad9061348a565b60405180910390fd5b5b5050505050565b600080fd5b600080fd5b6000819050919050565b611cdb81611cc8565b8114611ce657600080fd5b50565b600081359050611cf881611cd2565b92915050565b600060208284031215611d1457611d13611cbe565b5b6000611d2284828501611ce9565b91505092915050565b60008115159050919050565b611d4081611d2b565b82525050565b6000602082019050611d5b6000830184611d37565b92915050565b600080fd5b600080fd5b600080fd5b60008083601f840112611d8657611d85611d61565b5b8235905067ffffffffffffffff811115611da357611da2611d66565b5b602083019150836001820283011115611dbf57611dbe611d6b565b5b9250929050565b600073ffffffffffffffffffffffffffffffffffffffff82169050919050565b6000611df182611dc6565b9050919050565b611e0181611de6565b8114611e0c57600080fd5b50565b600081359050611e1e81611df8565b92915050565b6000819050919050565b611e3781611e24565b8114611e4257600080fd5b50565b600081359050611e5481611e2e565b92915050565b60008060008060008060008060e0898b031215611e7a57611e79611cbe565b5b600089013567ffffffffffffffff811115611e9857611e97611cc3565b5b611ea48b828c01611d70565b98509850506020611eb78b828c01611ce9565b9650506040611ec88b828c01611ce9565b9550506060611ed98b828c01611e0f565b9450506080611eea8b828c01611e0f565b93505060a0611efb8b828c01611e45565b92505060c0611f0c8b828c01611e45565b9150509295985092959890939650565b6000819050919050565b6000611f41611f3c611f3784611dc6565b611f1c565b611dc6565b9050919050565b6000611f5382611f26565b9050919050565b6000611f6582611f48565b9050919050565b611f7581611f5a565b82525050565b6000602082019050611f906000830184611f6c565b92915050565b60008060408385031215611fad57611fac611cbe565b5b6000611fbb85828601611ce9565b9250506020611fcc85828601611ce9565b9150509250929050565b611fdf81611cc8565b82525050565b6000602082019050611ffa6000830184611fd6565b92915050565b61200981611e24565b82525050565b60006020820190506120246000830184612000565b92915050565b600063ffffffff82169050919050565b6120438161202a565b82525050565b600060208201905061205e600083018461203a565b92915050565b60006020828403121561207a57612079611cbe565b5b600061208884828501611e45565b91505092915050565b60008083601f8401126120a7576120a6611d61565b5b8235905067ffffffffffffffff8111156120c4576120c3611d66565b5b6020830191508360208202830111156120e0576120df611d6b565b5b9250929050565b600080602083850312156120fe576120fd611cbe565b5b600083013567ffffffffffffffff81111561211c5761211b611cc3565b5b61212885828601612091565b92509250509250929050565b600081519050919050565b600082825260208201905092915050565b6000819050602082019050919050565b61216981611d2b565b82525050565b600061217b8383612160565b60208301905092915050565b6000602082019050919050565b600061219f82612134565b6121a9818561213f565b93506121b483612150565b8060005b838110156121e55781516121cc888261216f565b97506121d783612187565b9250506001810190506121b8565b5085935050505092915050565b6000602082019050818103600083015261220c8184612194565b905092915050565b600061221f82611dc6565b9050919050565b61222f81612214565b811461223a57600080fd5b50565b60008135905061224c81612226565b92915050565b60006020828403121561226857612267611cbe565b5b60006122768482850161223d565b91505092915050565b61228881612214565b82525050565b60006020820190506122a3600083018461227f565b92915050565b600082825260208201905092915050565b7f5265656e7472616e637947756172643a207265656e7472616e742063616c6c00600082015250565b60006122f0601f836122a9565b91506122fb826122ba565b602082019050919050565b6000602082019050818103600083015261231f816122e3565b9050919050565b7f4665652065786365656473207472616e736665722076616c7565000000000000600082015250565b600061235c601a836122a9565b915061236782612326565b602082019050919050565b6000602082019050818103600083015261238b8161234f565b9050919050565b7f546865206e6f746520686173206265656e20616c7265616479207370656e7400600082015250565b60006123c8601f836122a9565b91506123d382612392565b602082019050919050565b600060208201905081810360008301526123f7816123bb565b9050919050565b7f43616e6e6f742066696e6420796f7572206d65726b6c6520726f6f7400000000600082015250565b6000612434601c836122a9565b915061243f826123fe565b602082019050919050565b6000602082019050818103600083015261246381612427565b9050919050565b600082825260208201905092915050565b82818337600083830152505050565b6000601f19601f8301169050919050565b60006124a7838561246a565b93506124b483858461247b565b6124bd8361248a565b840190509392505050565b600060069050919050565b600081905092915050565b6000819050919050565b6124f181611e24565b82525050565b600061250383836124e8565b60208301905092915050565b6000602082019050919050565b612525816124c8565b61252f81846124d3565b925061253a826124de565b8060005b8381101561256b57815161255287826124f7565b965061255d8361250f565b92505060018101905061253e565b505050505050565b600060e082019050818103600083015261258e81858761249b565b905061259d602083018461251c565b949350505050565b6125ae81611d2b565b81146125b957600080fd5b50565b6000815190506125cb816125a5565b92915050565b6000602082840312156125e7576125e6611cbe565b5b60006125f5848285016125bc565b91505092915050565b7f496e76616c69642077697468647261772070726f6f6600000000000000000000600082015250565b60006126346016836122a9565b915061263f826125fe565b602082019050919050565b6000602082019050818103600083015261266381612627565b9050919050565b600061267582611f48565b9050919050565b6126858161266a565b82525050565b60006060820190506126a0600083018661267c565b6126ad6020830185611fd6565b6126ba6040830184612000565b949350505050565b7f5f6c6566742073686f756c6420626520696e7369646520746865206669656c64600082015250565b60006126f86020836122a9565b9150612703826126c2565b602082019050919050565b60006020820190508181036000830152612727816126eb565b9050919050565b7f5f72696768742073686f756c6420626520696e7369646520746865206669656c60008201527f6400000000000000000000000000000000000000000000000000000000000000602082015250565b600061278a6021836122a9565b91506127958261272e565b604082019050919050565b600060208201905081810360008301526127b98161277d565b9050919050565b600060029050919050565b600081905092915050565b6000819050919050565b6127e981611cc8565b82525050565b60006127fb83836127e0565b60208301905092915050565b6000602082019050919050565b61281d816127c0565b61282781846127cb565b9250612832826127d6565b8060005b8381101561286357815161284a87826127ef565b965061285583612807565b925050600181019050612836565b505050505050565b60006040820190506128806000830184612814565b92915050565b60008151905061289581611cd2565b92915050565b6000602082840312156128b1576128b0611cbe565b5b60006128bf84828501612886565b91505092915050565b7f4e6f7420617574686f72697a6564000000000000000000000000000000000000600082015250565b60006128fe600e836122a9565b9150612909826128c8565b602082019050919050565b6000602082019050818103600083015261292d816128f1565b9050919050565b7f4f70657261746f72206665652068617320746f20626520736d616c6c6572207460008201527f68616e2031302500000000000000000000000000000000000000000000000000602082015250565b60006129906027836122a9565b915061299b82612934565b604082019050919050565b600060208201905081810360008301526129bf81612983565b9050919050565b7f4e487b7100000000000000000000000000000000000000000000000000000000600052603260045260246000fd5b7f4e487b7100000000000000000000000000000000000000000000000000000000600052601160045260246000fd5b6000612a2f8261202a565b91506000821415612a4357612a426129f5565b5b600182039050919050565b7f4e487b7100000000000000000000000000000000000000000000000000000000600052604160045260246000fd5b6000612a8882611e24565b91507fffffffffffffffffffffffffffffffffffffffffffffffffffffffffffffffff821415612abb57612aba6129f5565b5b600182019050919050565b7f54686520636f6d6d69746d656e7420686173206265656e207375626d6974746560008201527f6400000000000000000000000000000000000000000000000000000000000000602082015250565b6000612b226021836122a9565b9150612b2d82612ac6565b604082019050919050565b60006020820190508181036000830152612b5181612b15565b9050919050565b6000604082019050612b6d600083018561203a565b612b7a6020830184612000565b9392505050565b7f6f776e65722063616e6e6f74206265207a65726f206164647265737300000000600082015250565b6000612bb7601c836122a9565b9150612bc282612b81565b602082019050919050565b60006020820190508181036000830152612be681612baa565b9050919050565b7f496e636f727265637420726566756e6420616d6f756e7420726563656976656460008201527f2062792074686520636f6e747261637400000000000000000000000000000000602082015250565b6000612c496030836122a9565b9150612c5482612bed565b604082019050919050565b60006020820190508181036000830152612c7881612c3c565b9050919050565b6000612c8a82611e24565b9150612c9583611e24565b9250817fffffffffffffffffffffffffffffffffffffffffffffffffffffffffffffffff0483118215151615612cce57612ccd6129f5565b5b828202905092915050565b7f4e487b7100000000000000000000000000000000000000000000000000000000600052601260045260246000fd5b6000612d1382611e24565b9150612d1e83611e24565b925082612d2e57612d2d612cd9565b5b828204905092915050565b6000612d4482611e24565b9150612d4f83611e24565b925082821015612d6257612d616129f5565b5b828203905092915050565b600081905092915050565b50565b6000612d88600083612d6d565b9150612d9382612d78565b600082019050919050565b6000612da982612d7b565b9150819050919050565b60008160011c9050919050565b6000808291508390505b6001851115612e0a57808604811115612de657612de56129f5565b5b6001851615612df55780820291505b8081029050612e0385612db3565b9450612dca565b94509492505050565b600082612e235760019050612edf565b81612e315760009050612edf565b8160018114612e475760028114612e5157612e80565b6001915050612edf565b60ff841115612e6357612e626129f5565b5b8360020a915084821115612e7a57612e796129f5565b5b50612edf565b5060208310610133831016604e8410600b8410161715612eb55782820a905083811115612eb057612eaf6129f5565b5b612edf565b612ec28484846001612dc0565b92509050818404811115612ed957612ed86129f5565b5b81810290505b9392505050565b6000612ef18261202a565b9150612efc8361202a565b9250612f0d63ffffffff8484612e13565b905092915050565b7f4d65726b6c6520747265652069732066756c6c2e204e6f206d6f7265206c656160008201527f66732063616e2062652061646465640000000000000000000000000000000000602082015250565b6000612f71602f836122a9565b9150612f7c82612f15565b604082019050919050565b60006020820190508181036000830152612fa081612f64565b9050919050565b6000612fb28261202a565b9150612fbd8361202a565b92508263ffffffff03821115612fd657612fd56129f5565b5b828201905092915050565b6000612fec8261202a565b9150612ff78361202a565b92508261300757613006612cd9565b5b828206905092915050565b600061301d8261202a565b91506130288361202a565b92508261303857613037612cd9565b5b828204905092915050565b600061304e8261202a565b915063ffffffff821415613065576130646129f5565b5b600182019050919050565b600061307b8261202a565b91506130868361202a565b925082821015613099576130986129f5565b5b828203905092915050565b7f4554482076616c756520697320737570706f73656420746f206265203020666f60008201527f7220455243323020696e7374616e636500000000000000000000000000000000602082015250565b60006131006030836122a9565b915061310b826130a4565b604082019050919050565b6000602082019050818103600083015261312f816130f3565b9050919050565b600060408201905061314b600083018561227f565b6131586020830184612000565b9392505050565b600081519050919050565b60005b8381101561318857808201518184015260208101905061316d565b83811115613197576000848401525b50505050565b60006131a88261315f565b6131b28185612d6d565b93506131c281856020860161316a565b80840191505092915050565b60006131da828461319d565b915081905092915050565b7f6e6f7420656e6f75676820746f6b656e73000000000000000000000000000000600082015250565b600061321b6011836122a9565b9150613226826131e5565b602082019050919050565b6000602082019050818103600083015261324a8161320e565b9050919050565b7f64617461206c656e6774682073686f756c64206265206569746865722030206f60008201527f7220333220627974657300000000000000000000000000000000000000000000602082015250565b60006132ad602a836122a9565b91506132b882613251565b604082019050919050565b600060208201905081810360008301526132dc816132a0565b9050919050565b7f6e6f7420656e6f75676820746f6b656e732e20546f6b656e2072657475726e7360008201527f2066616c73652e00000000000000000000000000000000000000000000000000602082015250565b600061333f6027836122a9565b915061334a826132e3565b604082019050919050565b6000602082019050818103600083015261336e81613332565b9050919050565b600060608201905061338a600083018661227f565b613397602083018561227f565b6133a46040830184612000565b949350505050565b7f6e6f7420656e6f75676820616c6c6f77656420746f6b656e7300000000000000600082015250565b60006133e26019836122a9565b91506133ed826133ac565b602082019050919050565b60006020820190508181036000830152613411816133d5565b9050919050565b7f6e6f7420656e6f75676820616c6c6f77656420746f6b656e732e20546f6b656e60008201527f2072657475726e732066616c73652e0000000000000000000000000000000000602082015250565b6000613474602f836122a9565b915061347f82613418565b604082019050919050565b600060208201905081810360008301526134a381613467565b905091905056fea264697066735822122085ff39f53a6d669841268f5d1d4f1c9470509f3a5d16e2d5d81a29d492d983fe64736f6c63430008090033",
  "linkReferences": {
    "contracts/MerkleTreeWithHistory.sol": {
      "Hasher": [
        {
          "length": 20,
          "start": 1174
        },
        {
          "length": 20,
          "start": 5748
        }
      ]
    }
  },
  "deployedLinkReferences": {
    "contracts/MerkleTreeWithHistory.sol": {
      "Hasher": [
        {
          "length": 20,
          "start": 2728
        }
      ]
    }
  }
}