{
  "_format": "hh-sol-artifact-1",
  "contractName": "ERC20Sacred",
  "sourceName": "contracts/ERC20Sacred.sol",
  "abi": [
    {
      "inputs": [
        {
          "internalType": "contract IVerifier",
          "name": "_verifier",
          "type": "address"
        },
        {
          "internalType": "uint256",
          "name": "_denomination",
          "type": "uint256"
        },
        {
          "internalType": "uint32",
          "name": "_merkleTreeHeight",
          "type": "uint32"
        },
        {
          "internalType": "address",
          "name": "_owner",
          "type": "address"
        },
        {
          "internalType": "address",
          "name": "_token",
          "type": "address"
        },
        {
          "internalType": "uint256",
          "name": "_fee",
          "type": "uint256"
        }
      ],
      "stateMutability": "nonpayable",
      "type": "constructor"
    },
    {
      "anonymous": false,
      "inputs": [
        {
          "indexed": true,
          "internalType": "bytes32",
          "name": "commitment",
          "type": "bytes32"
        },
        {
          "indexed": false,
          "internalType": "uint32",
          "name": "leafIndex",
          "type": "uint32"
        },
        {
          "indexed": false,
          "internalType": "uint256",
          "name": "timestamp",
          "type": "uint256"
        }
      ],
      "name": "Deposit",
      "type": "event"
    },
    {
      "anonymous": false,
      "inputs": [
        {
          "indexed": true,
          "internalType": "address",
          "name": "previousOwner",
          "type": "address"
        },
        {
          "indexed": true,
          "internalType": "address",
          "name": "newOwner",
          "type": "address"
        }
      ],
      "name": "OwnershipTransferred",
      "type": "event"
    },
    {
      "anonymous": false,
      "inputs": [
        {
          "indexed": false,
          "internalType": "address",
          "name": "to",
          "type": "address"
        },
        {
          "indexed": false,
          "internalType": "bytes32",
          "name": "nullifierHash",
          "type": "bytes32"
        },
        {
          "indexed": true,
          "internalType": "address",
          "name": "relayer",
          "type": "address"
        },
        {
          "indexed": false,
          "internalType": "uint256",
          "name": "fee",
          "type": "uint256"
        }
      ],
      "name": "Withdrawal",
      "type": "event"
    },
    {
      "inputs": [],
      "name": "FIELD_SIZE",
      "outputs": [
        {
          "internalType": "uint256",
          "name": "",
          "type": "uint256"
        }
      ],
      "stateMutability": "view",
      "type": "function"
    },
    {
      "inputs": [],
      "name": "ROOT_HISTORY_SIZE",
      "outputs": [
        {
          "internalType": "uint32",
          "name": "",
          "type": "uint32"
        }
      ],
      "stateMutability": "view",
      "type": "function"
    },
    {
      "inputs": [],
      "name": "ZERO_VALUE",
      "outputs": [
        {
          "internalType": "uint256",
          "name": "",
          "type": "uint256"
        }
      ],
      "stateMutability": "view",
      "type": "function"
    },
    {
      "inputs": [
        {
          "internalType": "bytes32",
          "name": "",
          "type": "bytes32"
        }
      ],
      "name": "commitments",
      "outputs": [
        {
          "internalType": "bool",
          "name": "",
          "type": "bool"
        }
      ],
      "stateMutability": "view",
      "type": "function"
    },
    {
      "inputs": [],
      "name": "currentRootIndex",
      "outputs": [
        {
          "internalType": "uint32",
          "name": "",
          "type": "uint32"
        }
      ],
      "stateMutability": "view",
      "type": "function"
    },
    {
      "inputs": [],
      "name": "denomination",
      "outputs": [
        {
          "internalType": "uint256",
          "name": "",
          "type": "uint256"
        }
      ],
      "stateMutability": "view",
      "type": "function"
    },
    {
      "inputs": [
        {
          "internalType": "bytes32",
          "name": "_commitment",
          "type": "bytes32"
        }
      ],
      "name": "deposit",
      "outputs": [],
      "stateMutability": "payable",
      "type": "function"
    },
    {
      "inputs": [],
      "name": "fee",
      "outputs": [
        {
          "internalType": "uint256",
          "name": "",
          "type": "uint256"
        }
      ],
      "stateMutability": "view",
      "type": "function"
    },
    {
      "inputs": [
        {
          "internalType": "uint256",
          "name": "",
          "type": "uint256"
        }
      ],
      "name": "filledSubtrees",
      "outputs": [
        {
          "internalType": "bytes32",
          "name": "",
          "type": "bytes32"
        }
      ],
      "stateMutability": "view",
      "type": "function"
    },
    {
      "inputs": [],
      "name": "getLastRoot",
      "outputs": [
        {
          "internalType": "bytes32",
          "name": "",
          "type": "bytes32"
        }
      ],
      "stateMutability": "view",
      "type": "function"
    },
    {
      "inputs": [
        {
          "internalType": "bytes32",
          "name": "_left",
          "type": "bytes32"
        },
        {
          "internalType": "bytes32",
          "name": "_right",
          "type": "bytes32"
        }
      ],
      "name": "hashLeftRight",
      "outputs": [
        {
          "internalType": "bytes32",
          "name": "",
          "type": "bytes32"
        }
      ],
      "stateMutability": "pure",
      "type": "function"
    },
    {
      "inputs": [
        {
          "internalType": "bytes32",
          "name": "_root",
          "type": "bytes32"
        }
      ],
      "name": "isKnownRoot",
      "outputs": [
        {
          "internalType": "bool",
          "name": "",
          "type": "bool"
        }
      ],
      "stateMutability": "view",
      "type": "function"
    },
    {
      "inputs": [
        {
          "internalType": "bytes32",
          "name": "_nullifierHash",
          "type": "bytes32"
        }
      ],
      "name": "isSpent",
      "outputs": [
        {
          "internalType": "bool",
          "name": "",
          "type": "bool"
        }
      ],
      "stateMutability": "view",
      "type": "function"
    },
    {
      "inputs": [
        {
          "internalType": "bytes32[]",
          "name": "_nullifierHashes",
          "type": "bytes32[]"
        }
      ],
      "name": "isSpentArray",
      "outputs": [
        {
          "internalType": "bool[]",
          "name": "spent",
          "type": "bool[]"
        }
      ],
      "stateMutability": "view",
      "type": "function"
    },
    {
      "inputs": [],
      "name": "levels",
      "outputs": [
        {
          "internalType": "uint32",
          "name": "",
          "type": "uint32"
        }
      ],
      "stateMutability": "view",
      "type": "function"
    },
    {
      "inputs": [],
      "name": "nextIndex",
      "outputs": [
        {
          "internalType": "uint32",
          "name": "",
          "type": "uint32"
        }
      ],
      "stateMutability": "view",
      "type": "function"
    },
    {
      "inputs": [
        {
          "internalType": "bytes32",
          "name": "",
          "type": "bytes32"
        }
      ],
      "name": "nullifierHashes",
      "outputs": [
        {
          "internalType": "bool",
          "name": "",
          "type": "bool"
        }
      ],
      "stateMutability": "view",
      "type": "function"
    },
    {
      "inputs": [],
      "name": "ownershipAccepted",
      "outputs": [],
      "stateMutability": "nonpayable",
      "type": "function"
    },
    {
      "inputs": [],
      "name": "renounceOwnership",
      "outputs": [],
      "stateMutability": "nonpayable",
      "type": "function"
    },
    {
      "inputs": [
        {
          "internalType": "uint256",
          "name": "",
          "type": "uint256"
        }
      ],
      "name": "roots",
      "outputs": [
        {
          "internalType": "bytes32",
          "name": "",
          "type": "bytes32"
        }
      ],
      "stateMutability": "view",
      "type": "function"
    },
    {
      "inputs": [
        {
          "internalType": "uint256",
          "name": "_fee",
          "type": "uint256"
        }
      ],
      "name": "setFee",
      "outputs": [],
      "stateMutability": "nonpayable",
      "type": "function"
    },
    {
      "inputs": [],
      "name": "token",
      "outputs": [
        {
          "internalType": "address",
          "name": "",
          "type": "address"
        }
      ],
      "stateMutability": "view",
      "type": "function"
    },
    {
      "inputs": [
        {
          "internalType": "address",
          "name": "newOwner",
          "type": "address"
        }
      ],
      "name": "transferOwnership",
      "outputs": [],
      "stateMutability": "nonpayable",
      "type": "function"
    },
    {
      "inputs": [],
      "name": "verifier",
      "outputs": [
        {
          "internalType": "contract IVerifier",
          "name": "",
          "type": "address"
        }
      ],
      "stateMutability": "view",
      "type": "function"
    },
    {
      "inputs": [
        {
          "internalType": "uint256[2]",
          "name": "a",
          "type": "uint256[2]"
        },
        {
          "internalType": "uint256[2][2]",
          "name": "b",
          "type": "uint256[2][2]"
        },
        {
          "internalType": "uint256[2]",
          "name": "c",
          "type": "uint256[2]"
        },
        {
          "internalType": "bytes32",
          "name": "_root",
          "type": "bytes32"
        },
        {
          "internalType": "bytes32",
          "name": "_nullifierHash",
          "type": "bytes32"
        },
        {
          "internalType": "address payable",
          "name": "_recipient",
          "type": "address"
        },
        {
          "internalType": "address payable",
          "name": "_relayer",
          "type": "address"
        },
        {
          "internalType": "uint256",
          "name": "_fee",
          "type": "uint256"
        },
        {
          "internalType": "uint256",
          "name": "_refund",
          "type": "uint256"
        }
      ],
      "name": "withdraw",
      "outputs": [],
      "stateMutability": "payable",
      "type": "function"
    },
    {
      "inputs": [
        {
          "internalType": "uint256",
          "name": "",
          "type": "uint256"
        }
      ],
      "name": "zeros",
      "outputs": [
        {
          "internalType": "bytes32",
          "name": "",
          "type": "bytes32"
        }
      ],
      "stateMutability": "view",
      "type": "function"
    }
  ],
  "bytecode": "0x60806040526000600360006101000a81548163ffffffff021916908363ffffffff1602179055506000600360046101000a81548163ffffffff021916908363ffffffff1602179055506032606f553480156200005a57600080fd5b506040516200428938038062004289833981810160405281019062000080919062000668565b8585858584818360008163ffffffff1611620000d3576040517f08c379a0000000000000000000000000000000000000000000000000000000008152600401620000ca906200078b565b60405180910390fd5b60208163ffffffff16106200011f576040517f08c379a0000000000000000000000000000000000000000000000000000000008152600401620001169062000823565b60405180910390fd5b806000806101000a81548163ffffffff021916908363ffffffff16021790555060007f2fe54c60d3acabf3343a35b6eba15db4821b340f76e741e2249685ed4899af6c60001b9050600281908060018154018082558091505060019003906000526020600020016000909190919091505560018190806001815401808255809150506001900390600052602060002001600090919091909150556000600190505b60008054906101000a900463ffffffff1663ffffffff168163ffffffff1610156200025f57620001f78283620003c260201b60201c565b91506002829080600181540180825580915050600190039060005260206000200160009091909190915055600182908060018154018082558091505060019003906000526020600020016000909190919091505580620002579062000874565b9050620001c0565b50620002728182620003c260201b60201c565b60046000606481106200028a5762000289620008a6565b5b01819055505050600160688190555080606960006101000a81548173ffffffffffffffffffffffffffffffffffffffff021916908373ffffffffffffffffffffffffffffffffffffffff160217905550506000841162000321576040517f08c379a000000000000000000000000000000000000000000000000000000000815260040162000318906200094b565b60405180910390fd5b84606e60006101000a81548173ffffffffffffffffffffffffffffffffffffffff021916908373ffffffffffffffffffffffffffffffffffffffff16021790555083606b8190555080606f81905550505050505081607060006101000a81548173ffffffffffffffffffffffffffffffffffffffff021916908373ffffffffffffffffffffffffffffffffffffffff16021790555050505050505062000bbc565b60007f30644e72e131a029b85045b68181585d2833e84879b9709143e1f593f00000018360001c106200042c576040517f08c379a00000000000000000000000000000000000000000000000000000000081526004016200042390620009bd565b60405180910390fd5b7f30644e72e131a029b85045b68181585d2833e84879b9709143e1f593f00000018260001c1062000494576040517f08c379a00000000000000000000000000000000000000000000000000000000081526004016200048b9062000a55565b60405180910390fd5b73__$9780738a116369df5fe6eb1df74865bc0a$__63299e56606040518060400160405280868152602001858152506040518263ffffffff1660e01b8152600401620004e1919062000b3c565b60206040518083038186803b158015620004fa57600080fd5b505af41580156200050f573d6000803e3d6000fd5b505050506040513d601f19601f8201168201806040525081019062000535919062000b8a565b905092915050565b600080fd5b600073ffffffffffffffffffffffffffffffffffffffff82169050919050565b60006200056f8262000542565b9050919050565b6000620005838262000562565b9050919050565b620005958162000576565b8114620005a157600080fd5b50565b600081519050620005b5816200058a565b92915050565b6000819050919050565b620005d081620005bb565b8114620005dc57600080fd5b50565b600081519050620005f081620005c5565b92915050565b600063ffffffff82169050919050565b6200061181620005f6565b81146200061d57600080fd5b50565b600081519050620006318162000606565b92915050565b620006428162000562565b81146200064e57600080fd5b50565b600081519050620006628162000637565b92915050565b60008060008060008060c087890312156200068857620006876200053d565b5b60006200069889828a01620005a4565b9650506020620006ab89828a01620005df565b9550506040620006be89828a0162000620565b9450506060620006d189828a0162000651565b9350506080620006e489828a0162000651565b92505060a0620006f789828a01620005df565b9150509295509295509295565b600082825260208201905092915050565b7f5f747265654c6576656c732073686f756c64206265206772656174657220746860008201527f616e207a65726f00000000000000000000000000000000000000000000000000602082015250565b60006200077360278362000704565b9150620007808262000715565b604082019050919050565b60006020820190508181036000830152620007a68162000764565b9050919050565b7f5f747265654c6576656c732073686f756c64206265206c657373207468616e2060008201527f3332000000000000000000000000000000000000000000000000000000000000602082015250565b60006200080b60228362000704565b91506200081882620007ad565b604082019050919050565b600060208201905081810360008301526200083e81620007fc565b9050919050565b7f4e487b7100000000000000000000000000000000000000000000000000000000600052601160045260246000fd5b60006200088182620005f6565b915063ffffffff8214156200089b576200089a62000845565b5b600182019050919050565b7f4e487b7100000000000000000000000000000000000000000000000000000000600052603260045260246000fd5b7f64656e6f6d696e6174696f6e2073686f756c642062652067726561746572207460008201527f68616e2030000000000000000000000000000000000000000000000000000000602082015250565b60006200093360258362000704565b91506200094082620008d5565b604082019050919050565b60006020820190508181036000830152620009668162000924565b9050919050565b7f5f6c6566742073686f756c6420626520696e7369646520746865206669656c64600082015250565b6000620009a560208362000704565b9150620009b2826200096d565b602082019050919050565b60006020820190508181036000830152620009d88162000996565b9050919050565b7f5f72696768742073686f756c6420626520696e7369646520746865206669656c60008201527f6400000000000000000000000000000000000000000000000000000000000000602082015250565b600062000a3d60218362000704565b915062000a4a82620009df565b604082019050919050565b6000602082019050818103600083015262000a708162000a2e565b9050919050565b600060029050919050565b600081905092915050565b6000819050919050565b6000819050919050565b62000aac8162000a97565b82525050565b600062000ac0838362000aa1565b60208301905092915050565b6000602082019050919050565b62000ae48162000a77565b62000af0818462000a82565b925062000afd8262000a8d565b8060005b8381101562000b3457815162000b18878262000ab2565b965062000b258362000acc565b92505060018101905062000b01565b505050505050565b600060408201905062000b53600083018462000ad9565b92915050565b62000b648162000a97565b811462000b7057600080fd5b50565b60008151905062000b848162000b59565b92915050565b60006020828403121562000ba35762000ba26200053d565b5b600062000bb38482850162000b73565b91505092915050565b6136bd8062000bcc6000396000f3fe6080604052600436106101815760003560e01c8063b214faa5116100d1578063e82955881161008a578063f178e47c11610064578063f178e47c14610580578063f2fde38b146105bd578063fc0c546a146105e6578063fc7e9c6f1461061157610181565b8063e829558814610501578063eb1dbc1b1461053e578063ec7329591461055557610181565b8063b214faa5146103ea578063ba70f75714610406578063c2b40ae414610431578063cd87a3b41461046e578063ddca3f4314610499578063e5285dcc146104c457610181565b806369fe0e2d1161013e578063839df94511610118578063839df9451461031a5780638bca6d161461035757806390eeb02b146103825780639fa12d0b146103ad57610181565b806369fe0e2d1461029d5780636d9833e3146102c6578063715018a61461030357610181565b806317cc915c146101865780632aa4eeec146101c35780632b7ac3f3146101df57806338bf282e1461020a578063414a37ba146102475780634ecf518b14610272575b600080fd5b34801561019257600080fd5b506101ad60048036038101906101a89190611c2c565b61063c565b6040516101ba9190611c74565b60405180910390f35b6101dd60048036038101906101d89190611f1b565b61065c565b005b3480156101eb57600080fd5b506101f4610985565b6040516102019190612049565b60405180910390f35b34801561021657600080fd5b50610231600480360381019061022c9190612064565b6109ab565b60405161023e91906120b3565b60405180910390f35b34801561025357600080fd5b5061025c610b1a565b60405161026991906120dd565b60405180910390f35b34801561027e57600080fd5b50610287610b3e565b6040516102949190612117565b60405180910390f35b3480156102a957600080fd5b506102c460048036038101906102bf9190612132565b610b52565b005b3480156102d257600080fd5b506102ed60048036038101906102e89190611c2c565b610c31565b6040516102fa9190611c74565b60405180910390f35b34801561030f57600080fd5b50610318610cdf565b005b34801561032657600080fd5b50610341600480360381019061033c9190611c2c565b610d7b565b60405161034e9190611c74565b60405180910390f35b34801561036357600080fd5b5061036c610d9b565b60405161037991906120dd565b60405180910390f35b34801561038e57600080fd5b50610397610da1565b6040516103a49190612117565b60405180910390f35b3480156103b957600080fd5b506103d460048036038101906103cf91906121ba565b610db7565b6040516103e191906122c5565b60405180910390f35b61040460048036038101906103ff9190611c2c565b610e7c565b005b34801561041257600080fd5b5061041b610fb2565b60405161042891906120b3565b60405180910390f35b34801561043d57600080fd5b5061045860048036038101906104539190612132565b610fe7565b60405161046591906120b3565b60405180910390f35b34801561047a57600080fd5b50610483611002565b6040516104909190612117565b60405180910390f35b3480156104a557600080fd5b506104ae611007565b6040516104bb91906120dd565b60405180910390f35b3480156104d057600080fd5b506104eb60048036038101906104e69190611c2c565b61100d565b6040516104f89190611c74565b60405180910390f35b34801561050d57600080fd5b5061052860048036038101906105239190612132565b611037565b60405161053591906120b3565b60405180910390f35b34801561054a57600080fd5b5061055361105b565b005b34801561056157600080fd5b5061056a611148565b60405161057791906120dd565b60405180910390f35b34801561058c57600080fd5b506105a760048036038101906105a29190612132565b61116c565b6040516105b491906120b3565b60405180910390f35b3480156105c957600080fd5b506105e460048036038101906105df9190612325565b611190565b005b3480156105f257600080fd5b506105fb6112eb565b6040516106089190612361565b60405180910390f35b34801561061d57600080fd5b50610626611311565b6040516106339190612117565b60405180910390f35b606c6020528060005260406000206000915054906101000a900460ff1681565b600260685414156106a2576040517f08c379a0000000000000000000000000000000000000000000000000000000008152600401610699906123d9565b60405180910390fd5b6002606881905550606b548211156106ef576040517f08c379a00000000000000000000000000000000000000000000000000000000081526004016106e690612445565b60405180910390fd5b606c600086815260200190815260200160002060009054906101000a900460ff1615610750576040517f08c379a0000000000000000000000000000000000000000000000000000000008152600401610747906124b1565b60405180910390fd5b61075986610c31565b610798576040517f08c379a000000000000000000000000000000000000000000000000000000000815260040161078f9061251d565b60405180910390fd5b606e60009054906101000a900473ffffffffffffffffffffffffffffffffffffffff1673ffffffffffffffffffffffffffffffffffffffff1663f398789b8a8a8a6040518060c001604052808c60001c81526020018b60001c81526020018a73ffffffffffffffffffffffffffffffffffffffff1681526020018973ffffffffffffffffffffffffffffffffffffffff168152602001888152602001878152506040518563ffffffff1660e01b8152600401610857949392919061276a565b602060405180830381600087803b15801561087157600080fd5b505af1158015610885573d6000803e3d6000fd5b505050506040513d601f19601f820116820180604052508101906108a991906127dd565b6108e8576040517f08c379a00000000000000000000000000000000000000000000000000000000081526004016108df90612856565b60405180910390fd5b6001606c600087815260200190815260200160002060006101000a81548160ff02191690831515021790555061092084848484611327565b8273ffffffffffffffffffffffffffffffffffffffff167fe9e508bad6d4c3227e881ca19068f099da81b5164dd6d62b2eaf1e8bc6c3493185878560405161096a93929190612897565b60405180910390a26001606881905550505050505050505050565b606e60009054906101000a900473ffffffffffffffffffffffffffffffffffffffff1681565b60007f30644e72e131a029b85045b68181585d2833e84879b9709143e1f593f00000018360001c10610a12576040517f08c379a0000000000000000000000000000000000000000000000000000000008152600401610a099061291a565b60405180910390fd5b7f30644e72e131a029b85045b68181585d2833e84879b9709143e1f593f00000018260001c10610a77576040517f08c379a0000000000000000000000000000000000000000000000000000000008152600401610a6e906129ac565b60405180910390fd5b73__$9780738a116369df5fe6eb1df74865bc0a$__63299e56606040518060400160405280868152602001858152506040518263ffffffff1660e01b8152600401610ac29190612a77565b60206040518083038186803b158015610ada57600080fd5b505af4158015610aee573d6000803e3d6000fd5b505050506040513d601f19601f82011682018060405250810190610b129190612aa7565b905092915050565b7f30644e72e131a029b85045b68181585d2833e84879b9709143e1f593f000000181565b60008054906101000a900463ffffffff1681565b606960009054906101000a900473ffffffffffffffffffffffffffffffffffffffff1673ffffffffffffffffffffffffffffffffffffffff163373ffffffffffffffffffffffffffffffffffffffff1614610be2576040517f08c379a0000000000000000000000000000000000000000000000000000000008152600401610bd990612b20565b60405180910390fd5b6103e8811115610c27576040517f08c379a0000000000000000000000000000000000000000000000000000000008152600401610c1e90612bb2565b60405180910390fd5b80606f8190555050565b60008060001b821415610c475760009050610cda565b6000600360009054906101000a900463ffffffff1690505b60048163ffffffff1660648110610c7957610c78612bd2565b5b0154831415610c8c576001915050610cda565b60008163ffffffff161415610ca057606490505b8080610cab90612c30565b915050600360009054906101000a900463ffffffff1663ffffffff168163ffffffff161415610c5f5760009150505b919050565b606960009054906101000a900473ffffffffffffffffffffffffffffffffffffffff1673ffffffffffffffffffffffffffffffffffffffff163373ffffffffffffffffffffffffffffffffffffffff1614610d6f576040517f08c379a0000000000000000000000000000000000000000000000000000000008152600401610d6690612b20565b60405180910390fd5b610d7960006114c1565b565b606d6020528060005260406000206000915054906101000a900460ff1681565b606b5481565b600360009054906101000a900463ffffffff1681565b60608282905067ffffffffffffffff811115610dd657610dd5611ca5565b5b604051908082528060200260200182016040528015610e045781602001602082028036833780820191505090505b50905060005b83839050811015610e7557610e37848483818110610e2b57610e2a612bd2565b5b9050602002013561100d565b15610e64576001828281518110610e5157610e50612bd2565b5b6020026020010190151590811515815250505b80610e6e90612c5a565b9050610e0a565b5092915050565b60026068541415610ec2576040517f08c379a0000000000000000000000000000000000000000000000000000000008152600401610eb9906123d9565b60405180910390fd5b6002606881905550606d600082815260200190815260200160002060009054906101000a900460ff1615610f2b576040517f08c379a0000000000000000000000000000000000000000000000000000000008152600401610f2290612d15565b60405180910390fd5b6000610f3682611581565b90506001606d600084815260200190815260200160002060006101000a81548160ff021916908315150217905550610f6c6117e5565b817fa945e51eec50ab98c161376f0db4cf2aeba3ec92755fe2fcd388bdbbb80ff1968242604051610f9e929190612d35565b60405180910390a250600160688190555050565b60006004600360009054906101000a900463ffffffff1663ffffffff1660648110610fe057610fdf612bd2565b5b0154905090565b60048160648110610ff757600080fd5b016000915090505481565b606481565b606f5481565b6000606c600083815260200190815260200160002060009054906101000a900460ff169050919050565b6002818154811061104757600080fd5b906000526020600020016000915090505481565b60011515606a60003373ffffffffffffffffffffffffffffffffffffffff1673ffffffffffffffffffffffffffffffffffffffff16815260200190815260200160002060009054906101000a900460ff161515146110ee576040517f08c379a00000000000000000000000000000000000000000000000000000000081526004016110e590612b20565b60405180910390fd5b6110f7336114c1565b606a60003373ffffffffffffffffffffffffffffffffffffffff1673ffffffffffffffffffffffffffffffffffffffff16815260200190815260200160002060006101000a81549060ff0219169055565b7f2fe54c60d3acabf3343a35b6eba15db4821b340f76e741e2249685ed4899af6c81565b6001818154811061117c57600080fd5b906000526020600020016000915090505481565b606960009054906101000a900473ffffffffffffffffffffffffffffffffffffffff1673ffffffffffffffffffffffffffffffffffffffff163373ffffffffffffffffffffffffffffffffffffffff1614611220576040517f08c379a000000000000000000000000000000000000000000000000000000000815260040161121790612b20565b60405180910390fd5b600073ffffffffffffffffffffffffffffffffffffffff168173ffffffffffffffffffffffffffffffffffffffff161415611290576040517f08c379a000000000000000000000000000000000000000000000000000000000815260040161128790612daa565b60405180910390fd5b6001606a60008373ffffffffffffffffffffffffffffffffffffffff1673ffffffffffffffffffffffffffffffffffffffff16815260200190815260200160002060006101000a81548160ff02191690831515021790555050565b607060009054906101000a900473ffffffffffffffffffffffffffffffffffffffff1681565b600360049054906101000a900463ffffffff1681565b803414611369576040517f08c379a000000000000000000000000000000000000000000000000000000000815260040161136090612e3c565b60405180910390fd5b6000612710606f54606b5461137e9190612e5c565b6113889190612ee5565b90506113ac858483606b5461139d9190612f16565b6113a79190612f16565b611837565b60008111156113e2576113e1606960009054906101000a900473ffffffffffffffffffffffffffffffffffffffff1682611837565b5b60008311156113f6576113f58484611837565b5b60008211156114ba5760008573ffffffffffffffffffffffffffffffffffffffff168360405161142590612f7b565b60006040518083038185875af1925050503d8060008114611462576040519150601f19603f3d011682016040523d82523d6000602084013e611467565b606091505b50509050806114b8578473ffffffffffffffffffffffffffffffffffffffff166108fc849081150290604051600060405180830381858888f193505050501580156114b6573d6000803e3d6000fd5b505b505b5050505050565b8073ffffffffffffffffffffffffffffffffffffffff16606960009054906101000a900473ffffffffffffffffffffffffffffffffffffffff1673ffffffffffffffffffffffffffffffffffffffff167f8be0079c531659141344cd1fd0a4f28419497f9722a3daafe3b4186f6b6457e060405160405180910390a380606960006101000a81548173ffffffffffffffffffffffffffffffffffffffff021916908373ffffffffffffffffffffffffffffffffffffffff16021790555050565b600080600360049054906101000a900463ffffffff16905060008054906101000a900463ffffffff1660026115b691906130c3565b63ffffffff168163ffffffff161415611604576040517f08c379a00000000000000000000000000000000000000000000000000000000081526004016115fb90613164565b60405180910390fd5b6001600360048282829054906101000a900463ffffffff166116269190613184565b92506101000a81548163ffffffff021916908363ffffffff160217905550600083905060008060005b60008054906101000a900463ffffffff1663ffffffff168163ffffffff16101561173d57600060028661168291906131be565b63ffffffff1614156116e65783925060028163ffffffff16815481106116ab576116aa612bd2565b5b906000526020600020015491508360018263ffffffff16815481106116d3576116d2612bd2565b5b9060005260206000200181905550611711565b60018163ffffffff1681548110611700576116ff612bd2565b5b906000526020600020015492508391505b61171b83836109ab565b935060028561172a91906131ef565b94508061173690613220565b905061164f565b5060646001600360009054906101000a900463ffffffff1661175f9190613184565b61176991906131be565b600360006101000a81548163ffffffff021916908363ffffffff160217905550826004600360009054906101000a900463ffffffff1663ffffffff16606481106117b6576117b5612bd2565b5b01819055506001600360049054906101000a900463ffffffff166117da919061324d565b945050505050919050565b60003414611828576040517f08c379a000000000000000000000000000000000000000000000000000000000815260040161181f906132f3565b60405180910390fd5b6118353330606b54611a0b565b565b600080607060009054906101000a900473ffffffffffffffffffffffffffffffffffffffff1673ffffffffffffffffffffffffffffffffffffffff1663a9059cbb858560405160240161188b929190613313565b6040516020818303038152906040529060e01b6020820180517bffffffffffffffffffffffffffffffffffffffffffffffffffffffff83818316178352505050506040516118d991906133ab565b6000604051808303816000865af19150503d8060008114611916576040519150601f19603f3d011682016040523d82523d6000602084013e61191b565b606091505b509150915081611960576040517f08c379a00000000000000000000000000000000000000000000000000000000081526004016119579061340e565b60405180910390fd5b600081511115611a055760208151146119ae576040517f08c379a00000000000000000000000000000000000000000000000000000000081526004016119a5906134a0565b60405180910390fd5b808060200190518101906119c291906127dd565b915081611a04576040517f08c379a00000000000000000000000000000000000000000000000000000000081526004016119fb90613532565b60405180910390fd5b5b50505050565b600080607060009054906101000a900473ffffffffffffffffffffffffffffffffffffffff1673ffffffffffffffffffffffffffffffffffffffff166323b872dd868686604051602401611a6193929190613552565b6040516020818303038152906040529060e01b6020820180517bffffffffffffffffffffffffffffffffffffffffffffffffffffffff8381831617835250505050604051611aaf91906133ab565b6000604051808303816000865af19150503d8060008114611aec576040519150601f19603f3d011682016040523d82523d6000602084013e611af1565b606091505b509150915081611b36576040517f08c379a0000000000000000000000000000000000000000000000000000000008152600401611b2d906135d5565b60405180910390fd5b600081511115611bdb576020815114611b84576040517f08c379a0000000000000000000000000000000000000000000000000000000008152600401611b7b906134a0565b60405180910390fd5b80806020019051810190611b9891906127dd565b915081611bda576040517f08c379a0000000000000000000000000000000000000000000000000000000008152600401611bd190613667565b60405180910390fd5b5b5050505050565b6000604051905090565b600080fd5b600080fd5b6000819050919050565b611c0981611bf6565b8114611c1457600080fd5b50565b600081359050611c2681611c00565b92915050565b600060208284031215611c4257611c41611bec565b5b6000611c5084828501611c17565b91505092915050565b60008115159050919050565b611c6e81611c59565b82525050565b6000602082019050611c896000830184611c65565b92915050565b600080fd5b6000601f19601f8301169050919050565b7f4e487b7100000000000000000000000000000000000000000000000000000000600052604160045260246000fd5b611cdd82611c94565b810181811067ffffffffffffffff82111715611cfc57611cfb611ca5565b5b80604052505050565b6000611d0f611be2565b9050611d1b8282611cd4565b919050565b600067ffffffffffffffff821115611d3b57611d3a611ca5565b5b602082029050919050565b600080fd5b6000819050919050565b611d5e81611d4b565b8114611d6957600080fd5b50565b600081359050611d7b81611d55565b92915050565b6000611d94611d8f84611d20565b611d05565b90508060208402830185811115611dae57611dad611d46565b5b835b81811015611dd75780611dc38882611d6c565b845260208401935050602081019050611db0565b5050509392505050565b600082601f830112611df657611df5611c8f565b5b6002611e03848285611d81565b91505092915050565b600067ffffffffffffffff821115611e2757611e26611ca5565b5b602082029050919050565b6000611e45611e4084611e0c565b611d05565b90508060408402830185811115611e5f57611e5e611d46565b5b835b81811015611e885780611e748882611de1565b845260208401935050604081019050611e61565b5050509392505050565b600082601f830112611ea757611ea6611c8f565b5b6002611eb4848285611e32565b91505092915050565b600073ffffffffffffffffffffffffffffffffffffffff82169050919050565b6000611ee882611ebd565b9050919050565b611ef881611edd565b8114611f0357600080fd5b50565b600081359050611f1581611eef565b92915050565b60008060008060008060008060006101c08a8c031215611f3e57611f3d611bec565b5b6000611f4c8c828d01611de1565b9950506040611f5d8c828d01611e92565b98505060c0611f6e8c828d01611de1565b975050610100611f808c828d01611c17565b965050610120611f928c828d01611c17565b955050610140611fa48c828d01611f06565b945050610160611fb68c828d01611f06565b935050610180611fc88c828d01611d6c565b9250506101a0611fda8c828d01611d6c565b9150509295985092959850929598565b6000819050919050565b600061200f61200a61200584611ebd565b611fea565b611ebd565b9050919050565b600061202182611ff4565b9050919050565b600061203382612016565b9050919050565b61204381612028565b82525050565b600060208201905061205e600083018461203a565b92915050565b6000806040838503121561207b5761207a611bec565b5b600061208985828601611c17565b925050602061209a85828601611c17565b9150509250929050565b6120ad81611bf6565b82525050565b60006020820190506120c860008301846120a4565b92915050565b6120d781611d4b565b82525050565b60006020820190506120f260008301846120ce565b92915050565b600063ffffffff82169050919050565b612111816120f8565b82525050565b600060208201905061212c6000830184612108565b92915050565b60006020828403121561214857612147611bec565b5b600061215684828501611d6c565b91505092915050565b600080fd5b60008083601f84011261217a57612179611c8f565b5b8235905067ffffffffffffffff8111156121975761219661215f565b5b6020830191508360208202830111156121b3576121b2611d46565b5b9250929050565b600080602083850312156121d1576121d0611bec565b5b600083013567ffffffffffffffff8111156121ef576121ee611bf1565b5b6121fb85828601612164565b92509250509250929050565b600081519050919050565b600082825260208201905092915050565b6000819050602082019050919050565b61223c81611c59565b82525050565b600061224e8383612233565b60208301905092915050565b6000602082019050919050565b600061227282612207565b61227c8185612212565b935061228783612223565b8060005b838110156122b857815161229f8882612242565b97506122aa8361225a565b92505060018101905061228b565b5085935050505092915050565b600060208201905081810360008301526122df8184612267565b905092915050565b60006122f282611ebd565b9050919050565b612302816122e7565b811461230d57600080fd5b50565b60008135905061231f816122f9565b92915050565b60006020828403121561233b5761233a611bec565b5b600061234984828501612310565b91505092915050565b61235b816122e7565b82525050565b60006020820190506123766000830184612352565b92915050565b600082825260208201905092915050565b7f5265656e7472616e637947756172643a207265656e7472616e742063616c6c00600082015250565b60006123c3601f8361237c565b91506123ce8261238d565b602082019050919050565b600060208201905081810360008301526123f2816123b6565b9050919050565b7f4665652065786365656473207472616e736665722076616c7565000000000000600082015250565b600061242f601a8361237c565b915061243a826123f9565b602082019050919050565b6000602082019050818103600083015261245e81612422565b9050919050565b7f546865206e6f746520686173206265656e20616c7265616479207370656e7400600082015250565b600061249b601f8361237c565b91506124a682612465565b602082019050919050565b600060208201905081810360008301526124ca8161248e565b9050919050565b7f43616e6e6f742066696e6420796f7572206d65726b6c6520726f6f7400000000600082015250565b6000612507601c8361237c565b9150612512826124d1565b602082019050919050565b60006020820190508181036000830152612536816124fa565b9050919050565b600060029050919050565b600081905092915050565b6000819050919050565b61256681611d4b565b82525050565b6000612578838361255d565b60208301905092915050565b6000602082019050919050565b61259a8161253d565b6125a48184612548565b92506125af82612553565b8060005b838110156125e05781516125c7878261256c565b96506125d283612584565b9250506001810190506125b3565b505050505050565b600060029050919050565b600081905092915050565b6000819050919050565b600081905092915050565b61261c8161253d565b6126268184612608565b925061263182612553565b8060005b83811015612662578151612649878261256c565b965061265483612584565b925050600181019050612635565b505050505050565b60006126768383612613565b60408301905092915050565b6000602082019050919050565b612698816125e8565b6126a281846125f3565b92506126ad826125fe565b8060005b838110156126de5781516126c5878261266a565b96506126d083612682565b9250506001810190506126b1565b505050505050565b600060069050919050565b600081905092915050565b6000819050919050565b6000602082019050919050565b61271c816126e6565b61272681846126f1565b9250612731826126fc565b8060005b83811015612762578151612749878261256c565b965061275483612706565b925050600181019050612735565b505050505050565b60006101c0820190506127806000830187612591565b61278d604083018661268f565b61279a60c0830185612591565b6127a8610100830184612713565b95945050505050565b6127ba81611c59565b81146127c557600080fd5b50565b6000815190506127d7816127b1565b92915050565b6000602082840312156127f3576127f2611bec565b5b6000612801848285016127c8565b91505092915050565b7f496e76616c69642077697468647261772070726f6f6600000000000000000000600082015250565b600061284060168361237c565b915061284b8261280a565b602082019050919050565b6000602082019050818103600083015261286f81612833565b9050919050565b600061288182612016565b9050919050565b61289181612876565b82525050565b60006060820190506128ac6000830186612888565b6128b960208301856120a4565b6128c660408301846120ce565b949350505050565b7f5f6c6566742073686f756c6420626520696e7369646520746865206669656c64600082015250565b600061290460208361237c565b915061290f826128ce565b602082019050919050565b60006020820190508181036000830152612933816128f7565b9050919050565b7f5f72696768742073686f756c6420626520696e7369646520746865206669656c60008201527f6400000000000000000000000000000000000000000000000000000000000000602082015250565b600061299660218361237c565b91506129a18261293a565b604082019050919050565b600060208201905081810360008301526129c581612989565b9050919050565b600060029050919050565b600081905092915050565b6000819050919050565b6129f581611bf6565b82525050565b6000612a0783836129ec565b60208301905092915050565b6000602082019050919050565b612a29816129cc565b612a3381846129d7565b9250612a3e826129e2565b8060005b83811015612a6f578151612a5687826129fb565b9650612a6183612a13565b925050600181019050612a42565b505050505050565b6000604082019050612a8c6000830184612a20565b92915050565b600081519050612aa181611c00565b92915050565b600060208284031215612abd57612abc611bec565b5b6000612acb84828501612a92565b91505092915050565b7f4e6f7420617574686f72697a6564000000000000000000000000000000000000600082015250565b6000612b0a600e8361237c565b9150612b1582612ad4565b602082019050919050565b60006020820190508181036000830152612b3981612afd565b9050919050565b7f4f70657261746f72206665652068617320746f20626520736d616c6c6572207460008201527f68616e2031302500000000000000000000000000000000000000000000000000602082015250565b6000612b9c60278361237c565b9150612ba782612b40565b604082019050919050565b60006020820190508181036000830152612bcb81612b8f565b9050919050565b7f4e487b7100000000000000000000000000000000000000000000000000000000600052603260045260246000fd5b7f4e487b7100000000000000000000000000000000000000000000000000000000600052601160045260246000fd5b6000612c3b826120f8565b91506000821415612c4f57612c4e612c01565b5b600182039050919050565b6000612c6582611d4b565b91507fffffffffffffffffffffffffffffffffffffffffffffffffffffffffffffffff821415612c9857612c97612c01565b5b600182019050919050565b7f54686520636f6d6d69746d656e7420686173206265656e207375626d6974746560008201527f6400000000000000000000000000000000000000000000000000000000000000602082015250565b6000612cff60218361237c565b9150612d0a82612ca3565b604082019050919050565b60006020820190508181036000830152612d2e81612cf2565b9050919050565b6000604082019050612d4a6000830185612108565b612d5760208301846120ce565b9392505050565b7f6f776e65722063616e6e6f74206265207a65726f206164647265737300000000600082015250565b6000612d94601c8361237c565b9150612d9f82612d5e565b602082019050919050565b60006020820190508181036000830152612dc381612d87565b9050919050565b7f496e636f727265637420726566756e6420616d6f756e7420726563656976656460008201527f2062792074686520636f6e747261637400000000000000000000000000000000602082015250565b6000612e2660308361237c565b9150612e3182612dca565b604082019050919050565b60006020820190508181036000830152612e5581612e19565b9050919050565b6000612e6782611d4b565b9150612e7283611d4b565b9250817fffffffffffffffffffffffffffffffffffffffffffffffffffffffffffffffff0483118215151615612eab57612eaa612c01565b5b828202905092915050565b7f4e487b7100000000000000000000000000000000000000000000000000000000600052601260045260246000fd5b6000612ef082611d4b565b9150612efb83611d4b565b925082612f0b57612f0a612eb6565b5b828204905092915050565b6000612f2182611d4b565b9150612f2c83611d4b565b925082821015612f3f57612f3e612c01565b5b828203905092915050565b600081905092915050565b50565b6000612f65600083612f4a565b9150612f7082612f55565b600082019050919050565b6000612f8682612f58565b9150819050919050565b60008160011c9050919050565b6000808291508390505b6001851115612fe757808604811115612fc357612fc2612c01565b5b6001851615612fd25780820291505b8081029050612fe085612f90565b9450612fa7565b94509492505050565b60008261300057600190506130bc565b8161300e57600090506130bc565b8160018114613024576002811461302e5761305d565b60019150506130bc565b60ff8411156130405761303f612c01565b5b8360020a91508482111561305757613056612c01565b5b506130bc565b5060208310610133831016604e8410600b84101617156130925782820a90508381111561308d5761308c612c01565b5b6130bc565b61309f8484846001612f9d565b925090508184048111156130b6576130b5612c01565b5b81810290505b9392505050565b60006130ce826120f8565b91506130d9836120f8565b92506130ea63ffffffff8484612ff0565b905092915050565b7f4d65726b6c6520747265652069732066756c6c2e204e6f206d6f7265206c656160008201527f66732063616e2062652061646465640000000000000000000000000000000000602082015250565b600061314e602f8361237c565b9150613159826130f2565b604082019050919050565b6000602082019050818103600083015261317d81613141565b9050919050565b600061318f826120f8565b915061319a836120f8565b92508263ffffffff038211156131b3576131b2612c01565b5b828201905092915050565b60006131c9826120f8565b91506131d4836120f8565b9250826131e4576131e3612eb6565b5b828206905092915050565b60006131fa826120f8565b9150613205836120f8565b92508261321557613214612eb6565b5b828204905092915050565b600061322b826120f8565b915063ffffffff82141561324257613241612c01565b5b600182019050919050565b6000613258826120f8565b9150613263836120f8565b92508282101561327657613275612c01565b5b828203905092915050565b7f4554482076616c756520697320737570706f73656420746f206265203020666f60008201527f7220455243323020696e7374616e636500000000000000000000000000000000602082015250565b60006132dd60308361237c565b91506132e882613281565b604082019050919050565b6000602082019050818103600083015261330c816132d0565b9050919050565b60006040820190506133286000830185612352565b61333560208301846120ce565b9392505050565b600081519050919050565b60005b8381101561336557808201518184015260208101905061334a565b83811115613374576000848401525b50505050565b60006133858261333c565b61338f8185612f4a565b935061339f818560208601613347565b80840191505092915050565b60006133b7828461337a565b915081905092915050565b7f6e6f7420656e6f75676820746f6b656e73000000000000000000000000000000600082015250565b60006133f860118361237c565b9150613403826133c2565b602082019050919050565b60006020820190508181036000830152613427816133eb565b9050919050565b7f64617461206c656e6774682073686f756c64206265206569746865722030206f60008201527f7220333220627974657300000000000000000000000000000000000000000000602082015250565b600061348a602a8361237c565b91506134958261342e565b604082019050919050565b600060208201905081810360008301526134b98161347d565b9050919050565b7f6e6f7420656e6f75676820746f6b656e732e20546f6b656e2072657475726e7360008201527f2066616c73652e00000000000000000000000000000000000000000000000000602082015250565b600061351c60278361237c565b9150613527826134c0565b604082019050919050565b6000602082019050818103600083015261354b8161350f565b9050919050565b60006060820190506135676000830186612352565b6135746020830185612352565b61358160408301846120ce565b949350505050565b7f6e6f7420656e6f75676820616c6c6f77656420746f6b656e7300000000000000600082015250565b60006135bf60198361237c565b91506135ca82613589565b602082019050919050565b600060208201905081810360008301526135ee816135b2565b9050919050565b7f6e6f7420656e6f75676820616c6c6f77656420746f6b656e732e20546f6b656e60008201527f2072657475726e732066616c73652e0000000000000000000000000000000000602082015250565b6000613651602f8361237c565b915061365c826135f5565b604082019050919050565b6000602082019050818103600083015261368081613644565b905091905056fea264697066735822122046ba4c13d2de88e5984ba9f7fa2c99709edc49d296915f4d33fcc4351c5332b764736f6c63430008090033",
  "linkReferences": {
    "contracts/MerkleTreeWithHistory.sol": {
      "Hasher": [
        {
          "length": 20,
          "start": 1174
        },
        {
          "length": 20,
          "start": 5701
        }
      ]
    }
  },
  "deployedLinkReferences": {
    "contracts/MerkleTreeWithHistory.sol": {
      "Hasher": [
        {
          "length": 20,
          "start": 2681
        }
      ]
    }
  }
}