{
  "_format": "hh-sol-artifact-1",
  "contractName": "ETHSacred",
  "sourceName": "contracts/ETHSacred.sol",
  "abi": [
    {
      "inputs": [
        {
          "internalType": "contract IVerifier",
          "name": "_verifier",
          "type": "address"
        },
        {
          "internalType": "uint256",
          "name": "_denomination",
          "type": "uint256"
        },
        {
          "internalType": "uint32",
          "name": "_merkleTreeHeight",
          "type": "uint32"
        },
        {
          "internalType": "address",
          "name": "_lendingPoolAddressProvider",
          "type": "address"
        },
        {
          "internalType": "address",
          "name": "_wETHGateway",
          "type": "address"
        },
        {
          "internalType": "address",
          "name": "_wETHToken",
          "type": "address"
        },
        {
          "internalType": "address",
          "name": "_owner",
          "type": "address"
        },
        {
          "internalType": "uint256",
          "name": "_fee",
          "type": "uint256"
        }
      ],
      "stateMutability": "nonpayable",
      "type": "constructor"
    },
    {
      "anonymous": false,
      "inputs": [
        {
          "indexed": true,
          "internalType": "bytes32",
          "name": "commitment",
          "type": "bytes32"
        },
        {
          "indexed": false,
          "internalType": "uint32",
          "name": "leafIndex",
          "type": "uint32"
        },
        {
          "indexed": false,
          "internalType": "uint256",
          "name": "timestamp",
          "type": "uint256"
        }
      ],
      "name": "Deposit",
      "type": "event"
    },
    {
      "anonymous": false,
      "inputs": [
        {
          "indexed": true,
          "internalType": "address",
          "name": "previousOwner",
          "type": "address"
        },
        {
          "indexed": true,
          "internalType": "address",
          "name": "newOwner",
          "type": "address"
        }
      ],
      "name": "OwnershipTransferred",
      "type": "event"
    },
    {
      "anonymous": false,
      "inputs": [
        {
          "indexed": false,
          "internalType": "address",
          "name": "to",
          "type": "address"
        },
        {
          "indexed": false,
          "internalType": "bytes32",
          "name": "nullifierHash",
          "type": "bytes32"
        },
        {
          "indexed": true,
          "internalType": "address",
          "name": "relayer",
          "type": "address"
        },
        {
          "indexed": false,
          "internalType": "uint256",
          "name": "fee",
          "type": "uint256"
        }
      ],
      "name": "Withdrawal",
      "type": "event"
    },
    {
      "inputs": [],
      "name": "FIELD_SIZE",
      "outputs": [
        {
          "internalType": "uint256",
          "name": "",
          "type": "uint256"
        }
      ],
      "stateMutability": "view",
      "type": "function"
    },
    {
      "inputs": [],
      "name": "ROOT_HISTORY_SIZE",
      "outputs": [
        {
          "internalType": "uint32",
          "name": "",
          "type": "uint32"
        }
      ],
      "stateMutability": "view",
      "type": "function"
    },
    {
      "inputs": [],
      "name": "ZERO_VALUE",
      "outputs": [
        {
          "internalType": "uint256",
          "name": "",
          "type": "uint256"
        }
      ],
      "stateMutability": "view",
      "type": "function"
    },
    {
      "inputs": [],
      "name": "aaveInterestsProxy",
      "outputs": [
        {
          "internalType": "address",
          "name": "",
          "type": "address"
        }
      ],
      "stateMutability": "view",
      "type": "function"
    },
    {
      "inputs": [
        {
          "internalType": "bytes32",
          "name": "",
          "type": "bytes32"
        }
      ],
      "name": "commitments",
      "outputs": [
        {
          "internalType": "bool",
          "name": "",
          "type": "bool"
        }
      ],
      "stateMutability": "view",
      "type": "function"
    },
    {
      "inputs": [],
      "name": "currentRootIndex",
      "outputs": [
        {
          "internalType": "uint32",
          "name": "",
          "type": "uint32"
        }
      ],
      "stateMutability": "view",
      "type": "function"
    },
    {
      "inputs": [],
      "name": "denomination",
      "outputs": [
        {
          "internalType": "uint256",
          "name": "",
          "type": "uint256"
        }
      ],
      "stateMutability": "view",
      "type": "function"
    },
    {
      "inputs": [
        {
          "internalType": "bytes32",
          "name": "_commitment",
          "type": "bytes32"
        }
      ],
      "name": "deposit",
      "outputs": [],
      "stateMutability": "payable",
      "type": "function"
    },
    {
      "inputs": [],
      "name": "fee",
      "outputs": [
        {
          "internalType": "uint256",
          "name": "",
          "type": "uint256"
        }
      ],
      "stateMutability": "view",
      "type": "function"
    },
    {
      "inputs": [
        {
          "internalType": "uint256",
          "name": "",
          "type": "uint256"
        }
      ],
      "name": "filledSubtrees",
      "outputs": [
        {
          "internalType": "bytes32",
          "name": "",
          "type": "bytes32"
        }
      ],
      "stateMutability": "view",
      "type": "function"
    },
    {
      "inputs": [],
      "name": "getLastRoot",
      "outputs": [
        {
          "internalType": "bytes32",
          "name": "",
          "type": "bytes32"
        }
      ],
      "stateMutability": "view",
      "type": "function"
    },
    {
      "inputs": [
        {
          "internalType": "bytes32",
          "name": "_left",
          "type": "bytes32"
        },
        {
          "internalType": "bytes32",
          "name": "_right",
          "type": "bytes32"
        }
      ],
      "name": "hashLeftRight",
      "outputs": [
        {
          "internalType": "bytes32",
          "name": "",
          "type": "bytes32"
        }
      ],
      "stateMutability": "pure",
      "type": "function"
    },
    {
      "inputs": [
        {
          "internalType": "bytes32",
          "name": "_root",
          "type": "bytes32"
        }
      ],
      "name": "isKnownRoot",
      "outputs": [
        {
          "internalType": "bool",
          "name": "",
          "type": "bool"
        }
      ],
      "stateMutability": "view",
      "type": "function"
    },
    {
      "inputs": [
        {
          "internalType": "bytes32",
          "name": "_nullifierHash",
          "type": "bytes32"
        }
      ],
      "name": "isSpent",
      "outputs": [
        {
          "internalType": "bool",
          "name": "",
          "type": "bool"
        }
      ],
      "stateMutability": "view",
      "type": "function"
    },
    {
      "inputs": [
        {
          "internalType": "bytes32[]",
          "name": "_nullifierHashes",
          "type": "bytes32[]"
        }
      ],
      "name": "isSpentArray",
      "outputs": [
        {
          "internalType": "bool[]",
          "name": "spent",
          "type": "bool[]"
        }
      ],
      "stateMutability": "view",
      "type": "function"
    },
    {
      "inputs": [],
      "name": "lendingPoolAddressProvider",
      "outputs": [
        {
          "internalType": "address",
          "name": "",
          "type": "address"
        }
      ],
      "stateMutability": "view",
      "type": "function"
    },
    {
      "inputs": [],
      "name": "levels",
      "outputs": [
        {
          "internalType": "uint32",
          "name": "",
          "type": "uint32"
        }
      ],
      "stateMutability": "view",
      "type": "function"
    },
    {
      "inputs": [],
      "name": "nextIndex",
      "outputs": [
        {
          "internalType": "uint32",
          "name": "",
          "type": "uint32"
        }
      ],
      "stateMutability": "view",
      "type": "function"
    },
    {
      "inputs": [
        {
          "internalType": "bytes32",
          "name": "",
          "type": "bytes32"
        }
      ],
      "name": "nullifierHashes",
      "outputs": [
        {
          "internalType": "bool",
          "name": "",
          "type": "bool"
        }
      ],
      "stateMutability": "view",
      "type": "function"
    },
    {
      "inputs": [],
      "name": "ownershipAccepted",
      "outputs": [],
      "stateMutability": "nonpayable",
      "type": "function"
    },
    {
      "inputs": [],
      "name": "renounceOwnership",
      "outputs": [],
      "stateMutability": "nonpayable",
      "type": "function"
    },
    {
      "inputs": [],
      "name": "revokeInvitation",
      "outputs": [],
      "stateMutability": "nonpayable",
      "type": "function"
    },
    {
      "inputs": [
        {
          "internalType": "uint256",
          "name": "",
          "type": "uint256"
        }
      ],
      "name": "roots",
      "outputs": [
        {
          "internalType": "bytes32",
          "name": "",
          "type": "bytes32"
        }
      ],
      "stateMutability": "view",
      "type": "function"
    },
    {
      "inputs": [
        {
          "internalType": "address",
          "name": "_aaveInterestsProxy",
          "type": "address"
        }
      ],
      "name": "setAaveInterestsProxy",
      "outputs": [],
      "stateMutability": "nonpayable",
      "type": "function"
    },
    {
      "inputs": [
        {
          "internalType": "uint256",
          "name": "_fee",
          "type": "uint256"
        }
      ],
      "name": "setFee",
      "outputs": [],
      "stateMutability": "nonpayable",
      "type": "function"
    },
    {
      "inputs": [],
      "name": "totalAaveInterests",
      "outputs": [
        {
          "internalType": "uint256",
          "name": "",
          "type": "uint256"
        }
      ],
      "stateMutability": "view",
      "type": "function"
    },
    {
      "inputs": [
        {
          "internalType": "address",
          "name": "newOwner",
          "type": "address"
        }
      ],
      "name": "transferOwnership",
      "outputs": [],
      "stateMutability": "nonpayable",
      "type": "function"
    },
    {
      "inputs": [],
      "name": "verifier",
      "outputs": [
        {
          "internalType": "contract IVerifier",
          "name": "",
          "type": "address"
        }
      ],
      "stateMutability": "view",
      "type": "function"
    },
    {
      "inputs": [],
      "name": "wETHGateway",
      "outputs": [
        {
          "internalType": "address",
          "name": "",
          "type": "address"
        }
      ],
      "stateMutability": "view",
      "type": "function"
    },
    {
      "inputs": [],
      "name": "wETHToken",
      "outputs": [
        {
          "internalType": "address",
          "name": "",
          "type": "address"
        }
      ],
      "stateMutability": "view",
      "type": "function"
    },
    {
      "inputs": [
        {
          "internalType": "bytes",
          "name": "_proof",
          "type": "bytes"
        },
        {
          "internalType": "bytes32",
          "name": "_root",
          "type": "bytes32"
        },
        {
          "internalType": "bytes32",
          "name": "_nullifierHash",
          "type": "bytes32"
        },
        {
          "internalType": "address payable",
          "name": "_recipient",
          "type": "address"
        },
        {
          "internalType": "address payable",
          "name": "_relayer",
          "type": "address"
        },
        {
          "internalType": "uint256",
          "name": "_fee",
          "type": "uint256"
        },
        {
          "internalType": "uint256",
          "name": "_refund",
          "type": "uint256"
        }
      ],
      "name": "withdraw",
      "outputs": [],
      "stateMutability": "payable",
      "type": "function"
    },
    {
      "inputs": [
        {
          "internalType": "uint256",
          "name": "",
          "type": "uint256"
        }
      ],
      "name": "zeros",
      "outputs": [
        {
          "internalType": "bytes32",
          "name": "",
          "type": "bytes32"
        }
      ],
      "stateMutability": "view",
      "type": "function"
    }
  ],
  "bytecode": "0x60806040526000600360006101000a81548163ffffffff021916908363ffffffff1602179055506000600360046101000a81548163ffffffff021916908363ffffffff1602179055506032606f553480156200005a57600080fd5b5060405162004734380380620047348339818101604052810190620000809190620006ec565b8787878484818360008163ffffffff1611620000d3576040517f08c379a0000000000000000000000000000000000000000000000000000000008152600401620000ca906200083c565b60405180910390fd5b60208163ffffffff16106200011f576040517f08c379a00000000000000000000000000000000000000000000000000000000081526004016200011690620008d4565b60405180910390fd5b806000806101000a81548163ffffffff021916908363ffffffff16021790555060007f2fe54c60d3acabf3343a35b6eba15db4821b340f76e741e2249685ed4899af6c60001b9050600281908060018154018082558091505060019003906000526020600020016000909190919091505560018190806001815401808255809150506001900390600052602060002001600090919091909150556000600190505b60008054906101000a900463ffffffff1663ffffffff168163ffffffff1610156200025f57620001f782836200044660201b60201c565b91506002829080600181540180825580915050600190039060005260206000200160009091909190915055600182908060018154018082558091505060019003906000526020600020016000909190919091505580620002579062000925565b9050620001c0565b506200027281826200044660201b60201c565b60046000606481106200028a576200028962000957565b5b01819055505050600160688190555080606960006101000a81548173ffffffffffffffffffffffffffffffffffffffff021916908373ffffffffffffffffffffffffffffffffffffffff160217905550506000841162000321576040517f08c379a00000000000000000000000000000000000000000000000000000000081526004016200031890620009fc565b60405180910390fd5b84606e60006101000a81548173ffffffffffffffffffffffffffffffffffffffff021916908373ffffffffffffffffffffffffffffffffffffffff16021790555083606b8190555080606f81905550505050505084607060006101000a81548173ffffffffffffffffffffffffffffffffffffffff021916908373ffffffffffffffffffffffffffffffffffffffff16021790555083607160006101000a81548173ffffffffffffffffffffffffffffffffffffffff021916908373ffffffffffffffffffffffffffffffffffffffff16021790555082607260006101000a81548173ffffffffffffffffffffffffffffffffffffffff021916908373ffffffffffffffffffffffffffffffffffffffff160217905550505050505050505062000c6d565b60007f30644e72e131a029b85045b68181585d2833e84879b9709143e1f593f00000018360001c10620004b0576040517f08c379a0000000000000000000000000000000000000000000000000000000008152600401620004a79062000a6e565b60405180910390fd5b7f30644e72e131a029b85045b68181585d2833e84879b9709143e1f593f00000018260001c1062000518576040517f08c379a00000000000000000000000000000000000000000000000000000000081526004016200050f9062000b06565b60405180910390fd5b73__$9780738a116369df5fe6eb1df74865bc0a$__63299e56606040518060400160405280868152602001858152506040518263ffffffff1660e01b815260040162000565919062000bed565b60206040518083038186803b1580156200057e57600080fd5b505af415801562000593573d6000803e3d6000fd5b505050506040513d601f19601f82011682018060405250810190620005b9919062000c3b565b905092915050565b600080fd5b600073ffffffffffffffffffffffffffffffffffffffff82169050919050565b6000620005f382620005c6565b9050919050565b60006200060782620005e6565b9050919050565b6200061981620005fa565b81146200062557600080fd5b50565b60008151905062000639816200060e565b92915050565b6000819050919050565b62000654816200063f565b81146200066057600080fd5b50565b600081519050620006748162000649565b92915050565b600063ffffffff82169050919050565b62000695816200067a565b8114620006a157600080fd5b50565b600081519050620006b5816200068a565b92915050565b620006c681620005e6565b8114620006d257600080fd5b50565b600081519050620006e681620006bb565b92915050565b600080600080600080600080610100898b03121562000710576200070f620005c1565b5b6000620007208b828c0162000628565b9850506020620007338b828c0162000663565b9750506040620007468b828c01620006a4565b9650506060620007598b828c01620006d5565b95505060806200076c8b828c01620006d5565b94505060a06200077f8b828c01620006d5565b93505060c0620007928b828c01620006d5565b92505060e0620007a58b828c0162000663565b9150509295985092959890939650565b600082825260208201905092915050565b7f5f747265654c6576656c732073686f756c64206265206772656174657220746860008201527f616e207a65726f00000000000000000000000000000000000000000000000000602082015250565b600062000824602783620007b5565b91506200083182620007c6565b604082019050919050565b60006020820190508181036000830152620008578162000815565b9050919050565b7f5f747265654c6576656c732073686f756c64206265206c657373207468616e2060008201527f3332000000000000000000000000000000000000000000000000000000000000602082015250565b6000620008bc602283620007b5565b9150620008c9826200085e565b604082019050919050565b60006020820190508181036000830152620008ef81620008ad565b9050919050565b7f4e487b7100000000000000000000000000000000000000000000000000000000600052601160045260246000fd5b600062000932826200067a565b915063ffffffff8214156200094c576200094b620008f6565b5b600182019050919050565b7f4e487b7100000000000000000000000000000000000000000000000000000000600052603260045260246000fd5b7f64656e6f6d696e6174696f6e2073686f756c642062652067726561746572207460008201527f68616e2030000000000000000000000000000000000000000000000000000000602082015250565b6000620009e4602583620007b5565b9150620009f18262000986565b604082019050919050565b6000602082019050818103600083015262000a1781620009d5565b9050919050565b7f5f6c6566742073686f756c6420626520696e7369646520746865206669656c64600082015250565b600062000a56602083620007b5565b915062000a638262000a1e565b602082019050919050565b6000602082019050818103600083015262000a898162000a47565b9050919050565b7f5f72696768742073686f756c6420626520696e7369646520746865206669656c60008201527f6400000000000000000000000000000000000000000000000000000000000000602082015250565b600062000aee602183620007b5565b915062000afb8262000a90565b604082019050919050565b6000602082019050818103600083015262000b218162000adf565b9050919050565b600060029050919050565b600081905092915050565b6000819050919050565b6000819050919050565b62000b5d8162000b48565b82525050565b600062000b71838362000b52565b60208301905092915050565b6000602082019050919050565b62000b958162000b28565b62000ba1818462000b33565b925062000bae8262000b3e565b8060005b8381101562000be557815162000bc9878262000b63565b965062000bd68362000b7d565b92505060018101905062000bb2565b505050505050565b600060408201905062000c04600083018462000b8a565b92915050565b62000c158162000b48565b811462000c2157600080fd5b50565b60008151905062000c358162000c0a565b92915050565b60006020828403121562000c545762000c53620005c1565b5b600062000c648482850162000c24565b91505092915050565b613ab78062000c7d6000396000f3fe6080604052600436106101e35760003560e01c80639fa12d0b11610102578063e5285dcc11610095578063f178e47c11610064578063f178e47c146106ce578063f2fde38b1461070b578063f9db6c4814610734578063fc7e9c6f1461075f576101e3565b8063e5285dcc14610612578063e82955881461064f578063eb1dbc1b1461068c578063ec732959146106a3576101e3565b8063c2b40ae4116100d1578063c2b40ae414610554578063cb7ae06014610591578063cd87a3b4146105bc578063ddca3f43146105e7576101e3565b80639fa12d0b146104b9578063a19dd299146104f6578063b214faa51461050d578063ba70f75714610529576101e3565b806369fe0e2d1161017a578063839df94511610149578063839df945146103fb5780638bca6d161461043857806390eeb02b1461046357806393524b171461048e576101e3565b806369fe0e2d146103535780636d9833e31461037c578063704cf425146103b9578063715018a6146103e4576101e3565b806338bf282e116101b657806338bf282e14610295578063414a37ba146102d25780634ecf518b146102fd5780636338030014610328576101e3565b806317cc915c146101e857806321a0adb61461022557806327dc4669146102415780632b7ac3f31461026a575b600080fd5b3480156101f457600080fd5b5061020f600480360381019061020a91906123a0565b61078a565b60405161021c91906123e8565b60405180910390f35b61023f600480360381019061023a91906124fc565b6107aa565b005b34801561024d57600080fd5b50610268600480360381019061026391906125fc565b610ad0565b005b34801561027657600080fd5b5061027f610ba4565b60405161028c9190612688565b60405180910390f35b3480156102a157600080fd5b506102bc60048036038101906102b791906126a3565b610bca565b6040516102c991906126f2565b60405180910390f35b3480156102de57600080fd5b506102e7610d39565b6040516102f4919061271c565b60405180910390f35b34801561030957600080fd5b50610312610d5d565b60405161031f9190612756565b60405180910390f35b34801561033457600080fd5b5061033d610d71565b60405161034a9190612780565b60405180910390f35b34801561035f57600080fd5b5061037a6004803603810190610375919061279b565b610d97565b005b34801561038857600080fd5b506103a3600480360381019061039e91906123a0565b610e76565b6040516103b091906123e8565b60405180910390f35b3480156103c557600080fd5b506103ce610f24565b6040516103db9190612780565b60405180910390f35b3480156103f057600080fd5b506103f9610f4a565b005b34801561040757600080fd5b50610422600480360381019061041d91906123a0565b610fe6565b60405161042f91906123e8565b60405180910390f35b34801561044457600080fd5b5061044d611006565b60405161045a919061271c565b60405180910390f35b34801561046f57600080fd5b5061047861100c565b6040516104859190612756565b60405180910390f35b34801561049a57600080fd5b506104a3611022565b6040516104b09190612780565b60405180910390f35b3480156104c557600080fd5b506104e060048036038101906104db919061281e565b611048565b6040516104ed9190612929565b60405180910390f35b34801561050257600080fd5b5061050b61110d565b005b610527600480360381019061052291906123a0565b6111e1565b005b34801561053557600080fd5b5061053e611317565b60405161054b91906126f2565b60405180910390f35b34801561056057600080fd5b5061057b6004803603810190610576919061279b565b61134c565b60405161058891906126f2565b60405180910390f35b34801561059d57600080fd5b506105a6611367565b6040516105b39190612780565b60405180910390f35b3480156105c857600080fd5b506105d161138d565b6040516105de9190612756565b60405180910390f35b3480156105f357600080fd5b506105fc611392565b604051610609919061271c565b60405180910390f35b34801561061e57600080fd5b50610639600480360381019061063491906123a0565b611398565b60405161064691906123e8565b60405180910390f35b34801561065b57600080fd5b506106766004803603810190610671919061279b565b6113c2565b60405161068391906126f2565b60405180910390f35b34801561069857600080fd5b506106a16113e6565b005b3480156106af57600080fd5b506106b86114c3565b6040516106c5919061271c565b60405180910390f35b3480156106da57600080fd5b506106f560048036038101906106f0919061279b565b6114e7565b60405161070291906126f2565b60405180910390f35b34801561071757600080fd5b50610732600480360381019061072d91906125fc565b61150b565b005b34801561074057600080fd5b5061074961164f565b604051610756919061271c565b60405180910390f35b34801561076b57600080fd5b50610774611655565b6040516107819190612756565b60405180910390f35b606c6020528060005260406000206000915054906101000a900460ff1681565b600260685414156107f0576040517f08c379a00000000000000000000000000000000000000000000000000000000081526004016107e7906129a8565b60405180910390fd5b6002606881905550606b5482111561083d576040517f08c379a000000000000000000000000000000000000000000000000000000000815260040161083490612a14565b60405180910390fd5b606c600086815260200190815260200160002060009054906101000a900460ff161561089e576040517f08c379a000000000000000000000000000000000000000000000000000000000815260040161089590612a80565b60405180910390fd5b6108a786610e76565b6108e6576040517f08c379a00000000000000000000000000000000000000000000000000000000081526004016108dd90612aec565b60405180910390fd5b606e60009054906101000a900473ffffffffffffffffffffffffffffffffffffffff1673ffffffffffffffffffffffffffffffffffffffff1663695ef6f989896040518060c001604052808b60001c81526020018a60001c81526020018973ffffffffffffffffffffffffffffffffffffffff1681526020018873ffffffffffffffffffffffffffffffffffffffff168152602001878152602001868152506040518463ffffffff1660e01b81526004016109a393929190612c15565b602060405180830381600087803b1580156109bd57600080fd5b505af11580156109d1573d6000803e3d6000fd5b505050506040513d601f19601f820116820180604052508101906109f59190612c73565b610a34576040517f08c379a0000000000000000000000000000000000000000000000000000000008152600401610a2b90612cec565b60405180910390fd5b6001606c600087815260200190815260200160002060006101000a81548160ff021916908315150217905550610a6c8484848461166b565b8273ffffffffffffffffffffffffffffffffffffffff167fe9e508bad6d4c3227e881ca19068f099da81b5164dd6d62b2eaf1e8bc6c34931858785604051610ab693929190612d2d565b60405180910390a260016068819055505050505050505050565b606960009054906101000a900473ffffffffffffffffffffffffffffffffffffffff1673ffffffffffffffffffffffffffffffffffffffff163373ffffffffffffffffffffffffffffffffffffffff1614610b60576040517f08c379a0000000000000000000000000000000000000000000000000000000008152600401610b5790612db0565b60405180910390fd5b80607560006101000a81548173ffffffffffffffffffffffffffffffffffffffff021916908373ffffffffffffffffffffffffffffffffffffffff16021790555050565b606e60009054906101000a900473ffffffffffffffffffffffffffffffffffffffff1681565b60007f30644e72e131a029b85045b68181585d2833e84879b9709143e1f593f00000018360001c10610c31576040517f08c379a0000000000000000000000000000000000000000000000000000000008152600401610c2890612e1c565b60405180910390fd5b7f30644e72e131a029b85045b68181585d2833e84879b9709143e1f593f00000018260001c10610c96576040517f08c379a0000000000000000000000000000000000000000000000000000000008152600401610c8d90612eae565b60405180910390fd5b73__$9780738a116369df5fe6eb1df74865bc0a$__63299e56606040518060400160405280868152602001858152506040518263ffffffff1660e01b8152600401610ce19190612f79565b60206040518083038186803b158015610cf957600080fd5b505af4158015610d0d573d6000803e3d6000fd5b505050506040513d601f19601f82011682018060405250810190610d319190612fa9565b905092915050565b7f30644e72e131a029b85045b68181585d2833e84879b9709143e1f593f000000181565b60008054906101000a900463ffffffff1681565b607060009054906101000a900473ffffffffffffffffffffffffffffffffffffffff1681565b606960009054906101000a900473ffffffffffffffffffffffffffffffffffffffff1673ffffffffffffffffffffffffffffffffffffffff163373ffffffffffffffffffffffffffffffffffffffff1614610e27576040517f08c379a0000000000000000000000000000000000000000000000000000000008152600401610e1e90612db0565b60405180910390fd5b6103e8811115610e6c576040517f08c379a0000000000000000000000000000000000000000000000000000000008152600401610e6390613048565b60405180910390fd5b80606f8190555050565b60008060001b821415610e8c5760009050610f1f565b6000600360009054906101000a900463ffffffff1690505b60048163ffffffff1660648110610ebe57610ebd613068565b5b0154831415610ed1576001915050610f1f565b60008163ffffffff161415610ee557606490505b8080610ef0906130c6565b915050600360009054906101000a900463ffffffff1663ffffffff168163ffffffff161415610ea45760009150505b919050565b607160009054906101000a900473ffffffffffffffffffffffffffffffffffffffff1681565b606960009054906101000a900473ffffffffffffffffffffffffffffffffffffffff1673ffffffffffffffffffffffffffffffffffffffff163373ffffffffffffffffffffffffffffffffffffffff1614610fda576040517f08c379a0000000000000000000000000000000000000000000000000000000008152600401610fd190612db0565b60405180910390fd5b610fe46000611af4565b565b606d6020528060005260406000206000915054906101000a900460ff1681565b606b5481565b600360009054906101000a900463ffffffff1681565b607560009054906101000a900473ffffffffffffffffffffffffffffffffffffffff1681565b60608282905067ffffffffffffffff811115611067576110666130f0565b5b6040519080825280602002602001820160405280156110955781602001602082028036833780820191505090505b50905060005b83839050811015611106576110c88484838181106110bc576110bb613068565b5b90506020020135611398565b156110f55760018282815181106110e2576110e1613068565b5b6020026020010190151590811515815250505b806110ff9061311f565b905061109b565b5092915050565b606960009054906101000a900473ffffffffffffffffffffffffffffffffffffffff1673ffffffffffffffffffffffffffffffffffffffff163373ffffffffffffffffffffffffffffffffffffffff161461119d576040517f08c379a000000000000000000000000000000000000000000000000000000000815260040161119490612db0565b60405180910390fd5b6000606a60006101000a81548173ffffffffffffffffffffffffffffffffffffffff021916908373ffffffffffffffffffffffffffffffffffffffff160217905550565b60026068541415611227576040517f08c379a000000000000000000000000000000000000000000000000000000000815260040161121e906129a8565b60405180910390fd5b6002606881905550606d600082815260200190815260200160002060009054906101000a900460ff1615611290576040517f08c379a0000000000000000000000000000000000000000000000000000000008152600401611287906131da565b60405180910390fd5b600061129b82611bb4565b90506001606d600084815260200190815260200160002060006101000a81548160ff0219169083151502179055506112d1611e18565b817fa945e51eec50ab98c161376f0db4cf2aeba3ec92755fe2fcd388bdbbb80ff19682426040516113039291906131fa565b60405180910390a250600160688190555050565b60006004600360009054906101000a900463ffffffff1663ffffffff166064811061134557611344613068565b5b0154905090565b6004816064811061135c57600080fd5b016000915090505481565b607260009054906101000a900473ffffffffffffffffffffffffffffffffffffffff1681565b606481565b606f5481565b6000606c600083815260200190815260200160002060009054906101000a900460ff169050919050565b600281815481106113d257600080fd5b906000526020600020016000915090505481565b606a60009054906101000a900473ffffffffffffffffffffffffffffffffffffffff1673ffffffffffffffffffffffffffffffffffffffff163373ffffffffffffffffffffffffffffffffffffffff1614611476576040517f08c379a000000000000000000000000000000000000000000000000000000000815260040161146d90612db0565b60405180910390fd5b61147f33611af4565b6000606a60006101000a81548173ffffffffffffffffffffffffffffffffffffffff021916908373ffffffffffffffffffffffffffffffffffffffff160217905550565b7f2fe54c60d3acabf3343a35b6eba15db4821b340f76e741e2249685ed4899af6c81565b600181815481106114f757600080fd5b906000526020600020016000915090505481565b606960009054906101000a900473ffffffffffffffffffffffffffffffffffffffff1673ffffffffffffffffffffffffffffffffffffffff163373ffffffffffffffffffffffffffffffffffffffff161461159b576040517f08c379a000000000000000000000000000000000000000000000000000000000815260040161159290612db0565b60405180910390fd5b600073ffffffffffffffffffffffffffffffffffffffff168173ffffffffffffffffffffffffffffffffffffffff16141561160b576040517f08c379a00000000000000000000000000000000000000000000000000000000081526004016116029061326f565b60405180910390fd5b80606a60006101000a81548173ffffffffffffffffffffffffffffffffffffffff021916908373ffffffffffffffffffffffffffffffffffffffff16021790555050565b60745481565b600360049054906101000a900463ffffffff1681565b600034146116ae576040517f08c379a00000000000000000000000000000000000000000000000000000000081526004016116a590613301565b60405180910390fd5b600081146116f1576040517f08c379a00000000000000000000000000000000000000000000000000000000081526004016116e890613393565b60405180910390fd5b6000607060009054906101000a900473ffffffffffffffffffffffffffffffffffffffff1673ffffffffffffffffffffffffffffffffffffffff1663026b1d5f6040518163ffffffff1660e01b815260040160206040518083038186803b15801561175b57600080fd5b505afa15801561176f573d6000803e3d6000fd5b505050506040513d601f19601f8201168201806040525081019061179391906133c8565b90506000612710606f54606b546117aa91906133f5565b6117b4919061347e565b9050607260009054906101000a900473ffffffffffffffffffffffffffffffffffffffff1673ffffffffffffffffffffffffffffffffffffffff1663095ea7b3607160009054906101000a900473ffffffffffffffffffffffffffffffffffffffff16606b546040518363ffffffff1660e01b81526004016118379291906134af565b602060405180830381600087803b15801561185157600080fd5b505af1158015611865573d6000803e3d6000fd5b505050506040513d601f19601f820116820180604052508101906118899190612c73565b6118c8576040517f08c379a00000000000000000000000000000000000000000000000000000000081526004016118bf90613524565b60405180910390fd5b607160009054906101000a900473ffffffffffffffffffffffffffffffffffffffff1673ffffffffffffffffffffffffffffffffffffffff166380500d20838684606b546119169190613544565b6119209190613544565b896040518463ffffffff1660e01b815260040161193f93929190613578565b600060405180830381600087803b15801561195957600080fd5b505af115801561196d573d6000803e3d6000fd5b505050506000811115611a2e57607160009054906101000a900473ffffffffffffffffffffffffffffffffffffffff1673ffffffffffffffffffffffffffffffffffffffff166380500d208383606960009054906101000a900473ffffffffffffffffffffffffffffffffffffffff166040518463ffffffff1660e01b81526004016119fb939291906135af565b600060405180830381600087803b158015611a1557600080fd5b505af1158015611a29573d6000803e3d6000fd5b505050505b6000841115611ac957607160009054906101000a900473ffffffffffffffffffffffffffffffffffffffff1673ffffffffffffffffffffffffffffffffffffffff166380500d208386886040518463ffffffff1660e01b8152600401611a9693929190613578565b600060405180830381600087803b158015611ab057600080fd5b505af1158015611ac4573d6000803e3d6000fd5b505050505b606b5460736000828254611add9190613544565b92505081905550611aec611fbb565b505050505050565b8073ffffffffffffffffffffffffffffffffffffffff16606960009054906101000a900473ffffffffffffffffffffffffffffffffffffffff1673ffffffffffffffffffffffffffffffffffffffff167f8be0079c531659141344cd1fd0a4f28419497f9722a3daafe3b4186f6b6457e060405160405180910390a380606960006101000a81548173ffffffffffffffffffffffffffffffffffffffff021916908373ffffffffffffffffffffffffffffffffffffffff16021790555050565b600080600360049054906101000a900463ffffffff16905060008054906101000a900463ffffffff166002611be99190613719565b63ffffffff168163ffffffff161415611c37576040517f08c379a0000000000000000000000000000000000000000000000000000000008152600401611c2e906137ba565b60405180910390fd5b6001600360048282829054906101000a900463ffffffff16611c5991906137da565b92506101000a81548163ffffffff021916908363ffffffff160217905550600083905060008060005b60008054906101000a900463ffffffff1663ffffffff168163ffffffff161015611d70576000600286611cb59190613814565b63ffffffff161415611d195783925060028163ffffffff1681548110611cde57611cdd613068565b5b906000526020600020015491508360018263ffffffff1681548110611d0657611d05613068565b5b9060005260206000200181905550611d44565b60018163ffffffff1681548110611d3357611d32613068565b5b906000526020600020015492508391505b611d4e8383610bca565b9350600285611d5d9190613845565b945080611d6990613876565b9050611c82565b5060646001600360009054906101000a900463ffffffff16611d9291906137da565b611d9c9190613814565b600360006101000a81548163ffffffff021916908363ffffffff160217905550826004600360009054906101000a900463ffffffff1663ffffffff1660648110611de957611de8613068565b5b01819055506001600360049054906101000a900463ffffffff16611e0d91906138a3565b945050505050919050565b606b543414611e5c576040517f08c379a0000000000000000000000000000000000000000000000000000000008152600401611e5390613949565b60405180910390fd5b6000607060009054906101000a900473ffffffffffffffffffffffffffffffffffffffff1673ffffffffffffffffffffffffffffffffffffffff1663026b1d5f6040518163ffffffff1660e01b815260040160206040518083038186803b158015611ec657600080fd5b505afa158015611eda573d6000803e3d6000fd5b505050506040513d601f19601f82011682018060405250810190611efe91906133c8565b9050607160009054906101000a900473ffffffffffffffffffffffffffffffffffffffff1673ffffffffffffffffffffffffffffffffffffffff1663474cf53d606b54833060006040518563ffffffff1660e01b8152600401611f63939291906139b2565b6000604051808303818588803b158015611f7c57600080fd5b505af1158015611f90573d6000803e3d6000fd5b5050505050606b5460736000828254611fa991906139e9565b92505081905550611fb8611fbb565b50565b6000607354607260009054906101000a900473ffffffffffffffffffffffffffffffffffffffff1673ffffffffffffffffffffffffffffffffffffffff166370a08231306040518263ffffffff1660e01b815260040161201b9190612780565b60206040518083038186803b15801561203357600080fd5b505afa158015612047573d6000803e3d6000fd5b505050506040513d601f19601f8201168201806040525081019061206b9190613a54565b6120759190613544565b90506000811180156120d65750600073ffffffffffffffffffffffffffffffffffffffff16607560009054906101000a900473ffffffffffffffffffffffffffffffffffffffff1673ffffffffffffffffffffffffffffffffffffffff1614155b1561235d576000607060009054906101000a900473ffffffffffffffffffffffffffffffffffffffff1673ffffffffffffffffffffffffffffffffffffffff1663026b1d5f6040518163ffffffff1660e01b815260040160206040518083038186803b15801561214557600080fd5b505afa158015612159573d6000803e3d6000fd5b505050506040513d601f19601f8201168201806040525081019061217d91906133c8565b9050607260009054906101000a900473ffffffffffffffffffffffffffffffffffffffff1673ffffffffffffffffffffffffffffffffffffffff1663095ea7b3607160009054906101000a900473ffffffffffffffffffffffffffffffffffffffff16846040518363ffffffff1660e01b81526004016121fe9291906134af565b602060405180830381600087803b15801561221857600080fd5b505af115801561222c573d6000803e3d6000fd5b505050506040513d601f19601f820116820180604052508101906122509190612c73565b61228f576040517f08c379a000000000000000000000000000000000000000000000000000000000815260040161228690613524565b60405180910390fd5b607160009054906101000a900473ffffffffffffffffffffffffffffffffffffffff1673ffffffffffffffffffffffffffffffffffffffff166380500d208284607560009054906101000a900473ffffffffffffffffffffffffffffffffffffffff166040518463ffffffff1660e01b8152600401612310939291906135af565b600060405180830381600087803b15801561232a57600080fd5b505af115801561233e573d6000803e3d6000fd5b50505050816074600082825461235491906139e9565b92505081905550505b50565b600080fd5b600080fd5b6000819050919050565b61237d8161236a565b811461238857600080fd5b50565b60008135905061239a81612374565b92915050565b6000602082840312156123b6576123b5612360565b5b60006123c48482850161238b565b91505092915050565b60008115159050919050565b6123e2816123cd565b82525050565b60006020820190506123fd60008301846123d9565b92915050565b600080fd5b600080fd5b600080fd5b60008083601f84011261242857612427612403565b5b8235905067ffffffffffffffff81111561244557612444612408565b5b6020830191508360018202830111156124615761246061240d565b5b9250929050565b600073ffffffffffffffffffffffffffffffffffffffff82169050919050565b600061249382612468565b9050919050565b6124a381612488565b81146124ae57600080fd5b50565b6000813590506124c08161249a565b92915050565b6000819050919050565b6124d9816124c6565b81146124e457600080fd5b50565b6000813590506124f6816124d0565b92915050565b60008060008060008060008060e0898b03121561251c5761251b612360565b5b600089013567ffffffffffffffff81111561253a57612539612365565b5b6125468b828c01612412565b985098505060206125598b828c0161238b565b965050604061256a8b828c0161238b565b955050606061257b8b828c016124b1565b945050608061258c8b828c016124b1565b93505060a061259d8b828c016124e7565b92505060c06125ae8b828c016124e7565b9150509295985092959890939650565b60006125c982612468565b9050919050565b6125d9816125be565b81146125e457600080fd5b50565b6000813590506125f6816125d0565b92915050565b60006020828403121561261257612611612360565b5b6000612620848285016125e7565b91505092915050565b6000819050919050565b600061264e61264961264484612468565b612629565b612468565b9050919050565b600061266082612633565b9050919050565b600061267282612655565b9050919050565b61268281612667565b82525050565b600060208201905061269d6000830184612679565b92915050565b600080604083850312156126ba576126b9612360565b5b60006126c88582860161238b565b92505060206126d98582860161238b565b9150509250929050565b6126ec8161236a565b82525050565b600060208201905061270760008301846126e3565b92915050565b612716816124c6565b82525050565b6000602082019050612731600083018461270d565b92915050565b600063ffffffff82169050919050565b61275081612737565b82525050565b600060208201905061276b6000830184612747565b92915050565b61277a816125be565b82525050565b60006020820190506127956000830184612771565b92915050565b6000602082840312156127b1576127b0612360565b5b60006127bf848285016124e7565b91505092915050565b60008083601f8401126127de576127dd612403565b5b8235905067ffffffffffffffff8111156127fb576127fa612408565b5b6020830191508360208202830111156128175761281661240d565b5b9250929050565b6000806020838503121561283557612834612360565b5b600083013567ffffffffffffffff81111561285357612852612365565b5b61285f858286016127c8565b92509250509250929050565b600081519050919050565b600082825260208201905092915050565b6000819050602082019050919050565b6128a0816123cd565b82525050565b60006128b28383612897565b60208301905092915050565b6000602082019050919050565b60006128d68261286b565b6128e08185612876565b93506128eb83612887565b8060005b8381101561291c57815161290388826128a6565b975061290e836128be565b9250506001810190506128ef565b5085935050505092915050565b6000602082019050818103600083015261294381846128cb565b905092915050565b600082825260208201905092915050565b7f5265656e7472616e637947756172643a207265656e7472616e742063616c6c00600082015250565b6000612992601f8361294b565b915061299d8261295c565b602082019050919050565b600060208201905081810360008301526129c181612985565b9050919050565b7f4665652065786365656473207472616e736665722076616c7565000000000000600082015250565b60006129fe601a8361294b565b9150612a09826129c8565b602082019050919050565b60006020820190508181036000830152612a2d816129f1565b9050919050565b7f546865206e6f746520686173206265656e20616c7265616479207370656e7400600082015250565b6000612a6a601f8361294b565b9150612a7582612a34565b602082019050919050565b60006020820190508181036000830152612a9981612a5d565b9050919050565b7f43616e6e6f742066696e6420796f7572206d65726b6c6520726f6f7400000000600082015250565b6000612ad6601c8361294b565b9150612ae182612aa0565b602082019050919050565b60006020820190508181036000830152612b0581612ac9565b9050919050565b600082825260208201905092915050565b82818337600083830152505050565b6000601f19601f8301169050919050565b6000612b498385612b0c565b9350612b56838584612b1d565b612b5f83612b2c565b840190509392505050565b600060069050919050565b600081905092915050565b6000819050919050565b612b93816124c6565b82525050565b6000612ba58383612b8a565b60208301905092915050565b6000602082019050919050565b612bc781612b6a565b612bd18184612b75565b9250612bdc82612b80565b8060005b83811015612c0d578151612bf48782612b99565b9650612bff83612bb1565b925050600181019050612be0565b505050505050565b600060e0820190508181036000830152612c30818587612b3d565b9050612c3f6020830184612bbe565b949350505050565b612c50816123cd565b8114612c5b57600080fd5b50565b600081519050612c6d81612c47565b92915050565b600060208284031215612c8957612c88612360565b5b6000612c9784828501612c5e565b91505092915050565b7f496e76616c69642077697468647261772070726f6f6600000000000000000000600082015250565b6000612cd660168361294b565b9150612ce182612ca0565b602082019050919050565b60006020820190508181036000830152612d0581612cc9565b9050919050565b6000612d1782612655565b9050919050565b612d2781612d0c565b82525050565b6000606082019050612d426000830186612d1e565b612d4f60208301856126e3565b612d5c604083018461270d565b949350505050565b7f4e6f7420617574686f72697a6564000000000000000000000000000000000000600082015250565b6000612d9a600e8361294b565b9150612da582612d64565b602082019050919050565b60006020820190508181036000830152612dc981612d8d565b9050919050565b7f5f6c6566742073686f756c6420626520696e7369646520746865206669656c64600082015250565b6000612e0660208361294b565b9150612e1182612dd0565b602082019050919050565b60006020820190508181036000830152612e3581612df9565b9050919050565b7f5f72696768742073686f756c6420626520696e7369646520746865206669656c60008201527f6400000000000000000000000000000000000000000000000000000000000000602082015250565b6000612e9860218361294b565b9150612ea382612e3c565b604082019050919050565b60006020820190508181036000830152612ec781612e8b565b9050919050565b600060029050919050565b600081905092915050565b6000819050919050565b612ef78161236a565b82525050565b6000612f098383612eee565b60208301905092915050565b6000602082019050919050565b612f2b81612ece565b612f358184612ed9565b9250612f4082612ee4565b8060005b83811015612f71578151612f588782612efd565b9650612f6383612f15565b925050600181019050612f44565b505050505050565b6000604082019050612f8e6000830184612f22565b92915050565b600081519050612fa381612374565b92915050565b600060208284031215612fbf57612fbe612360565b5b6000612fcd84828501612f94565b91505092915050565b7f4f70657261746f72206665652068617320746f20626520736d616c6c6572207460008201527f68616e2031302500000000000000000000000000000000000000000000000000602082015250565b600061303260278361294b565b915061303d82612fd6565b604082019050919050565b6000602082019050818103600083015261306181613025565b9050919050565b7f4e487b7100000000000000000000000000000000000000000000000000000000600052603260045260246000fd5b7f4e487b7100000000000000000000000000000000000000000000000000000000600052601160045260246000fd5b60006130d182612737565b915060008214156130e5576130e4613097565b5b600182039050919050565b7f4e487b7100000000000000000000000000000000000000000000000000000000600052604160045260246000fd5b600061312a826124c6565b91507fffffffffffffffffffffffffffffffffffffffffffffffffffffffffffffffff82141561315d5761315c613097565b5b600182019050919050565b7f54686520636f6d6d69746d656e7420686173206265656e207375626d6974746560008201527f6400000000000000000000000000000000000000000000000000000000000000602082015250565b60006131c460218361294b565b91506131cf82613168565b604082019050919050565b600060208201905081810360008301526131f3816131b7565b9050919050565b600060408201905061320f6000830185612747565b61321c602083018461270d565b9392505050565b7f6f776e65722063616e6e6f74206265207a65726f206164647265737300000000600082015250565b6000613259601c8361294b565b915061326482613223565b602082019050919050565b600060208201905081810360008301526132888161324c565b9050919050565b7f4d6573736167652076616c756520697320737570706f73656420746f2062652060008201527f7a65726f20666f722045544820696e7374616e63650000000000000000000000602082015250565b60006132eb60358361294b565b91506132f68261328f565b604082019050919050565b6000602082019050818103600083015261331a816132de565b9050919050565b7f526566756e642076616c756520697320737570706f73656420746f206265207a60008201527f65726f20666f722045544820696e7374616e6365000000000000000000000000602082015250565b600061337d60348361294b565b915061338882613321565b604082019050919050565b600060208201905081810360008301526133ac81613370565b9050919050565b6000815190506133c2816125d0565b92915050565b6000602082840312156133de576133dd612360565b5b60006133ec848285016133b3565b91505092915050565b6000613400826124c6565b915061340b836124c6565b9250817fffffffffffffffffffffffffffffffffffffffffffffffffffffffffffffffff048311821515161561344457613443613097565b5b828202905092915050565b7f4e487b7100000000000000000000000000000000000000000000000000000000600052601260045260246000fd5b6000613489826124c6565b9150613494836124c6565b9250826134a4576134a361344f565b5b828204905092915050565b60006040820190506134c46000830185612771565b6134d1602083018461270d565b9392505050565b7f61546f6b656e20617070726f76616c206661696c656400000000000000000000600082015250565b600061350e60168361294b565b9150613519826134d8565b602082019050919050565b6000602082019050818103600083015261353d81613501565b9050919050565b600061354f826124c6565b915061355a836124c6565b92508282101561356d5761356c613097565b5b828203905092915050565b600060608201905061358d6000830186612771565b61359a602083018561270d565b6135a76040830184612d1e565b949350505050565b60006060820190506135c46000830186612771565b6135d1602083018561270d565b6135de6040830184612771565b949350505050565b60008160011c9050919050565b6000808291508390505b600185111561363d5780860481111561361957613618613097565b5b60018516156136285780820291505b8081029050613636856135e6565b94506135fd565b94509492505050565b6000826136565760019050613712565b816136645760009050613712565b816001811461367a5760028114613684576136b3565b6001915050613712565b60ff84111561369657613695613097565b5b8360020a9150848211156136ad576136ac613097565b5b50613712565b5060208310610133831016604e8410600b84101617156136e85782820a9050838111156136e3576136e2613097565b5b613712565b6136f584848460016135f3565b9250905081840481111561370c5761370b613097565b5b81810290505b9392505050565b600061372482612737565b915061372f83612737565b925061374063ffffffff8484613646565b905092915050565b7f4d65726b6c6520747265652069732066756c6c2e204e6f206d6f7265206c656160008201527f66732063616e2062652061646465640000000000000000000000000000000000602082015250565b60006137a4602f8361294b565b91506137af82613748565b604082019050919050565b600060208201905081810360008301526137d381613797565b9050919050565b60006137e582612737565b91506137f083612737565b92508263ffffffff0382111561380957613808613097565b5b828201905092915050565b600061381f82612737565b915061382a83612737565b92508261383a5761383961344f565b5b828206905092915050565b600061385082612737565b915061385b83612737565b92508261386b5761386a61344f565b5b828204905092915050565b600061388182612737565b915063ffffffff82141561389857613897613097565b5b600182019050919050565b60006138ae82612737565b91506138b983612737565b9250828210156138cc576138cb613097565b5b828203905092915050565b7f506c656173652073656e6420606d697844656e6f6d696e6174696f6e6020455460008201527f4820616c6f6e672077697468207472616e73616374696f6e0000000000000000602082015250565b600061393360388361294b565b915061393e826138d7565b604082019050919050565b6000602082019050818103600083015261396281613926565b9050919050565b6000819050919050565b600061ffff82169050919050565b600061399c61399761399284613969565b612629565b613973565b9050919050565b6139ac81613981565b82525050565b60006060820190506139c76000830186612771565b6139d46020830185612771565b6139e160408301846139a3565b949350505050565b60006139f4826124c6565b91506139ff836124c6565b9250827fffffffffffffffffffffffffffffffffffffffffffffffffffffffffffffffff03821115613a3457613a33613097565b5b828201905092915050565b600081519050613a4e816124d0565b92915050565b600060208284031215613a6a57613a69612360565b5b6000613a7884828501613a3f565b9150509291505056fea26469706673582212201a2eb94fcdf1494c40feb98e45ab3035ddc5907d16db5e112e7d8c058d93971464736f6c63430008090033",
  "linkReferences": {
    "contracts/MerkleTreeWithHistory.sol": {
      "Hasher": [
        {
          "length": 20,
          "start": 1306
        },
        {
          "length": 20,
          "start": 6421
        }
      ]
    }
  },
  "deployedLinkReferences": {
    "contracts/MerkleTreeWithHistory.sol": {
      "Hasher": [
        {
          "length": 20,
          "start": 3224
        }
      ]
    }
  }
}