{
  "_format": "hh-sol-artifact-1",
  "contractName": "ETHSacred",
  "sourceName": "contracts/ETHSacred.sol",
  "abi": [
    {
      "inputs": [
        {
          "internalType": "contract IVerifier",
          "name": "_verifier",
          "type": "address"
        },
        {
          "internalType": "uint256",
          "name": "_denomination",
          "type": "uint256"
        },
        {
          "internalType": "uint32",
          "name": "_merkleTreeHeight",
          "type": "uint32"
        },
        {
          "internalType": "address",
          "name": "_lendingPoolAddressProvider",
          "type": "address"
        },
        {
          "internalType": "address",
          "name": "_wETHGateway",
          "type": "address"
        },
        {
          "internalType": "address",
          "name": "_wETHToken",
          "type": "address"
        },
        {
          "internalType": "address",
          "name": "_owner",
          "type": "address"
        },
        {
          "internalType": "uint256",
          "name": "_fee",
          "type": "uint256"
        }
      ],
      "stateMutability": "nonpayable",
      "type": "constructor"
    },
    {
      "anonymous": false,
      "inputs": [
        {
          "indexed": true,
          "internalType": "bytes32",
          "name": "commitment",
          "type": "bytes32"
        },
        {
          "indexed": false,
          "internalType": "uint32",
          "name": "leafIndex",
          "type": "uint32"
        },
        {
          "indexed": false,
          "internalType": "uint256",
          "name": "timestamp",
          "type": "uint256"
        }
      ],
      "name": "Deposit",
      "type": "event"
    },
    {
      "anonymous": false,
      "inputs": [
        {
          "indexed": true,
          "internalType": "address",
          "name": "previousOwner",
          "type": "address"
        },
        {
          "indexed": true,
          "internalType": "address",
          "name": "newOwner",
          "type": "address"
        }
      ],
      "name": "OwnershipTransferred",
      "type": "event"
    },
    {
      "anonymous": false,
      "inputs": [
        {
          "indexed": false,
          "internalType": "address",
          "name": "to",
          "type": "address"
        },
        {
          "indexed": false,
          "internalType": "bytes32",
          "name": "nullifierHash",
          "type": "bytes32"
        },
        {
          "indexed": true,
          "internalType": "address",
          "name": "relayer",
          "type": "address"
        },
        {
          "indexed": false,
          "internalType": "uint256",
          "name": "fee",
          "type": "uint256"
        }
      ],
      "name": "Withdrawal",
      "type": "event"
    },
    {
      "inputs": [],
      "name": "FIELD_SIZE",
      "outputs": [
        {
          "internalType": "uint256",
          "name": "",
          "type": "uint256"
        }
      ],
      "stateMutability": "view",
      "type": "function"
    },
    {
      "inputs": [],
      "name": "ROOT_HISTORY_SIZE",
      "outputs": [
        {
          "internalType": "uint32",
          "name": "",
          "type": "uint32"
        }
      ],
      "stateMutability": "view",
      "type": "function"
    },
    {
      "inputs": [],
      "name": "ZERO_VALUE",
      "outputs": [
        {
          "internalType": "uint256",
          "name": "",
          "type": "uint256"
        }
      ],
      "stateMutability": "view",
      "type": "function"
    },
    {
      "inputs": [],
      "name": "aaveInterestsProxy",
      "outputs": [
        {
          "internalType": "address",
          "name": "",
          "type": "address"
        }
      ],
      "stateMutability": "view",
      "type": "function"
    },
    {
      "inputs": [
        {
          "internalType": "bytes32",
          "name": "",
          "type": "bytes32"
        }
      ],
      "name": "commitments",
      "outputs": [
        {
          "internalType": "bool",
          "name": "",
          "type": "bool"
        }
      ],
      "stateMutability": "view",
      "type": "function"
    },
    {
      "inputs": [],
      "name": "currentRootIndex",
      "outputs": [
        {
          "internalType": "uint32",
          "name": "",
          "type": "uint32"
        }
      ],
      "stateMutability": "view",
      "type": "function"
    },
    {
      "inputs": [],
      "name": "denomination",
      "outputs": [
        {
          "internalType": "uint256",
          "name": "",
          "type": "uint256"
        }
      ],
      "stateMutability": "view",
      "type": "function"
    },
    {
      "inputs": [
        {
          "internalType": "bytes32",
          "name": "_commitment",
          "type": "bytes32"
        }
      ],
      "name": "deposit",
      "outputs": [],
      "stateMutability": "payable",
      "type": "function"
    },
    {
      "inputs": [],
      "name": "fee",
      "outputs": [
        {
          "internalType": "uint256",
          "name": "",
          "type": "uint256"
        }
      ],
      "stateMutability": "view",
      "type": "function"
    },
    {
      "inputs": [
        {
          "internalType": "uint256",
          "name": "",
          "type": "uint256"
        }
      ],
      "name": "filledSubtrees",
      "outputs": [
        {
          "internalType": "bytes32",
          "name": "",
          "type": "bytes32"
        }
      ],
      "stateMutability": "view",
      "type": "function"
    },
    {
      "inputs": [],
      "name": "getLastRoot",
      "outputs": [
        {
          "internalType": "bytes32",
          "name": "",
          "type": "bytes32"
        }
      ],
      "stateMutability": "view",
      "type": "function"
    },
    {
      "inputs": [
        {
          "internalType": "bytes32",
          "name": "_left",
          "type": "bytes32"
        },
        {
          "internalType": "bytes32",
          "name": "_right",
          "type": "bytes32"
        }
      ],
      "name": "hashLeftRight",
      "outputs": [
        {
          "internalType": "bytes32",
          "name": "",
          "type": "bytes32"
        }
      ],
      "stateMutability": "pure",
      "type": "function"
    },
    {
      "inputs": [
        {
          "internalType": "bytes32",
          "name": "_root",
          "type": "bytes32"
        }
      ],
      "name": "isKnownRoot",
      "outputs": [
        {
          "internalType": "bool",
          "name": "",
          "type": "bool"
        }
      ],
      "stateMutability": "view",
      "type": "function"
    },
    {
      "inputs": [
        {
          "internalType": "bytes32",
          "name": "_nullifierHash",
          "type": "bytes32"
        }
      ],
      "name": "isSpent",
      "outputs": [
        {
          "internalType": "bool",
          "name": "",
          "type": "bool"
        }
      ],
      "stateMutability": "view",
      "type": "function"
    },
    {
      "inputs": [
        {
          "internalType": "bytes32[]",
          "name": "_nullifierHashes",
          "type": "bytes32[]"
        }
      ],
      "name": "isSpentArray",
      "outputs": [
        {
          "internalType": "bool[]",
          "name": "spent",
          "type": "bool[]"
        }
      ],
      "stateMutability": "view",
      "type": "function"
    },
    {
      "inputs": [],
      "name": "lendingPoolAddressProvider",
      "outputs": [
        {
          "internalType": "address",
          "name": "",
          "type": "address"
        }
      ],
      "stateMutability": "view",
      "type": "function"
    },
    {
      "inputs": [],
      "name": "levels",
      "outputs": [
        {
          "internalType": "uint32",
          "name": "",
          "type": "uint32"
        }
      ],
      "stateMutability": "view",
      "type": "function"
    },
    {
      "inputs": [],
      "name": "nextIndex",
      "outputs": [
        {
          "internalType": "uint32",
          "name": "",
          "type": "uint32"
        }
      ],
      "stateMutability": "view",
      "type": "function"
    },
    {
      "inputs": [
        {
          "internalType": "bytes32",
          "name": "",
          "type": "bytes32"
        }
      ],
      "name": "nullifierHashes",
      "outputs": [
        {
          "internalType": "bool",
          "name": "",
          "type": "bool"
        }
      ],
      "stateMutability": "view",
      "type": "function"
    },
    {
      "inputs": [],
      "name": "ownershipAccepted",
      "outputs": [],
      "stateMutability": "nonpayable",
      "type": "function"
    },
    {
      "inputs": [],
      "name": "renounceOwnership",
      "outputs": [],
      "stateMutability": "nonpayable",
      "type": "function"
    },
    {
      "inputs": [
        {
          "internalType": "uint256",
          "name": "",
          "type": "uint256"
        }
      ],
      "name": "roots",
      "outputs": [
        {
          "internalType": "bytes32",
          "name": "",
          "type": "bytes32"
        }
      ],
      "stateMutability": "view",
      "type": "function"
    },
    {
      "inputs": [
        {
          "internalType": "address",
          "name": "_aaveInterestsProxy",
          "type": "address"
        }
      ],
      "name": "setAaveInterestsProxy",
      "outputs": [],
      "stateMutability": "nonpayable",
      "type": "function"
    },
    {
      "inputs": [
        {
          "internalType": "uint256",
          "name": "_fee",
          "type": "uint256"
        }
      ],
      "name": "setFee",
      "outputs": [],
      "stateMutability": "nonpayable",
      "type": "function"
    },
    {
      "inputs": [],
      "name": "totalAaveInterests",
      "outputs": [
        {
          "internalType": "uint256",
          "name": "",
          "type": "uint256"
        }
      ],
      "stateMutability": "view",
      "type": "function"
    },
    {
      "inputs": [
        {
          "internalType": "address",
          "name": "newOwner",
          "type": "address"
        }
      ],
      "name": "transferOwnership",
      "outputs": [],
      "stateMutability": "nonpayable",
      "type": "function"
    },
    {
      "inputs": [],
      "name": "verifier",
      "outputs": [
        {
          "internalType": "contract IVerifier",
          "name": "",
          "type": "address"
        }
      ],
      "stateMutability": "view",
      "type": "function"
    },
    {
      "inputs": [],
      "name": "wETHGateway",
      "outputs": [
        {
          "internalType": "address",
          "name": "",
          "type": "address"
        }
      ],
      "stateMutability": "view",
      "type": "function"
    },
    {
      "inputs": [],
      "name": "wETHToken",
      "outputs": [
        {
          "internalType": "address",
          "name": "",
          "type": "address"
        }
      ],
      "stateMutability": "view",
      "type": "function"
    },
    {
      "inputs": [
        {
          "internalType": "uint256[2]",
          "name": "a",
          "type": "uint256[2]"
        },
        {
          "internalType": "uint256[2][2]",
          "name": "b",
          "type": "uint256[2][2]"
        },
        {
          "internalType": "uint256[2]",
          "name": "c",
          "type": "uint256[2]"
        },
        {
          "internalType": "bytes32",
          "name": "_root",
          "type": "bytes32"
        },
        {
          "internalType": "bytes32",
          "name": "_nullifierHash",
          "type": "bytes32"
        },
        {
          "internalType": "address payable",
          "name": "_recipient",
          "type": "address"
        },
        {
          "internalType": "address payable",
          "name": "_relayer",
          "type": "address"
        },
        {
          "internalType": "uint256",
          "name": "_fee",
          "type": "uint256"
        },
        {
          "internalType": "uint256",
          "name": "_refund",
          "type": "uint256"
        }
      ],
      "name": "withdraw",
      "outputs": [],
      "stateMutability": "payable",
      "type": "function"
    },
    {
      "inputs": [
        {
          "internalType": "uint256",
          "name": "",
          "type": "uint256"
        }
      ],
      "name": "zeros",
      "outputs": [
        {
          "internalType": "bytes32",
          "name": "",
          "type": "bytes32"
        }
      ],
      "stateMutability": "view",
      "type": "function"
    }
  ],
  "bytecode": "0x60806040526000600360006101000a81548163ffffffff021916908363ffffffff1602179055506000600360046101000a81548163ffffffff021916908363ffffffff1602179055506032606f553480156200005a57600080fd5b5060405162004921380380620049218339818101604052810190620000809190620006ec565b8787878484818360008163ffffffff1611620000d3576040517f08c379a0000000000000000000000000000000000000000000000000000000008152600401620000ca906200083c565b60405180910390fd5b60208163ffffffff16106200011f576040517f08c379a00000000000000000000000000000000000000000000000000000000081526004016200011690620008d4565b60405180910390fd5b806000806101000a81548163ffffffff021916908363ffffffff16021790555060007f2fe54c60d3acabf3343a35b6eba15db4821b340f76e741e2249685ed4899af6c60001b9050600281908060018154018082558091505060019003906000526020600020016000909190919091505560018190806001815401808255809150506001900390600052602060002001600090919091909150556000600190505b60008054906101000a900463ffffffff1663ffffffff168163ffffffff1610156200025f57620001f782836200044660201b60201c565b91506002829080600181540180825580915050600190039060005260206000200160009091909190915055600182908060018154018082558091505060019003906000526020600020016000909190919091505580620002579062000925565b9050620001c0565b506200027281826200044660201b60201c565b60046000606481106200028a576200028962000957565b5b01819055505050600160688190555080606960006101000a81548173ffffffffffffffffffffffffffffffffffffffff021916908373ffffffffffffffffffffffffffffffffffffffff160217905550506000841162000321576040517f08c379a00000000000000000000000000000000000000000000000000000000081526004016200031890620009fc565b60405180910390fd5b84606e60006101000a81548173ffffffffffffffffffffffffffffffffffffffff021916908373ffffffffffffffffffffffffffffffffffffffff16021790555083606b8190555080606f81905550505050505084607060006101000a81548173ffffffffffffffffffffffffffffffffffffffff021916908373ffffffffffffffffffffffffffffffffffffffff16021790555083607160006101000a81548173ffffffffffffffffffffffffffffffffffffffff021916908373ffffffffffffffffffffffffffffffffffffffff16021790555082607260006101000a81548173ffffffffffffffffffffffffffffffffffffffff021916908373ffffffffffffffffffffffffffffffffffffffff160217905550505050505050505062000c6d565b60007f30644e72e131a029b85045b68181585d2833e84879b9709143e1f593f00000018360001c10620004b0576040517f08c379a0000000000000000000000000000000000000000000000000000000008152600401620004a79062000a6e565b60405180910390fd5b7f30644e72e131a029b85045b68181585d2833e84879b9709143e1f593f00000018260001c1062000518576040517f08c379a00000000000000000000000000000000000000000000000000000000081526004016200050f9062000b06565b60405180910390fd5b73__$9780738a116369df5fe6eb1df74865bc0a$__63299e56606040518060400160405280868152602001858152506040518263ffffffff1660e01b815260040162000565919062000bed565b60206040518083038186803b1580156200057e57600080fd5b505af415801562000593573d6000803e3d6000fd5b505050506040513d601f19601f82011682018060405250810190620005b9919062000c3b565b905092915050565b600080fd5b600073ffffffffffffffffffffffffffffffffffffffff82169050919050565b6000620005f382620005c6565b9050919050565b60006200060782620005e6565b9050919050565b6200061981620005fa565b81146200062557600080fd5b50565b60008151905062000639816200060e565b92915050565b6000819050919050565b62000654816200063f565b81146200066057600080fd5b50565b600081519050620006748162000649565b92915050565b600063ffffffff82169050919050565b62000695816200067a565b8114620006a157600080fd5b50565b600081519050620006b5816200068a565b92915050565b620006c681620005e6565b8114620006d257600080fd5b50565b600081519050620006e681620006bb565b92915050565b600080600080600080600080610100898b03121562000710576200070f620005c1565b5b6000620007208b828c0162000628565b9850506020620007338b828c0162000663565b9750506040620007468b828c01620006a4565b9650506060620007598b828c01620006d5565b95505060806200076c8b828c01620006d5565b94505060a06200077f8b828c01620006d5565b93505060c0620007928b828c01620006d5565b92505060e0620007a58b828c0162000663565b9150509295985092959890939650565b600082825260208201905092915050565b7f5f747265654c6576656c732073686f756c64206265206772656174657220746860008201527f616e207a65726f00000000000000000000000000000000000000000000000000602082015250565b600062000824602783620007b5565b91506200083182620007c6565b604082019050919050565b60006020820190508181036000830152620008578162000815565b9050919050565b7f5f747265654c6576656c732073686f756c64206265206c657373207468616e2060008201527f3332000000000000000000000000000000000000000000000000000000000000602082015250565b6000620008bc602283620007b5565b9150620008c9826200085e565b604082019050919050565b60006020820190508181036000830152620008ef81620008ad565b9050919050565b7f4e487b7100000000000000000000000000000000000000000000000000000000600052601160045260246000fd5b600062000932826200067a565b915063ffffffff8214156200094c576200094b620008f6565b5b600182019050919050565b7f4e487b7100000000000000000000000000000000000000000000000000000000600052603260045260246000fd5b7f64656e6f6d696e6174696f6e2073686f756c642062652067726561746572207460008201527f68616e2030000000000000000000000000000000000000000000000000000000602082015250565b6000620009e4602583620007b5565b9150620009f18262000986565b604082019050919050565b6000602082019050818103600083015262000a1781620009d5565b9050919050565b7f5f6c6566742073686f756c6420626520696e7369646520746865206669656c64600082015250565b600062000a56602083620007b5565b915062000a638262000a1e565b602082019050919050565b6000602082019050818103600083015262000a898162000a47565b9050919050565b7f5f72696768742073686f756c6420626520696e7369646520746865206669656c60008201527f6400000000000000000000000000000000000000000000000000000000000000602082015250565b600062000aee602183620007b5565b915062000afb8262000a90565b604082019050919050565b6000602082019050818103600083015262000b218162000adf565b9050919050565b600060029050919050565b600081905092915050565b6000819050919050565b6000819050919050565b62000b5d8162000b48565b82525050565b600062000b71838362000b52565b60208301905092915050565b6000602082019050919050565b62000b958162000b28565b62000ba1818462000b33565b925062000bae8262000b3e565b8060005b8381101562000be557815162000bc9878262000b63565b965062000bd68362000b7d565b92505060018101905062000bb2565b505050505050565b600060408201905062000c04600083018462000b8a565b92915050565b62000c158162000b48565b811462000c2157600080fd5b50565b60008151905062000c358162000c0a565b92915050565b60006020828403121562000c545762000c53620005c1565b5b600062000c648482850162000c24565b91505092915050565b613ca48062000c7d6000396000f3fe6080604052600436106101d85760003560e01c806393524b1711610102578063e5285dcc11610095578063f178e47c11610064578063f178e47c146106ac578063f2fde38b146106e9578063f9db6c4814610712578063fc7e9c6f1461073d576101d8565b8063e5285dcc146105f0578063e82955881461062d578063eb1dbc1b1461066a578063ec73295914610681576101d8565b8063c2b40ae4116100d1578063c2b40ae414610532578063cb7ae0601461056f578063cd87a3b41461059a578063ddca3f43146105c5576101d8565b806393524b17146104835780639fa12d0b146104ae578063b214faa5146104eb578063ba70f75714610507576101d8565b8063633803001161017a578063715018a611610149578063715018a6146103d9578063839df945146103f05780638bca6d161461042d57806390eeb02b14610458576101d8565b8063633803001461031d57806369fe0e2d146103485780636d9833e314610371578063704cf425146103ae576101d8565b80632b7ac3f3116101b65780632b7ac3f31461025f57806338bf282e1461028a578063414a37ba146102c75780634ecf518b146102f2576101d8565b806317cc915c146101dd57806327dc46691461021a5780632aa4eeec14610243575b600080fd5b3480156101e957600080fd5b5061020460048036038101906101ff91906122de565b610768565b6040516102119190612326565b60405180910390f35b34801561022657600080fd5b50610241600480360381019061023c919061239f565b610788565b005b61025d60048036038101906102589190612638565b61085c565b005b34801561026b57600080fd5b50610274610b85565b6040516102819190612766565b60405180910390f35b34801561029657600080fd5b506102b160048036038101906102ac9190612781565b610bab565b6040516102be91906127d0565b60405180910390f35b3480156102d357600080fd5b506102dc610d1a565b6040516102e991906127fa565b60405180910390f35b3480156102fe57600080fd5b50610307610d3e565b6040516103149190612834565b60405180910390f35b34801561032957600080fd5b50610332610d52565b60405161033f919061285e565b60405180910390f35b34801561035457600080fd5b5061036f600480360381019061036a9190612879565b610d78565b005b34801561037d57600080fd5b50610398600480360381019061039391906122de565b610e57565b6040516103a59190612326565b60405180910390f35b3480156103ba57600080fd5b506103c3610f05565b6040516103d0919061285e565b60405180910390f35b3480156103e557600080fd5b506103ee610f2b565b005b3480156103fc57600080fd5b50610417600480360381019061041291906122de565b610fc7565b6040516104249190612326565b60405180910390f35b34801561043957600080fd5b50610442610fe7565b60405161044f91906127fa565b60405180910390f35b34801561046457600080fd5b5061046d610fed565b60405161047a9190612834565b60405180910390f35b34801561048f57600080fd5b50610498611003565b6040516104a5919061285e565b60405180910390f35b3480156104ba57600080fd5b506104d560048036038101906104d09190612901565b611029565b6040516104e29190612a0c565b60405180910390f35b610505600480360381019061050091906122de565b6110ee565b005b34801561051357600080fd5b5061051c611224565b60405161052991906127d0565b60405180910390f35b34801561053e57600080fd5b5061055960048036038101906105549190612879565b611259565b60405161056691906127d0565b60405180910390f35b34801561057b57600080fd5b50610584611274565b604051610591919061285e565b60405180910390f35b3480156105a657600080fd5b506105af61129a565b6040516105bc9190612834565b60405180910390f35b3480156105d157600080fd5b506105da61129f565b6040516105e791906127fa565b60405180910390f35b3480156105fc57600080fd5b50610617600480360381019061061291906122de565b6112a5565b6040516106249190612326565b60405180910390f35b34801561063957600080fd5b50610654600480360381019061064f9190612879565b6112cf565b60405161066191906127d0565b60405180910390f35b34801561067657600080fd5b5061067f6112f3565b005b34801561068d57600080fd5b506106966113e0565b6040516106a391906127fa565b60405180910390f35b3480156106b857600080fd5b506106d360048036038101906106ce9190612879565b611404565b6040516106e091906127d0565b60405180910390f35b3480156106f557600080fd5b50610710600480360381019061070b919061239f565b611428565b005b34801561071e57600080fd5b50610727611583565b60405161073491906127fa565b60405180910390f35b34801561074957600080fd5b50610752611589565b60405161075f9190612834565b60405180910390f35b606c6020528060005260406000206000915054906101000a900460ff1681565b606960009054906101000a900473ffffffffffffffffffffffffffffffffffffffff1673ffffffffffffffffffffffffffffffffffffffff163373ffffffffffffffffffffffffffffffffffffffff1614610818576040517f08c379a000000000000000000000000000000000000000000000000000000000815260040161080f90612a8b565b60405180910390fd5b80607560006101000a81548173ffffffffffffffffffffffffffffffffffffffff021916908373ffffffffffffffffffffffffffffffffffffffff16021790555050565b600260685414156108a2576040517f08c379a000000000000000000000000000000000000000000000000000000000815260040161089990612af7565b60405180910390fd5b6002606881905550606b548211156108ef576040517f08c379a00000000000000000000000000000000000000000000000000000000081526004016108e690612b63565b60405180910390fd5b606c600086815260200190815260200160002060009054906101000a900460ff1615610950576040517f08c379a000000000000000000000000000000000000000000000000000000000815260040161094790612bcf565b60405180910390fd5b61095986610e57565b610998576040517f08c379a000000000000000000000000000000000000000000000000000000000815260040161098f90612c3b565b60405180910390fd5b606e60009054906101000a900473ffffffffffffffffffffffffffffffffffffffff1673ffffffffffffffffffffffffffffffffffffffff1663f398789b8a8a8a6040518060c001604052808c60001c81526020018b60001c81526020018a73ffffffffffffffffffffffffffffffffffffffff1681526020018973ffffffffffffffffffffffffffffffffffffffff168152602001888152602001878152506040518563ffffffff1660e01b8152600401610a579493929190612e88565b602060405180830381600087803b158015610a7157600080fd5b505af1158015610a85573d6000803e3d6000fd5b505050506040513d601f19601f82011682018060405250810190610aa99190612efb565b610ae8576040517f08c379a0000000000000000000000000000000000000000000000000000000008152600401610adf90612f74565b60405180910390fd5b6001606c600087815260200190815260200160002060006101000a81548160ff021916908315150217905550610b208484848461159f565b8273ffffffffffffffffffffffffffffffffffffffff167fe9e508bad6d4c3227e881ca19068f099da81b5164dd6d62b2eaf1e8bc6c34931858785604051610b6a93929190612fb5565b60405180910390a26001606881905550505050505050505050565b606e60009054906101000a900473ffffffffffffffffffffffffffffffffffffffff1681565b60007f30644e72e131a029b85045b68181585d2833e84879b9709143e1f593f00000018360001c10610c12576040517f08c379a0000000000000000000000000000000000000000000000000000000008152600401610c0990613038565b60405180910390fd5b7f30644e72e131a029b85045b68181585d2833e84879b9709143e1f593f00000018260001c10610c77576040517f08c379a0000000000000000000000000000000000000000000000000000000008152600401610c6e906130ca565b60405180910390fd5b73__$9780738a116369df5fe6eb1df74865bc0a$__63299e56606040518060400160405280868152602001858152506040518263ffffffff1660e01b8152600401610cc29190613195565b60206040518083038186803b158015610cda57600080fd5b505af4158015610cee573d6000803e3d6000fd5b505050506040513d601f19601f82011682018060405250810190610d1291906131c5565b905092915050565b7f30644e72e131a029b85045b68181585d2833e84879b9709143e1f593f000000181565b60008054906101000a900463ffffffff1681565b607060009054906101000a900473ffffffffffffffffffffffffffffffffffffffff1681565b606960009054906101000a900473ffffffffffffffffffffffffffffffffffffffff1673ffffffffffffffffffffffffffffffffffffffff163373ffffffffffffffffffffffffffffffffffffffff1614610e08576040517f08c379a0000000000000000000000000000000000000000000000000000000008152600401610dff90612a8b565b60405180910390fd5b6103e8811115610e4d576040517f08c379a0000000000000000000000000000000000000000000000000000000008152600401610e4490613264565b60405180910390fd5b80606f8190555050565b60008060001b821415610e6d5760009050610f00565b6000600360009054906101000a900463ffffffff1690505b60048163ffffffff1660648110610e9f57610e9e613284565b5b0154831415610eb2576001915050610f00565b60008163ffffffff161415610ec657606490505b8080610ed1906132e2565b915050600360009054906101000a900463ffffffff1663ffffffff168163ffffffff161415610e855760009150505b919050565b607160009054906101000a900473ffffffffffffffffffffffffffffffffffffffff1681565b606960009054906101000a900473ffffffffffffffffffffffffffffffffffffffff1673ffffffffffffffffffffffffffffffffffffffff163373ffffffffffffffffffffffffffffffffffffffff1614610fbb576040517f08c379a0000000000000000000000000000000000000000000000000000000008152600401610fb290612a8b565b60405180910390fd5b610fc56000611a28565b565b606d6020528060005260406000206000915054906101000a900460ff1681565b606b5481565b600360009054906101000a900463ffffffff1681565b607560009054906101000a900473ffffffffffffffffffffffffffffffffffffffff1681565b60608282905067ffffffffffffffff811115611048576110476123e2565b5b6040519080825280602002602001820160405280156110765781602001602082028036833780820191505090505b50905060005b838390508110156110e7576110a984848381811061109d5761109c613284565b5b905060200201356112a5565b156110d65760018282815181106110c3576110c2613284565b5b6020026020010190151590811515815250505b806110e09061330c565b905061107c565b5092915050565b60026068541415611134576040517f08c379a000000000000000000000000000000000000000000000000000000000815260040161112b90612af7565b60405180910390fd5b6002606881905550606d600082815260200190815260200160002060009054906101000a900460ff161561119d576040517f08c379a0000000000000000000000000000000000000000000000000000000008152600401611194906133c7565b60405180910390fd5b60006111a882611ae8565b90506001606d600084815260200190815260200160002060006101000a81548160ff0219169083151502179055506111de611d4c565b817fa945e51eec50ab98c161376f0db4cf2aeba3ec92755fe2fcd388bdbbb80ff19682426040516112109291906133e7565b60405180910390a250600160688190555050565b60006004600360009054906101000a900463ffffffff1663ffffffff166064811061125257611251613284565b5b0154905090565b6004816064811061126957600080fd5b016000915090505481565b607260009054906101000a900473ffffffffffffffffffffffffffffffffffffffff1681565b606481565b606f5481565b6000606c600083815260200190815260200160002060009054906101000a900460ff169050919050565b600281815481106112df57600080fd5b906000526020600020016000915090505481565b60011515606a60003373ffffffffffffffffffffffffffffffffffffffff1673ffffffffffffffffffffffffffffffffffffffff16815260200190815260200160002060009054906101000a900460ff16151514611386576040517f08c379a000000000000000000000000000000000000000000000000000000000815260040161137d90612a8b565b60405180910390fd5b61138f33611a28565b606a60003373ffffffffffffffffffffffffffffffffffffffff1673ffffffffffffffffffffffffffffffffffffffff16815260200190815260200160002060006101000a81549060ff0219169055565b7f2fe54c60d3acabf3343a35b6eba15db4821b340f76e741e2249685ed4899af6c81565b6001818154811061141457600080fd5b906000526020600020016000915090505481565b606960009054906101000a900473ffffffffffffffffffffffffffffffffffffffff1673ffffffffffffffffffffffffffffffffffffffff163373ffffffffffffffffffffffffffffffffffffffff16146114b8576040517f08c379a00000000000000000000000000000000000000000000000000000000081526004016114af90612a8b565b60405180910390fd5b600073ffffffffffffffffffffffffffffffffffffffff168173ffffffffffffffffffffffffffffffffffffffff161415611528576040517f08c379a000000000000000000000000000000000000000000000000000000000815260040161151f9061345c565b60405180910390fd5b6001606a60008373ffffffffffffffffffffffffffffffffffffffff1673ffffffffffffffffffffffffffffffffffffffff16815260200190815260200160002060006101000a81548160ff02191690831515021790555050565b60745481565b600360049054906101000a900463ffffffff1681565b600034146115e2576040517f08c379a00000000000000000000000000000000000000000000000000000000081526004016115d9906134ee565b60405180910390fd5b60008114611625576040517f08c379a000000000000000000000000000000000000000000000000000000000815260040161161c90613580565b60405180910390fd5b6000607060009054906101000a900473ffffffffffffffffffffffffffffffffffffffff1673ffffffffffffffffffffffffffffffffffffffff1663026b1d5f6040518163ffffffff1660e01b815260040160206040518083038186803b15801561168f57600080fd5b505afa1580156116a3573d6000803e3d6000fd5b505050506040513d601f19601f820116820180604052508101906116c791906135b5565b90506000612710606f54606b546116de91906135e2565b6116e8919061366b565b9050607260009054906101000a900473ffffffffffffffffffffffffffffffffffffffff1673ffffffffffffffffffffffffffffffffffffffff1663095ea7b3607160009054906101000a900473ffffffffffffffffffffffffffffffffffffffff16606b546040518363ffffffff1660e01b815260040161176b92919061369c565b602060405180830381600087803b15801561178557600080fd5b505af1158015611799573d6000803e3d6000fd5b505050506040513d601f19601f820116820180604052508101906117bd9190612efb565b6117fc576040517f08c379a00000000000000000000000000000000000000000000000000000000081526004016117f390613711565b60405180910390fd5b607160009054906101000a900473ffffffffffffffffffffffffffffffffffffffff1673ffffffffffffffffffffffffffffffffffffffff166380500d20838684606b5461184a9190613731565b6118549190613731565b896040518463ffffffff1660e01b815260040161187393929190613765565b600060405180830381600087803b15801561188d57600080fd5b505af11580156118a1573d6000803e3d6000fd5b50505050600081111561196257607160009054906101000a900473ffffffffffffffffffffffffffffffffffffffff1673ffffffffffffffffffffffffffffffffffffffff166380500d208383606960009054906101000a900473ffffffffffffffffffffffffffffffffffffffff166040518463ffffffff1660e01b815260040161192f9392919061379c565b600060405180830381600087803b15801561194957600080fd5b505af115801561195d573d6000803e3d6000fd5b505050505b60008411156119fd57607160009054906101000a900473ffffffffffffffffffffffffffffffffffffffff1673ffffffffffffffffffffffffffffffffffffffff166380500d208386886040518463ffffffff1660e01b81526004016119ca93929190613765565b600060405180830381600087803b1580156119e457600080fd5b505af11580156119f8573d6000803e3d6000fd5b505050505b606b5460736000828254611a119190613731565b92505081905550611a20611eef565b505050505050565b8073ffffffffffffffffffffffffffffffffffffffff16606960009054906101000a900473ffffffffffffffffffffffffffffffffffffffff1673ffffffffffffffffffffffffffffffffffffffff167f8be0079c531659141344cd1fd0a4f28419497f9722a3daafe3b4186f6b6457e060405160405180910390a380606960006101000a81548173ffffffffffffffffffffffffffffffffffffffff021916908373ffffffffffffffffffffffffffffffffffffffff16021790555050565b600080600360049054906101000a900463ffffffff16905060008054906101000a900463ffffffff166002611b1d9190613906565b63ffffffff168163ffffffff161415611b6b576040517f08c379a0000000000000000000000000000000000000000000000000000000008152600401611b62906139a7565b60405180910390fd5b6001600360048282829054906101000a900463ffffffff16611b8d91906139c7565b92506101000a81548163ffffffff021916908363ffffffff160217905550600083905060008060005b60008054906101000a900463ffffffff1663ffffffff168163ffffffff161015611ca4576000600286611be99190613a01565b63ffffffff161415611c4d5783925060028163ffffffff1681548110611c1257611c11613284565b5b906000526020600020015491508360018263ffffffff1681548110611c3a57611c39613284565b5b9060005260206000200181905550611c78565b60018163ffffffff1681548110611c6757611c66613284565b5b906000526020600020015492508391505b611c828383610bab565b9350600285611c919190613a32565b945080611c9d90613a63565b9050611bb6565b5060646001600360009054906101000a900463ffffffff16611cc691906139c7565b611cd09190613a01565b600360006101000a81548163ffffffff021916908363ffffffff160217905550826004600360009054906101000a900463ffffffff1663ffffffff1660648110611d1d57611d1c613284565b5b01819055506001600360049054906101000a900463ffffffff16611d419190613a90565b945050505050919050565b606b543414611d90576040517f08c379a0000000000000000000000000000000000000000000000000000000008152600401611d8790613b36565b60405180910390fd5b6000607060009054906101000a900473ffffffffffffffffffffffffffffffffffffffff1673ffffffffffffffffffffffffffffffffffffffff1663026b1d5f6040518163ffffffff1660e01b815260040160206040518083038186803b158015611dfa57600080fd5b505afa158015611e0e573d6000803e3d6000fd5b505050506040513d601f19601f82011682018060405250810190611e3291906135b5565b9050607160009054906101000a900473ffffffffffffffffffffffffffffffffffffffff1673ffffffffffffffffffffffffffffffffffffffff1663474cf53d606b54833060006040518563ffffffff1660e01b8152600401611e9793929190613b9f565b6000604051808303818588803b158015611eb057600080fd5b505af1158015611ec4573d6000803e3d6000fd5b5050505050606b5460736000828254611edd9190613bd6565b92505081905550611eec611eef565b50565b6000607354607260009054906101000a900473ffffffffffffffffffffffffffffffffffffffff1673ffffffffffffffffffffffffffffffffffffffff166370a08231306040518263ffffffff1660e01b8152600401611f4f919061285e565b60206040518083038186803b158015611f6757600080fd5b505afa158015611f7b573d6000803e3d6000fd5b505050506040513d601f19601f82011682018060405250810190611f9f9190613c41565b611fa99190613731565b905060008111801561200a5750600073ffffffffffffffffffffffffffffffffffffffff16607560009054906101000a900473ffffffffffffffffffffffffffffffffffffffff1673ffffffffffffffffffffffffffffffffffffffff1614155b15612291576000607060009054906101000a900473ffffffffffffffffffffffffffffffffffffffff1673ffffffffffffffffffffffffffffffffffffffff1663026b1d5f6040518163ffffffff1660e01b815260040160206040518083038186803b15801561207957600080fd5b505afa15801561208d573d6000803e3d6000fd5b505050506040513d601f19601f820116820180604052508101906120b191906135b5565b9050607260009054906101000a900473ffffffffffffffffffffffffffffffffffffffff1673ffffffffffffffffffffffffffffffffffffffff1663095ea7b3607160009054906101000a900473ffffffffffffffffffffffffffffffffffffffff16846040518363ffffffff1660e01b815260040161213292919061369c565b602060405180830381600087803b15801561214c57600080fd5b505af1158015612160573d6000803e3d6000fd5b505050506040513d601f19601f820116820180604052508101906121849190612efb565b6121c3576040517f08c379a00000000000000000000000000000000000000000000000000000000081526004016121ba90613711565b60405180910390fd5b607160009054906101000a900473ffffffffffffffffffffffffffffffffffffffff1673ffffffffffffffffffffffffffffffffffffffff166380500d208284607560009054906101000a900473ffffffffffffffffffffffffffffffffffffffff166040518463ffffffff1660e01b81526004016122449392919061379c565b600060405180830381600087803b15801561225e57600080fd5b505af1158015612272573d6000803e3d6000fd5b5050505081607460008282546122889190613bd6565b92505081905550505b50565b6000604051905090565b600080fd5b600080fd5b6000819050919050565b6122bb816122a8565b81146122c657600080fd5b50565b6000813590506122d8816122b2565b92915050565b6000602082840312156122f4576122f361229e565b5b6000612302848285016122c9565b91505092915050565b60008115159050919050565b6123208161230b565b82525050565b600060208201905061233b6000830184612317565b92915050565b600073ffffffffffffffffffffffffffffffffffffffff82169050919050565b600061236c82612341565b9050919050565b61237c81612361565b811461238757600080fd5b50565b60008135905061239981612373565b92915050565b6000602082840312156123b5576123b461229e565b5b60006123c38482850161238a565b91505092915050565b600080fd5b6000601f19601f8301169050919050565b7f4e487b7100000000000000000000000000000000000000000000000000000000600052604160045260246000fd5b61241a826123d1565b810181811067ffffffffffffffff82111715612439576124386123e2565b5b80604052505050565b600061244c612294565b90506124588282612411565b919050565b600067ffffffffffffffff821115612478576124776123e2565b5b602082029050919050565b600080fd5b6000819050919050565b61249b81612488565b81146124a657600080fd5b50565b6000813590506124b881612492565b92915050565b60006124d16124cc8461245d565b612442565b905080602084028301858111156124eb576124ea612483565b5b835b81811015612514578061250088826124a9565b8452602084019350506020810190506124ed565b5050509392505050565b600082601f830112612533576125326123cc565b5b60026125408482856124be565b91505092915050565b600067ffffffffffffffff821115612564576125636123e2565b5b602082029050919050565b600061258261257d84612549565b612442565b9050806040840283018581111561259c5761259b612483565b5b835b818110156125c557806125b1888261251e565b84526020840193505060408101905061259e565b5050509392505050565b600082601f8301126125e4576125e36123cc565b5b60026125f184828561256f565b91505092915050565b600061260582612341565b9050919050565b612615816125fa565b811461262057600080fd5b50565b6000813590506126328161260c565b92915050565b60008060008060008060008060006101c08a8c03121561265b5761265a61229e565b5b60006126698c828d0161251e565b995050604061267a8c828d016125cf565b98505060c061268b8c828d0161251e565b97505061010061269d8c828d016122c9565b9650506101206126af8c828d016122c9565b9550506101406126c18c828d01612623565b9450506101606126d38c828d01612623565b9350506101806126e58c828d016124a9565b9250506101a06126f78c828d016124a9565b9150509295985092959850929598565b6000819050919050565b600061272c61272761272284612341565b612707565b612341565b9050919050565b600061273e82612711565b9050919050565b600061275082612733565b9050919050565b61276081612745565b82525050565b600060208201905061277b6000830184612757565b92915050565b600080604083850312156127985761279761229e565b5b60006127a6858286016122c9565b92505060206127b7858286016122c9565b9150509250929050565b6127ca816122a8565b82525050565b60006020820190506127e560008301846127c1565b92915050565b6127f481612488565b82525050565b600060208201905061280f60008301846127eb565b92915050565b600063ffffffff82169050919050565b61282e81612815565b82525050565b60006020820190506128496000830184612825565b92915050565b61285881612361565b82525050565b6000602082019050612873600083018461284f565b92915050565b60006020828403121561288f5761288e61229e565b5b600061289d848285016124a9565b91505092915050565b600080fd5b60008083601f8401126128c1576128c06123cc565b5b8235905067ffffffffffffffff8111156128de576128dd6128a6565b5b6020830191508360208202830111156128fa576128f9612483565b5b9250929050565b600080602083850312156129185761291761229e565b5b600083013567ffffffffffffffff811115612936576129356122a3565b5b612942858286016128ab565b92509250509250929050565b600081519050919050565b600082825260208201905092915050565b6000819050602082019050919050565b6129838161230b565b82525050565b6000612995838361297a565b60208301905092915050565b6000602082019050919050565b60006129b98261294e565b6129c38185612959565b93506129ce8361296a565b8060005b838110156129ff5781516129e68882612989565b97506129f1836129a1565b9250506001810190506129d2565b5085935050505092915050565b60006020820190508181036000830152612a2681846129ae565b905092915050565b600082825260208201905092915050565b7f4e6f7420617574686f72697a6564000000000000000000000000000000000000600082015250565b6000612a75600e83612a2e565b9150612a8082612a3f565b602082019050919050565b60006020820190508181036000830152612aa481612a68565b9050919050565b7f5265656e7472616e637947756172643a207265656e7472616e742063616c6c00600082015250565b6000612ae1601f83612a2e565b9150612aec82612aab565b602082019050919050565b60006020820190508181036000830152612b1081612ad4565b9050919050565b7f4665652065786365656473207472616e736665722076616c7565000000000000600082015250565b6000612b4d601a83612a2e565b9150612b5882612b17565b602082019050919050565b60006020820190508181036000830152612b7c81612b40565b9050919050565b7f546865206e6f746520686173206265656e20616c7265616479207370656e7400600082015250565b6000612bb9601f83612a2e565b9150612bc482612b83565b602082019050919050565b60006020820190508181036000830152612be881612bac565b9050919050565b7f43616e6e6f742066696e6420796f7572206d65726b6c6520726f6f7400000000600082015250565b6000612c25601c83612a2e565b9150612c3082612bef565b602082019050919050565b60006020820190508181036000830152612c5481612c18565b9050919050565b600060029050919050565b600081905092915050565b6000819050919050565b612c8481612488565b82525050565b6000612c968383612c7b565b60208301905092915050565b6000602082019050919050565b612cb881612c5b565b612cc28184612c66565b9250612ccd82612c71565b8060005b83811015612cfe578151612ce58782612c8a565b9650612cf083612ca2565b925050600181019050612cd1565b505050505050565b600060029050919050565b600081905092915050565b6000819050919050565b600081905092915050565b612d3a81612c5b565b612d448184612d26565b9250612d4f82612c71565b8060005b83811015612d80578151612d678782612c8a565b9650612d7283612ca2565b925050600181019050612d53565b505050505050565b6000612d948383612d31565b60408301905092915050565b6000602082019050919050565b612db681612d06565b612dc08184612d11565b9250612dcb82612d1c565b8060005b83811015612dfc578151612de38782612d88565b9650612dee83612da0565b925050600181019050612dcf565b505050505050565b600060069050919050565b600081905092915050565b6000819050919050565b6000602082019050919050565b612e3a81612e04565b612e448184612e0f565b9250612e4f82612e1a565b8060005b83811015612e80578151612e678782612c8a565b9650612e7283612e24565b925050600181019050612e53565b505050505050565b60006101c082019050612e9e6000830187612caf565b612eab6040830186612dad565b612eb860c0830185612caf565b612ec6610100830184612e31565b95945050505050565b612ed88161230b565b8114612ee357600080fd5b50565b600081519050612ef581612ecf565b92915050565b600060208284031215612f1157612f1061229e565b5b6000612f1f84828501612ee6565b91505092915050565b7f496e76616c69642077697468647261772070726f6f6600000000000000000000600082015250565b6000612f5e601683612a2e565b9150612f6982612f28565b602082019050919050565b60006020820190508181036000830152612f8d81612f51565b9050919050565b6000612f9f82612733565b9050919050565b612faf81612f94565b82525050565b6000606082019050612fca6000830186612fa6565b612fd760208301856127c1565b612fe460408301846127eb565b949350505050565b7f5f6c6566742073686f756c6420626520696e7369646520746865206669656c64600082015250565b6000613022602083612a2e565b915061302d82612fec565b602082019050919050565b6000602082019050818103600083015261305181613015565b9050919050565b7f5f72696768742073686f756c6420626520696e7369646520746865206669656c60008201527f6400000000000000000000000000000000000000000000000000000000000000602082015250565b60006130b4602183612a2e565b91506130bf82613058565b604082019050919050565b600060208201905081810360008301526130e3816130a7565b9050919050565b600060029050919050565b600081905092915050565b6000819050919050565b613113816122a8565b82525050565b6000613125838361310a565b60208301905092915050565b6000602082019050919050565b613147816130ea565b61315181846130f5565b925061315c82613100565b8060005b8381101561318d5781516131748782613119565b965061317f83613131565b925050600181019050613160565b505050505050565b60006040820190506131aa600083018461313e565b92915050565b6000815190506131bf816122b2565b92915050565b6000602082840312156131db576131da61229e565b5b60006131e9848285016131b0565b91505092915050565b7f4f70657261746f72206665652068617320746f20626520736d616c6c6572207460008201527f68616e2031302500000000000000000000000000000000000000000000000000602082015250565b600061324e602783612a2e565b9150613259826131f2565b604082019050919050565b6000602082019050818103600083015261327d81613241565b9050919050565b7f4e487b7100000000000000000000000000000000000000000000000000000000600052603260045260246000fd5b7f4e487b7100000000000000000000000000000000000000000000000000000000600052601160045260246000fd5b60006132ed82612815565b91506000821415613301576133006132b3565b5b600182039050919050565b600061331782612488565b91507fffffffffffffffffffffffffffffffffffffffffffffffffffffffffffffffff82141561334a576133496132b3565b5b600182019050919050565b7f54686520636f6d6d69746d656e7420686173206265656e207375626d6974746560008201527f6400000000000000000000000000000000000000000000000000000000000000602082015250565b60006133b1602183612a2e565b91506133bc82613355565b604082019050919050565b600060208201905081810360008301526133e0816133a4565b9050919050565b60006040820190506133fc6000830185612825565b61340960208301846127eb565b9392505050565b7f6f776e65722063616e6e6f74206265207a65726f206164647265737300000000600082015250565b6000613446601c83612a2e565b915061345182613410565b602082019050919050565b6000602082019050818103600083015261347581613439565b9050919050565b7f4d6573736167652076616c756520697320737570706f73656420746f2062652060008201527f7a65726f20666f722045544820696e7374616e63650000000000000000000000602082015250565b60006134d8603583612a2e565b91506134e38261347c565b604082019050919050565b60006020820190508181036000830152613507816134cb565b9050919050565b7f526566756e642076616c756520697320737570706f73656420746f206265207a60008201527f65726f20666f722045544820696e7374616e6365000000000000000000000000602082015250565b600061356a603483612a2e565b91506135758261350e565b604082019050919050565b600060208201905081810360008301526135998161355d565b9050919050565b6000815190506135af81612373565b92915050565b6000602082840312156135cb576135ca61229e565b5b60006135d9848285016135a0565b91505092915050565b60006135ed82612488565b91506135f883612488565b9250817fffffffffffffffffffffffffffffffffffffffffffffffffffffffffffffffff0483118215151615613631576136306132b3565b5b828202905092915050565b7f4e487b7100000000000000000000000000000000000000000000000000000000600052601260045260246000fd5b600061367682612488565b915061368183612488565b9250826136915761369061363c565b5b828204905092915050565b60006040820190506136b1600083018561284f565b6136be60208301846127eb565b9392505050565b7f61546f6b656e20617070726f76616c206661696c656400000000000000000000600082015250565b60006136fb601683612a2e565b9150613706826136c5565b602082019050919050565b6000602082019050818103600083015261372a816136ee565b9050919050565b600061373c82612488565b915061374783612488565b92508282101561375a576137596132b3565b5b828203905092915050565b600060608201905061377a600083018661284f565b61378760208301856127eb565b6137946040830184612fa6565b949350505050565b60006060820190506137b1600083018661284f565b6137be60208301856127eb565b6137cb604083018461284f565b949350505050565b60008160011c9050919050565b6000808291508390505b600185111561382a57808604811115613806576138056132b3565b5b60018516156138155780820291505b8081029050613823856137d3565b94506137ea565b94509492505050565b60008261384357600190506138ff565b8161385157600090506138ff565b81600181146138675760028114613871576138a0565b60019150506138ff565b60ff841115613883576138826132b3565b5b8360020a91508482111561389a576138996132b3565b5b506138ff565b5060208310610133831016604e8410600b84101617156138d55782820a9050838111156138d0576138cf6132b3565b5b6138ff565b6138e284848460016137e0565b925090508184048111156138f9576138f86132b3565b5b81810290505b9392505050565b600061391182612815565b915061391c83612815565b925061392d63ffffffff8484613833565b905092915050565b7f4d65726b6c6520747265652069732066756c6c2e204e6f206d6f7265206c656160008201527f66732063616e2062652061646465640000000000000000000000000000000000602082015250565b6000613991602f83612a2e565b915061399c82613935565b604082019050919050565b600060208201905081810360008301526139c081613984565b9050919050565b60006139d282612815565b91506139dd83612815565b92508263ffffffff038211156139f6576139f56132b3565b5b828201905092915050565b6000613a0c82612815565b9150613a1783612815565b925082613a2757613a2661363c565b5b828206905092915050565b6000613a3d82612815565b9150613a4883612815565b925082613a5857613a5761363c565b5b828204905092915050565b6000613a6e82612815565b915063ffffffff821415613a8557613a846132b3565b5b600182019050919050565b6000613a9b82612815565b9150613aa683612815565b925082821015613ab957613ab86132b3565b5b828203905092915050565b7f506c656173652073656e6420606d697844656e6f6d696e6174696f6e6020455460008201527f4820616c6f6e672077697468207472616e73616374696f6e0000000000000000602082015250565b6000613b20603883612a2e565b9150613b2b82613ac4565b604082019050919050565b60006020820190508181036000830152613b4f81613b13565b9050919050565b6000819050919050565b600061ffff82169050919050565b6000613b89613b84613b7f84613b56565b612707565b613b60565b9050919050565b613b9981613b6e565b82525050565b6000606082019050613bb4600083018661284f565b613bc1602083018561284f565b613bce6040830184613b90565b949350505050565b6000613be182612488565b9150613bec83612488565b9250827fffffffffffffffffffffffffffffffffffffffffffffffffffffffffffffffff03821115613c2157613c206132b3565b5b828201905092915050565b600081519050613c3b81612492565b92915050565b600060208284031215613c5757613c5661229e565b5b6000613c6584828501613c2c565b9150509291505056fea2646970667358221220a8e8a8a1d3da8775059fa7f1eca4adcafb16376d1231af13fd32d9b908b07a2b64736f6c63430008090033",
  "linkReferences": {
    "contracts/MerkleTreeWithHistory.sol": {
      "Hasher": [
        {
          "length": 20,
          "start": 1306
        },
        {
          "length": 20,
          "start": 6390
        }
      ]
    }
  },
  "deployedLinkReferences": {
    "contracts/MerkleTreeWithHistory.sol": {
      "Hasher": [
        {
          "length": 20,
          "start": 3193
        }
      ]
    }
  }
}