{
  "_format": "hh-sol-artifact-1",
  "contractName": "ETHSacred",
  "sourceName": "contracts/ETHSacred.sol",
  "abi": [
    {
      "inputs": [
        {
          "internalType": "contract IVerifier",
          "name": "_verifier",
          "type": "address"
        },
        {
          "internalType": "uint256",
          "name": "_denomination",
          "type": "uint256"
        },
        {
          "internalType": "uint32",
          "name": "_merkleTreeHeight",
          "type": "uint32"
        },
        {
          "internalType": "address",
          "name": "_lendingPoolAddressProvider",
          "type": "address"
        },
        {
          "internalType": "address",
          "name": "_wETHGateway",
          "type": "address"
        },
        {
          "internalType": "address",
          "name": "_wETHToken",
          "type": "address"
        },
        {
          "internalType": "address",
          "name": "_owner",
          "type": "address"
        },
        {
          "internalType": "uint256",
          "name": "_fee",
          "type": "uint256"
        }
      ],
      "stateMutability": "nonpayable",
      "type": "constructor"
    },
    {
      "anonymous": false,
      "inputs": [
        {
          "indexed": true,
          "internalType": "bytes32",
          "name": "commitment",
          "type": "bytes32"
        },
        {
          "indexed": false,
          "internalType": "uint32",
          "name": "leafIndex",
          "type": "uint32"
        },
        {
          "indexed": false,
          "internalType": "uint256",
          "name": "timestamp",
          "type": "uint256"
        }
      ],
      "name": "Deposit",
      "type": "event"
    },
    {
      "anonymous": false,
      "inputs": [
        {
          "indexed": true,
          "internalType": "address",
          "name": "previousOwner",
          "type": "address"
        },
        {
          "indexed": true,
          "internalType": "address",
          "name": "newOwner",
          "type": "address"
        }
      ],
      "name": "OwnershipTransferred",
      "type": "event"
    },
    {
      "anonymous": false,
      "inputs": [
        {
          "indexed": false,
          "internalType": "address",
          "name": "to",
          "type": "address"
        },
        {
          "indexed": false,
          "internalType": "bytes32",
          "name": "nullifierHash",
          "type": "bytes32"
        },
        {
          "indexed": true,
          "internalType": "address",
          "name": "relayer",
          "type": "address"
        },
        {
          "indexed": false,
          "internalType": "uint256",
          "name": "fee",
          "type": "uint256"
        }
      ],
      "name": "Withdrawal",
      "type": "event"
    },
    {
      "inputs": [],
      "name": "FIELD_SIZE",
      "outputs": [
        {
          "internalType": "uint256",
          "name": "",
          "type": "uint256"
        }
      ],
      "stateMutability": "view",
      "type": "function"
    },
    {
      "inputs": [],
      "name": "ROOT_HISTORY_SIZE",
      "outputs": [
        {
          "internalType": "uint32",
          "name": "",
          "type": "uint32"
        }
      ],
      "stateMutability": "view",
      "type": "function"
    },
    {
      "inputs": [],
      "name": "ZERO_VALUE",
      "outputs": [
        {
          "internalType": "uint256",
          "name": "",
          "type": "uint256"
        }
      ],
      "stateMutability": "view",
      "type": "function"
    },
    {
      "inputs": [],
      "name": "aaveInterestsProxy",
      "outputs": [
        {
          "internalType": "address",
          "name": "",
          "type": "address"
        }
      ],
      "stateMutability": "view",
      "type": "function"
    },
    {
      "inputs": [
        {
          "internalType": "bytes32",
          "name": "",
          "type": "bytes32"
        }
      ],
      "name": "commitments",
      "outputs": [
        {
          "internalType": "bool",
          "name": "",
          "type": "bool"
        }
      ],
      "stateMutability": "view",
      "type": "function"
    },
    {
      "inputs": [],
      "name": "currentRootIndex",
      "outputs": [
        {
          "internalType": "uint32",
          "name": "",
          "type": "uint32"
        }
      ],
      "stateMutability": "view",
      "type": "function"
    },
    {
      "inputs": [],
      "name": "denomination",
      "outputs": [
        {
          "internalType": "uint256",
          "name": "",
          "type": "uint256"
        }
      ],
      "stateMutability": "view",
      "type": "function"
    },
    {
      "inputs": [
        {
          "internalType": "bytes32",
          "name": "_commitment",
          "type": "bytes32"
        }
      ],
      "name": "deposit",
      "outputs": [],
      "stateMutability": "payable",
      "type": "function"
    },
    {
      "inputs": [],
      "name": "fee",
      "outputs": [
        {
          "internalType": "uint256",
          "name": "",
          "type": "uint256"
        }
      ],
      "stateMutability": "view",
      "type": "function"
    },
    {
      "inputs": [
        {
          "internalType": "uint256",
          "name": "",
          "type": "uint256"
        }
      ],
      "name": "filledSubtrees",
      "outputs": [
        {
          "internalType": "bytes32",
          "name": "",
          "type": "bytes32"
        }
      ],
      "stateMutability": "view",
      "type": "function"
    },
    {
      "inputs": [],
      "name": "getLastRoot",
      "outputs": [
        {
          "internalType": "bytes32",
          "name": "",
          "type": "bytes32"
        }
      ],
      "stateMutability": "view",
      "type": "function"
    },
    {
      "inputs": [
        {
          "internalType": "bytes32",
          "name": "_left",
          "type": "bytes32"
        },
        {
          "internalType": "bytes32",
          "name": "_right",
          "type": "bytes32"
        }
      ],
      "name": "hashLeftRight",
      "outputs": [
        {
          "internalType": "bytes32",
          "name": "",
          "type": "bytes32"
        }
      ],
      "stateMutability": "pure",
      "type": "function"
    },
    {
      "inputs": [
        {
          "internalType": "bytes32",
          "name": "_root",
          "type": "bytes32"
        }
      ],
      "name": "isKnownRoot",
      "outputs": [
        {
          "internalType": "bool",
          "name": "",
          "type": "bool"
        }
      ],
      "stateMutability": "view",
      "type": "function"
    },
    {
      "inputs": [
        {
          "internalType": "bytes32",
          "name": "_nullifierHash",
          "type": "bytes32"
        }
      ],
      "name": "isSpent",
      "outputs": [
        {
          "internalType": "bool",
          "name": "",
          "type": "bool"
        }
      ],
      "stateMutability": "view",
      "type": "function"
    },
    {
      "inputs": [
        {
          "internalType": "bytes32[]",
          "name": "_nullifierHashes",
          "type": "bytes32[]"
        }
      ],
      "name": "isSpentArray",
      "outputs": [
        {
          "internalType": "bool[]",
          "name": "spent",
          "type": "bool[]"
        }
      ],
      "stateMutability": "view",
      "type": "function"
    },
    {
      "inputs": [],
      "name": "lendingPoolAddressProvider",
      "outputs": [
        {
          "internalType": "address",
          "name": "",
          "type": "address"
        }
      ],
      "stateMutability": "view",
      "type": "function"
    },
    {
      "inputs": [],
      "name": "levels",
      "outputs": [
        {
          "internalType": "uint32",
          "name": "",
          "type": "uint32"
        }
      ],
      "stateMutability": "view",
      "type": "function"
    },
    {
      "inputs": [],
      "name": "nextIndex",
      "outputs": [
        {
          "internalType": "uint32",
          "name": "",
          "type": "uint32"
        }
      ],
      "stateMutability": "view",
      "type": "function"
    },
    {
      "inputs": [
        {
          "internalType": "bytes32",
          "name": "",
          "type": "bytes32"
        }
      ],
      "name": "nullifierHashes",
      "outputs": [
        {
          "internalType": "bool",
          "name": "",
          "type": "bool"
        }
      ],
      "stateMutability": "view",
      "type": "function"
    },
    {
      "inputs": [],
      "name": "ownershipAccepted",
      "outputs": [],
      "stateMutability": "nonpayable",
      "type": "function"
    },
    {
      "inputs": [],
      "name": "renounceOwnership",
      "outputs": [],
      "stateMutability": "nonpayable",
      "type": "function"
    },
    {
      "inputs": [
        {
          "internalType": "uint256",
          "name": "",
          "type": "uint256"
        }
      ],
      "name": "roots",
      "outputs": [
        {
          "internalType": "bytes32",
          "name": "",
          "type": "bytes32"
        }
      ],
      "stateMutability": "view",
      "type": "function"
    },
    {
      "inputs": [
        {
          "internalType": "address",
          "name": "_aaveInterestsProxy",
          "type": "address"
        }
      ],
      "name": "setAaveInterestsProxy",
      "outputs": [],
      "stateMutability": "nonpayable",
      "type": "function"
    },
    {
      "inputs": [
        {
          "internalType": "uint256",
          "name": "_fee",
          "type": "uint256"
        }
      ],
      "name": "setFee",
      "outputs": [],
      "stateMutability": "nonpayable",
      "type": "function"
    },
    {
      "inputs": [],
      "name": "totalAaveInterests",
      "outputs": [
        {
          "internalType": "uint256",
          "name": "",
          "type": "uint256"
        }
      ],
      "stateMutability": "view",
      "type": "function"
    },
    {
      "inputs": [
        {
          "internalType": "address",
          "name": "newOwner",
          "type": "address"
        }
      ],
      "name": "transferOwnership",
      "outputs": [],
      "stateMutability": "nonpayable",
      "type": "function"
    },
    {
      "inputs": [],
      "name": "verifier",
      "outputs": [
        {
          "internalType": "contract IVerifier",
          "name": "",
          "type": "address"
        }
      ],
      "stateMutability": "view",
      "type": "function"
    },
    {
      "inputs": [],
      "name": "wETHGateway",
      "outputs": [
        {
          "internalType": "address",
          "name": "",
          "type": "address"
        }
      ],
      "stateMutability": "view",
      "type": "function"
    },
    {
      "inputs": [],
      "name": "wETHToken",
      "outputs": [
        {
          "internalType": "address",
          "name": "",
          "type": "address"
        }
      ],
      "stateMutability": "view",
      "type": "function"
    },
    {
      "inputs": [
        {
          "internalType": "bytes",
          "name": "_proof",
          "type": "bytes"
        },
        {
          "internalType": "bytes32",
          "name": "_root",
          "type": "bytes32"
        },
        {
          "internalType": "bytes32",
          "name": "_nullifierHash",
          "type": "bytes32"
        },
        {
          "internalType": "address payable",
          "name": "_recipient",
          "type": "address"
        },
        {
          "internalType": "address payable",
          "name": "_relayer",
          "type": "address"
        },
        {
          "internalType": "uint256",
          "name": "_fee",
          "type": "uint256"
        },
        {
          "internalType": "uint256",
          "name": "_refund",
          "type": "uint256"
        }
      ],
      "name": "withdraw",
      "outputs": [],
      "stateMutability": "payable",
      "type": "function"
    },
    {
      "inputs": [
        {
          "internalType": "uint256",
          "name": "",
          "type": "uint256"
        }
      ],
      "name": "zeros",
      "outputs": [
        {
          "internalType": "bytes32",
          "name": "",
          "type": "bytes32"
        }
      ],
      "stateMutability": "view",
      "type": "function"
    }
  ],
  "bytecode": "0x60806040526000600360006101000a81548163ffffffff021916908363ffffffff1602179055506000600360046101000a81548163ffffffff021916908363ffffffff1602179055506032606f553480156200005a57600080fd5b5060405162004665380380620046658339818101604052810190620000809190620006ec565b8787878484818360008163ffffffff1611620000d3576040517f08c379a0000000000000000000000000000000000000000000000000000000008152600401620000ca906200083c565b60405180910390fd5b60208163ffffffff16106200011f576040517f08c379a00000000000000000000000000000000000000000000000000000000081526004016200011690620008d4565b60405180910390fd5b806000806101000a81548163ffffffff021916908363ffffffff16021790555060007f2fe54c60d3acabf3343a35b6eba15db4821b340f76e741e2249685ed4899af6c60001b9050600281908060018154018082558091505060019003906000526020600020016000909190919091505560018190806001815401808255809150506001900390600052602060002001600090919091909150556000600190505b60008054906101000a900463ffffffff1663ffffffff168163ffffffff1610156200025f57620001f782836200044660201b60201c565b91506002829080600181540180825580915050600190039060005260206000200160009091909190915055600182908060018154018082558091505060019003906000526020600020016000909190919091505580620002579062000925565b9050620001c0565b506200027281826200044660201b60201c565b60046000606481106200028a576200028962000957565b5b01819055505050600160688190555080606960006101000a81548173ffffffffffffffffffffffffffffffffffffffff021916908373ffffffffffffffffffffffffffffffffffffffff160217905550506000841162000321576040517f08c379a00000000000000000000000000000000000000000000000000000000081526004016200031890620009fc565b60405180910390fd5b84606e60006101000a81548173ffffffffffffffffffffffffffffffffffffffff021916908373ffffffffffffffffffffffffffffffffffffffff16021790555083606b8190555080606f81905550505050505084607060006101000a81548173ffffffffffffffffffffffffffffffffffffffff021916908373ffffffffffffffffffffffffffffffffffffffff16021790555083607160006101000a81548173ffffffffffffffffffffffffffffffffffffffff021916908373ffffffffffffffffffffffffffffffffffffffff16021790555082607260006101000a81548173ffffffffffffffffffffffffffffffffffffffff021916908373ffffffffffffffffffffffffffffffffffffffff160217905550505050505050505062000c6d565b60007f30644e72e131a029b85045b68181585d2833e84879b9709143e1f593f00000018360001c10620004b0576040517f08c379a0000000000000000000000000000000000000000000000000000000008152600401620004a79062000a6e565b60405180910390fd5b7f30644e72e131a029b85045b68181585d2833e84879b9709143e1f593f00000018260001c1062000518576040517f08c379a00000000000000000000000000000000000000000000000000000000081526004016200050f9062000b06565b60405180910390fd5b73__$9780738a116369df5fe6eb1df74865bc0a$__63299e56606040518060400160405280868152602001858152506040518263ffffffff1660e01b815260040162000565919062000bed565b60206040518083038186803b1580156200057e57600080fd5b505af415801562000593573d6000803e3d6000fd5b505050506040513d601f19601f82011682018060405250810190620005b9919062000c3b565b905092915050565b600080fd5b600073ffffffffffffffffffffffffffffffffffffffff82169050919050565b6000620005f382620005c6565b9050919050565b60006200060782620005e6565b9050919050565b6200061981620005fa565b81146200062557600080fd5b50565b60008151905062000639816200060e565b92915050565b6000819050919050565b62000654816200063f565b81146200066057600080fd5b50565b600081519050620006748162000649565b92915050565b600063ffffffff82169050919050565b62000695816200067a565b8114620006a157600080fd5b50565b600081519050620006b5816200068a565b92915050565b620006c681620005e6565b8114620006d257600080fd5b50565b600081519050620006e681620006bb565b92915050565b600080600080600080600080610100898b03121562000710576200070f620005c1565b5b6000620007208b828c0162000628565b9850506020620007338b828c0162000663565b9750506040620007468b828c01620006a4565b9650506060620007598b828c01620006d5565b95505060806200076c8b828c01620006d5565b94505060a06200077f8b828c01620006d5565b93505060c0620007928b828c01620006d5565b92505060e0620007a58b828c0162000663565b9150509295985092959890939650565b600082825260208201905092915050565b7f5f747265654c6576656c732073686f756c64206265206772656174657220746860008201527f616e207a65726f00000000000000000000000000000000000000000000000000602082015250565b600062000824602783620007b5565b91506200083182620007c6565b604082019050919050565b60006020820190508181036000830152620008578162000815565b9050919050565b7f5f747265654c6576656c732073686f756c64206265206c657373207468616e2060008201527f3332000000000000000000000000000000000000000000000000000000000000602082015250565b6000620008bc602283620007b5565b9150620008c9826200085e565b604082019050919050565b60006020820190508181036000830152620008ef81620008ad565b9050919050565b7f4e487b7100000000000000000000000000000000000000000000000000000000600052601160045260246000fd5b600062000932826200067a565b915063ffffffff8214156200094c576200094b620008f6565b5b600182019050919050565b7f4e487b7100000000000000000000000000000000000000000000000000000000600052603260045260246000fd5b7f64656e6f6d696e6174696f6e2073686f756c642062652067726561746572207460008201527f68616e2030000000000000000000000000000000000000000000000000000000602082015250565b6000620009e4602583620007b5565b9150620009f18262000986565b604082019050919050565b6000602082019050818103600083015262000a1781620009d5565b9050919050565b7f5f6c6566742073686f756c6420626520696e7369646520746865206669656c64600082015250565b600062000a56602083620007b5565b915062000a638262000a1e565b602082019050919050565b6000602082019050818103600083015262000a898162000a47565b9050919050565b7f5f72696768742073686f756c6420626520696e7369646520746865206669656c60008201527f6400000000000000000000000000000000000000000000000000000000000000602082015250565b600062000aee602183620007b5565b915062000afb8262000a90565b604082019050919050565b6000602082019050818103600083015262000b218162000adf565b9050919050565b600060029050919050565b600081905092915050565b6000819050919050565b6000819050919050565b62000b5d8162000b48565b82525050565b600062000b71838362000b52565b60208301905092915050565b6000602082019050919050565b62000b958162000b28565b62000ba1818462000b33565b925062000bae8262000b3e565b8060005b8381101562000be557815162000bc9878262000b63565b965062000bd68362000b7d565b92505060018101905062000bb2565b505050505050565b600060408201905062000c04600083018462000b8a565b92915050565b62000c158162000b48565b811462000c2157600080fd5b50565b60008151905062000c358162000c0a565b92915050565b60006020828403121562000c545762000c53620005c1565b5b600062000c648482850162000c24565b91505092915050565b6139e88062000c7d6000396000f3fe6080604052600436106101d85760003560e01c806393524b1711610102578063e5285dcc11610095578063f178e47c11610064578063f178e47c146106ac578063f2fde38b146106e9578063f9db6c4814610712578063fc7e9c6f1461073d576101d8565b8063e5285dcc146105f0578063e82955881461062d578063eb1dbc1b1461066a578063ec73295914610681576101d8565b8063c2b40ae4116100d1578063c2b40ae414610532578063cb7ae0601461056f578063cd87a3b41461059a578063ddca3f43146105c5576101d8565b806393524b17146104835780639fa12d0b146104ae578063b214faa5146104eb578063ba70f75714610507576101d8565b8063633803001161017a578063715018a611610149578063715018a6146103d9578063839df945146103f05780638bca6d161461042d57806390eeb02b14610458576101d8565b8063633803001461031d57806369fe0e2d146103485780636d9833e314610371578063704cf425146103ae576101d8565b80632b7ac3f3116101b65780632b7ac3f31461025f57806338bf282e1461028a578063414a37ba146102c75780634ecf518b146102f2576101d8565b806317cc915c146101dd57806321a0adb61461021a57806327dc466914610236575b600080fd5b3480156101e957600080fd5b5061020460048036038101906101ff91906122d1565b610768565b6040516102119190612319565b60405180910390f35b610234600480360381019061022f919061242d565b610788565b005b34801561024257600080fd5b5061025d6004803603810190610258919061252d565b610aae565b005b34801561026b57600080fd5b50610274610b82565b60405161028191906125b9565b60405180910390f35b34801561029657600080fd5b506102b160048036038101906102ac91906125d4565b610ba8565b6040516102be9190612623565b60405180910390f35b3480156102d357600080fd5b506102dc610d17565b6040516102e9919061264d565b60405180910390f35b3480156102fe57600080fd5b50610307610d3b565b6040516103149190612687565b60405180910390f35b34801561032957600080fd5b50610332610d4f565b60405161033f91906126b1565b60405180910390f35b34801561035457600080fd5b5061036f600480360381019061036a91906126cc565b610d75565b005b34801561037d57600080fd5b50610398600480360381019061039391906122d1565b610e54565b6040516103a59190612319565b60405180910390f35b3480156103ba57600080fd5b506103c3610f02565b6040516103d091906126b1565b60405180910390f35b3480156103e557600080fd5b506103ee610f28565b005b3480156103fc57600080fd5b50610417600480360381019061041291906122d1565b610fc4565b6040516104249190612319565b60405180910390f35b34801561043957600080fd5b50610442610fe4565b60405161044f919061264d565b60405180910390f35b34801561046457600080fd5b5061046d610fea565b60405161047a9190612687565b60405180910390f35b34801561048f57600080fd5b50610498611000565b6040516104a591906126b1565b60405180910390f35b3480156104ba57600080fd5b506104d560048036038101906104d0919061274f565b611026565b6040516104e2919061285a565b60405180910390f35b610505600480360381019061050091906122d1565b6110eb565b005b34801561051357600080fd5b5061051c611221565b6040516105299190612623565b60405180910390f35b34801561053e57600080fd5b50610559600480360381019061055491906126cc565b611256565b6040516105669190612623565b60405180910390f35b34801561057b57600080fd5b50610584611271565b60405161059191906126b1565b60405180910390f35b3480156105a657600080fd5b506105af611297565b6040516105bc9190612687565b60405180910390f35b3480156105d157600080fd5b506105da61129c565b6040516105e7919061264d565b60405180910390f35b3480156105fc57600080fd5b50610617600480360381019061061291906122d1565b6112a2565b6040516106249190612319565b60405180910390f35b34801561063957600080fd5b50610654600480360381019061064f91906126cc565b6112cc565b6040516106619190612623565b60405180910390f35b34801561067657600080fd5b5061067f6112f0565b005b34801561068d57600080fd5b506106966113dd565b6040516106a3919061264d565b60405180910390f35b3480156106b857600080fd5b506106d360048036038101906106ce91906126cc565b611401565b6040516106e09190612623565b60405180910390f35b3480156106f557600080fd5b50610710600480360381019061070b919061252d565b611425565b005b34801561071e57600080fd5b50610727611580565b604051610734919061264d565b60405180910390f35b34801561074957600080fd5b50610752611586565b60405161075f9190612687565b60405180910390f35b606c6020528060005260406000206000915054906101000a900460ff1681565b600260685414156107ce576040517f08c379a00000000000000000000000000000000000000000000000000000000081526004016107c5906128d9565b60405180910390fd5b6002606881905550606b5482111561081b576040517f08c379a000000000000000000000000000000000000000000000000000000000815260040161081290612945565b60405180910390fd5b606c600086815260200190815260200160002060009054906101000a900460ff161561087c576040517f08c379a0000000000000000000000000000000000000000000000000000000008152600401610873906129b1565b60405180910390fd5b61088586610e54565b6108c4576040517f08c379a00000000000000000000000000000000000000000000000000000000081526004016108bb90612a1d565b60405180910390fd5b606e60009054906101000a900473ffffffffffffffffffffffffffffffffffffffff1673ffffffffffffffffffffffffffffffffffffffff1663695ef6f989896040518060c001604052808b60001c81526020018a60001c81526020018973ffffffffffffffffffffffffffffffffffffffff1681526020018873ffffffffffffffffffffffffffffffffffffffff168152602001878152602001868152506040518463ffffffff1660e01b815260040161098193929190612b46565b602060405180830381600087803b15801561099b57600080fd5b505af11580156109af573d6000803e3d6000fd5b505050506040513d601f19601f820116820180604052508101906109d39190612ba4565b610a12576040517f08c379a0000000000000000000000000000000000000000000000000000000008152600401610a0990612c1d565b60405180910390fd5b6001606c600087815260200190815260200160002060006101000a81548160ff021916908315150217905550610a4a8484848461159c565b8273ffffffffffffffffffffffffffffffffffffffff167fe9e508bad6d4c3227e881ca19068f099da81b5164dd6d62b2eaf1e8bc6c34931858785604051610a9493929190612c5e565b60405180910390a260016068819055505050505050505050565b606960009054906101000a900473ffffffffffffffffffffffffffffffffffffffff1673ffffffffffffffffffffffffffffffffffffffff163373ffffffffffffffffffffffffffffffffffffffff1614610b3e576040517f08c379a0000000000000000000000000000000000000000000000000000000008152600401610b3590612ce1565b60405180910390fd5b80607560006101000a81548173ffffffffffffffffffffffffffffffffffffffff021916908373ffffffffffffffffffffffffffffffffffffffff16021790555050565b606e60009054906101000a900473ffffffffffffffffffffffffffffffffffffffff1681565b60007f30644e72e131a029b85045b68181585d2833e84879b9709143e1f593f00000018360001c10610c0f576040517f08c379a0000000000000000000000000000000000000000000000000000000008152600401610c0690612d4d565b60405180910390fd5b7f30644e72e131a029b85045b68181585d2833e84879b9709143e1f593f00000018260001c10610c74576040517f08c379a0000000000000000000000000000000000000000000000000000000008152600401610c6b90612ddf565b60405180910390fd5b73__$9780738a116369df5fe6eb1df74865bc0a$__63299e56606040518060400160405280868152602001858152506040518263ffffffff1660e01b8152600401610cbf9190612eaa565b60206040518083038186803b158015610cd757600080fd5b505af4158015610ceb573d6000803e3d6000fd5b505050506040513d601f19601f82011682018060405250810190610d0f9190612eda565b905092915050565b7f30644e72e131a029b85045b68181585d2833e84879b9709143e1f593f000000181565b60008054906101000a900463ffffffff1681565b607060009054906101000a900473ffffffffffffffffffffffffffffffffffffffff1681565b606960009054906101000a900473ffffffffffffffffffffffffffffffffffffffff1673ffffffffffffffffffffffffffffffffffffffff163373ffffffffffffffffffffffffffffffffffffffff1614610e05576040517f08c379a0000000000000000000000000000000000000000000000000000000008152600401610dfc90612ce1565b60405180910390fd5b6103e8811115610e4a576040517f08c379a0000000000000000000000000000000000000000000000000000000008152600401610e4190612f79565b60405180910390fd5b80606f8190555050565b60008060001b821415610e6a5760009050610efd565b6000600360009054906101000a900463ffffffff1690505b60048163ffffffff1660648110610e9c57610e9b612f99565b5b0154831415610eaf576001915050610efd565b60008163ffffffff161415610ec357606490505b8080610ece90612ff7565b915050600360009054906101000a900463ffffffff1663ffffffff168163ffffffff161415610e825760009150505b919050565b607160009054906101000a900473ffffffffffffffffffffffffffffffffffffffff1681565b606960009054906101000a900473ffffffffffffffffffffffffffffffffffffffff1673ffffffffffffffffffffffffffffffffffffffff163373ffffffffffffffffffffffffffffffffffffffff1614610fb8576040517f08c379a0000000000000000000000000000000000000000000000000000000008152600401610faf90612ce1565b60405180910390fd5b610fc26000611a25565b565b606d6020528060005260406000206000915054906101000a900460ff1681565b606b5481565b600360009054906101000a900463ffffffff1681565b607560009054906101000a900473ffffffffffffffffffffffffffffffffffffffff1681565b60608282905067ffffffffffffffff81111561104557611044613021565b5b6040519080825280602002602001820160405280156110735781602001602082028036833780820191505090505b50905060005b838390508110156110e4576110a684848381811061109a57611099612f99565b5b905060200201356112a2565b156110d35760018282815181106110c0576110bf612f99565b5b6020026020010190151590811515815250505b806110dd90613050565b9050611079565b5092915050565b60026068541415611131576040517f08c379a0000000000000000000000000000000000000000000000000000000008152600401611128906128d9565b60405180910390fd5b6002606881905550606d600082815260200190815260200160002060009054906101000a900460ff161561119a576040517f08c379a00000000000000000000000000000000000000000000000000000000081526004016111919061310b565b60405180910390fd5b60006111a582611ae5565b90506001606d600084815260200190815260200160002060006101000a81548160ff0219169083151502179055506111db611d49565b817fa945e51eec50ab98c161376f0db4cf2aeba3ec92755fe2fcd388bdbbb80ff196824260405161120d92919061312b565b60405180910390a250600160688190555050565b60006004600360009054906101000a900463ffffffff1663ffffffff166064811061124f5761124e612f99565b5b0154905090565b6004816064811061126657600080fd5b016000915090505481565b607260009054906101000a900473ffffffffffffffffffffffffffffffffffffffff1681565b606481565b606f5481565b6000606c600083815260200190815260200160002060009054906101000a900460ff169050919050565b600281815481106112dc57600080fd5b906000526020600020016000915090505481565b60011515606a60003373ffffffffffffffffffffffffffffffffffffffff1673ffffffffffffffffffffffffffffffffffffffff16815260200190815260200160002060009054906101000a900460ff16151514611383576040517f08c379a000000000000000000000000000000000000000000000000000000000815260040161137a90612ce1565b60405180910390fd5b61138c33611a25565b606a60003373ffffffffffffffffffffffffffffffffffffffff1673ffffffffffffffffffffffffffffffffffffffff16815260200190815260200160002060006101000a81549060ff0219169055565b7f2fe54c60d3acabf3343a35b6eba15db4821b340f76e741e2249685ed4899af6c81565b6001818154811061141157600080fd5b906000526020600020016000915090505481565b606960009054906101000a900473ffffffffffffffffffffffffffffffffffffffff1673ffffffffffffffffffffffffffffffffffffffff163373ffffffffffffffffffffffffffffffffffffffff16146114b5576040517f08c379a00000000000000000000000000000000000000000000000000000000081526004016114ac90612ce1565b60405180910390fd5b600073ffffffffffffffffffffffffffffffffffffffff168173ffffffffffffffffffffffffffffffffffffffff161415611525576040517f08c379a000000000000000000000000000000000000000000000000000000000815260040161151c906131a0565b60405180910390fd5b6001606a60008373ffffffffffffffffffffffffffffffffffffffff1673ffffffffffffffffffffffffffffffffffffffff16815260200190815260200160002060006101000a81548160ff02191690831515021790555050565b60745481565b600360049054906101000a900463ffffffff1681565b600034146115df576040517f08c379a00000000000000000000000000000000000000000000000000000000081526004016115d690613232565b60405180910390fd5b60008114611622576040517f08c379a0000000000000000000000000000000000000000000000000000000008152600401611619906132c4565b60405180910390fd5b6000607060009054906101000a900473ffffffffffffffffffffffffffffffffffffffff1673ffffffffffffffffffffffffffffffffffffffff1663026b1d5f6040518163ffffffff1660e01b815260040160206040518083038186803b15801561168c57600080fd5b505afa1580156116a0573d6000803e3d6000fd5b505050506040513d601f19601f820116820180604052508101906116c491906132f9565b90506000612710606f54606b546116db9190613326565b6116e591906133af565b9050607260009054906101000a900473ffffffffffffffffffffffffffffffffffffffff1673ffffffffffffffffffffffffffffffffffffffff1663095ea7b3607160009054906101000a900473ffffffffffffffffffffffffffffffffffffffff16606b546040518363ffffffff1660e01b81526004016117689291906133e0565b602060405180830381600087803b15801561178257600080fd5b505af1158015611796573d6000803e3d6000fd5b505050506040513d601f19601f820116820180604052508101906117ba9190612ba4565b6117f9576040517f08c379a00000000000000000000000000000000000000000000000000000000081526004016117f090613455565b60405180910390fd5b607160009054906101000a900473ffffffffffffffffffffffffffffffffffffffff1673ffffffffffffffffffffffffffffffffffffffff166380500d20838684606b546118479190613475565b6118519190613475565b896040518463ffffffff1660e01b8152600401611870939291906134a9565b600060405180830381600087803b15801561188a57600080fd5b505af115801561189e573d6000803e3d6000fd5b50505050600081111561195f57607160009054906101000a900473ffffffffffffffffffffffffffffffffffffffff1673ffffffffffffffffffffffffffffffffffffffff166380500d208383606960009054906101000a900473ffffffffffffffffffffffffffffffffffffffff166040518463ffffffff1660e01b815260040161192c939291906134e0565b600060405180830381600087803b15801561194657600080fd5b505af115801561195a573d6000803e3d6000fd5b505050505b60008411156119fa57607160009054906101000a900473ffffffffffffffffffffffffffffffffffffffff1673ffffffffffffffffffffffffffffffffffffffff166380500d208386886040518463ffffffff1660e01b81526004016119c7939291906134a9565b600060405180830381600087803b1580156119e157600080fd5b505af11580156119f5573d6000803e3d6000fd5b505050505b606b5460736000828254611a0e9190613475565b92505081905550611a1d611eec565b505050505050565b8073ffffffffffffffffffffffffffffffffffffffff16606960009054906101000a900473ffffffffffffffffffffffffffffffffffffffff1673ffffffffffffffffffffffffffffffffffffffff167f8be0079c531659141344cd1fd0a4f28419497f9722a3daafe3b4186f6b6457e060405160405180910390a380606960006101000a81548173ffffffffffffffffffffffffffffffffffffffff021916908373ffffffffffffffffffffffffffffffffffffffff16021790555050565b600080600360049054906101000a900463ffffffff16905060008054906101000a900463ffffffff166002611b1a919061364a565b63ffffffff168163ffffffff161415611b68576040517f08c379a0000000000000000000000000000000000000000000000000000000008152600401611b5f906136eb565b60405180910390fd5b6001600360048282829054906101000a900463ffffffff16611b8a919061370b565b92506101000a81548163ffffffff021916908363ffffffff160217905550600083905060008060005b60008054906101000a900463ffffffff1663ffffffff168163ffffffff161015611ca1576000600286611be69190613745565b63ffffffff161415611c4a5783925060028163ffffffff1681548110611c0f57611c0e612f99565b5b906000526020600020015491508360018263ffffffff1681548110611c3757611c36612f99565b5b9060005260206000200181905550611c75565b60018163ffffffff1681548110611c6457611c63612f99565b5b906000526020600020015492508391505b611c7f8383610ba8565b9350600285611c8e9190613776565b945080611c9a906137a7565b9050611bb3565b5060646001600360009054906101000a900463ffffffff16611cc3919061370b565b611ccd9190613745565b600360006101000a81548163ffffffff021916908363ffffffff160217905550826004600360009054906101000a900463ffffffff1663ffffffff1660648110611d1a57611d19612f99565b5b01819055506001600360049054906101000a900463ffffffff16611d3e91906137d4565b945050505050919050565b606b543414611d8d576040517f08c379a0000000000000000000000000000000000000000000000000000000008152600401611d849061387a565b60405180910390fd5b6000607060009054906101000a900473ffffffffffffffffffffffffffffffffffffffff1673ffffffffffffffffffffffffffffffffffffffff1663026b1d5f6040518163ffffffff1660e01b815260040160206040518083038186803b158015611df757600080fd5b505afa158015611e0b573d6000803e3d6000fd5b505050506040513d601f19601f82011682018060405250810190611e2f91906132f9565b9050607160009054906101000a900473ffffffffffffffffffffffffffffffffffffffff1673ffffffffffffffffffffffffffffffffffffffff1663474cf53d606b54833060006040518563ffffffff1660e01b8152600401611e94939291906138e3565b6000604051808303818588803b158015611ead57600080fd5b505af1158015611ec1573d6000803e3d6000fd5b5050505050606b5460736000828254611eda919061391a565b92505081905550611ee9611eec565b50565b6000607354607260009054906101000a900473ffffffffffffffffffffffffffffffffffffffff1673ffffffffffffffffffffffffffffffffffffffff166370a08231306040518263ffffffff1660e01b8152600401611f4c91906126b1565b60206040518083038186803b158015611f6457600080fd5b505afa158015611f78573d6000803e3d6000fd5b505050506040513d601f19601f82011682018060405250810190611f9c9190613985565b611fa69190613475565b90506000811180156120075750600073ffffffffffffffffffffffffffffffffffffffff16607560009054906101000a900473ffffffffffffffffffffffffffffffffffffffff1673ffffffffffffffffffffffffffffffffffffffff1614155b1561228e576000607060009054906101000a900473ffffffffffffffffffffffffffffffffffffffff1673ffffffffffffffffffffffffffffffffffffffff1663026b1d5f6040518163ffffffff1660e01b815260040160206040518083038186803b15801561207657600080fd5b505afa15801561208a573d6000803e3d6000fd5b505050506040513d601f19601f820116820180604052508101906120ae91906132f9565b9050607260009054906101000a900473ffffffffffffffffffffffffffffffffffffffff1673ffffffffffffffffffffffffffffffffffffffff1663095ea7b3607160009054906101000a900473ffffffffffffffffffffffffffffffffffffffff16846040518363ffffffff1660e01b815260040161212f9291906133e0565b602060405180830381600087803b15801561214957600080fd5b505af115801561215d573d6000803e3d6000fd5b505050506040513d601f19601f820116820180604052508101906121819190612ba4565b6121c0576040517f08c379a00000000000000000000000000000000000000000000000000000000081526004016121b790613455565b60405180910390fd5b607160009054906101000a900473ffffffffffffffffffffffffffffffffffffffff1673ffffffffffffffffffffffffffffffffffffffff166380500d208284607560009054906101000a900473ffffffffffffffffffffffffffffffffffffffff166040518463ffffffff1660e01b8152600401612241939291906134e0565b600060405180830381600087803b15801561225b57600080fd5b505af115801561226f573d6000803e3d6000fd5b505050508160746000828254612285919061391a565b92505081905550505b50565b600080fd5b600080fd5b6000819050919050565b6122ae8161229b565b81146122b957600080fd5b50565b6000813590506122cb816122a5565b92915050565b6000602082840312156122e7576122e6612291565b5b60006122f5848285016122bc565b91505092915050565b60008115159050919050565b612313816122fe565b82525050565b600060208201905061232e600083018461230a565b92915050565b600080fd5b600080fd5b600080fd5b60008083601f84011261235957612358612334565b5b8235905067ffffffffffffffff81111561237657612375612339565b5b6020830191508360018202830111156123925761239161233e565b5b9250929050565b600073ffffffffffffffffffffffffffffffffffffffff82169050919050565b60006123c482612399565b9050919050565b6123d4816123b9565b81146123df57600080fd5b50565b6000813590506123f1816123cb565b92915050565b6000819050919050565b61240a816123f7565b811461241557600080fd5b50565b60008135905061242781612401565b92915050565b60008060008060008060008060e0898b03121561244d5761244c612291565b5b600089013567ffffffffffffffff81111561246b5761246a612296565b5b6124778b828c01612343565b9850985050602061248a8b828c016122bc565b965050604061249b8b828c016122bc565b95505060606124ac8b828c016123e2565b94505060806124bd8b828c016123e2565b93505060a06124ce8b828c01612418565b92505060c06124df8b828c01612418565b9150509295985092959890939650565b60006124fa82612399565b9050919050565b61250a816124ef565b811461251557600080fd5b50565b60008135905061252781612501565b92915050565b60006020828403121561254357612542612291565b5b600061255184828501612518565b91505092915050565b6000819050919050565b600061257f61257a61257584612399565b61255a565b612399565b9050919050565b600061259182612564565b9050919050565b60006125a382612586565b9050919050565b6125b381612598565b82525050565b60006020820190506125ce60008301846125aa565b92915050565b600080604083850312156125eb576125ea612291565b5b60006125f9858286016122bc565b925050602061260a858286016122bc565b9150509250929050565b61261d8161229b565b82525050565b60006020820190506126386000830184612614565b92915050565b612647816123f7565b82525050565b6000602082019050612662600083018461263e565b92915050565b600063ffffffff82169050919050565b61268181612668565b82525050565b600060208201905061269c6000830184612678565b92915050565b6126ab816124ef565b82525050565b60006020820190506126c660008301846126a2565b92915050565b6000602082840312156126e2576126e1612291565b5b60006126f084828501612418565b91505092915050565b60008083601f84011261270f5761270e612334565b5b8235905067ffffffffffffffff81111561272c5761272b612339565b5b6020830191508360208202830111156127485761274761233e565b5b9250929050565b6000806020838503121561276657612765612291565b5b600083013567ffffffffffffffff81111561278457612783612296565b5b612790858286016126f9565b92509250509250929050565b600081519050919050565b600082825260208201905092915050565b6000819050602082019050919050565b6127d1816122fe565b82525050565b60006127e383836127c8565b60208301905092915050565b6000602082019050919050565b60006128078261279c565b61281181856127a7565b935061281c836127b8565b8060005b8381101561284d57815161283488826127d7565b975061283f836127ef565b925050600181019050612820565b5085935050505092915050565b6000602082019050818103600083015261287481846127fc565b905092915050565b600082825260208201905092915050565b7f5265656e7472616e637947756172643a207265656e7472616e742063616c6c00600082015250565b60006128c3601f8361287c565b91506128ce8261288d565b602082019050919050565b600060208201905081810360008301526128f2816128b6565b9050919050565b7f4665652065786365656473207472616e736665722076616c7565000000000000600082015250565b600061292f601a8361287c565b915061293a826128f9565b602082019050919050565b6000602082019050818103600083015261295e81612922565b9050919050565b7f546865206e6f746520686173206265656e20616c7265616479207370656e7400600082015250565b600061299b601f8361287c565b91506129a682612965565b602082019050919050565b600060208201905081810360008301526129ca8161298e565b9050919050565b7f43616e6e6f742066696e6420796f7572206d65726b6c6520726f6f7400000000600082015250565b6000612a07601c8361287c565b9150612a12826129d1565b602082019050919050565b60006020820190508181036000830152612a36816129fa565b9050919050565b600082825260208201905092915050565b82818337600083830152505050565b6000601f19601f8301169050919050565b6000612a7a8385612a3d565b9350612a87838584612a4e565b612a9083612a5d565b840190509392505050565b600060069050919050565b600081905092915050565b6000819050919050565b612ac4816123f7565b82525050565b6000612ad68383612abb565b60208301905092915050565b6000602082019050919050565b612af881612a9b565b612b028184612aa6565b9250612b0d82612ab1565b8060005b83811015612b3e578151612b258782612aca565b9650612b3083612ae2565b925050600181019050612b11565b505050505050565b600060e0820190508181036000830152612b61818587612a6e565b9050612b706020830184612aef565b949350505050565b612b81816122fe565b8114612b8c57600080fd5b50565b600081519050612b9e81612b78565b92915050565b600060208284031215612bba57612bb9612291565b5b6000612bc884828501612b8f565b91505092915050565b7f496e76616c69642077697468647261772070726f6f6600000000000000000000600082015250565b6000612c0760168361287c565b9150612c1282612bd1565b602082019050919050565b60006020820190508181036000830152612c3681612bfa565b9050919050565b6000612c4882612586565b9050919050565b612c5881612c3d565b82525050565b6000606082019050612c736000830186612c4f565b612c806020830185612614565b612c8d604083018461263e565b949350505050565b7f4e6f7420617574686f72697a6564000000000000000000000000000000000000600082015250565b6000612ccb600e8361287c565b9150612cd682612c95565b602082019050919050565b60006020820190508181036000830152612cfa81612cbe565b9050919050565b7f5f6c6566742073686f756c6420626520696e7369646520746865206669656c64600082015250565b6000612d3760208361287c565b9150612d4282612d01565b602082019050919050565b60006020820190508181036000830152612d6681612d2a565b9050919050565b7f5f72696768742073686f756c6420626520696e7369646520746865206669656c60008201527f6400000000000000000000000000000000000000000000000000000000000000602082015250565b6000612dc960218361287c565b9150612dd482612d6d565b604082019050919050565b60006020820190508181036000830152612df881612dbc565b9050919050565b600060029050919050565b600081905092915050565b6000819050919050565b612e288161229b565b82525050565b6000612e3a8383612e1f565b60208301905092915050565b6000602082019050919050565b612e5c81612dff565b612e668184612e0a565b9250612e7182612e15565b8060005b83811015612ea2578151612e898782612e2e565b9650612e9483612e46565b925050600181019050612e75565b505050505050565b6000604082019050612ebf6000830184612e53565b92915050565b600081519050612ed4816122a5565b92915050565b600060208284031215612ef057612eef612291565b5b6000612efe84828501612ec5565b91505092915050565b7f4f70657261746f72206665652068617320746f20626520736d616c6c6572207460008201527f68616e2031302500000000000000000000000000000000000000000000000000602082015250565b6000612f6360278361287c565b9150612f6e82612f07565b604082019050919050565b60006020820190508181036000830152612f9281612f56565b9050919050565b7f4e487b7100000000000000000000000000000000000000000000000000000000600052603260045260246000fd5b7f4e487b7100000000000000000000000000000000000000000000000000000000600052601160045260246000fd5b600061300282612668565b9150600082141561301657613015612fc8565b5b600182039050919050565b7f4e487b7100000000000000000000000000000000000000000000000000000000600052604160045260246000fd5b600061305b826123f7565b91507fffffffffffffffffffffffffffffffffffffffffffffffffffffffffffffffff82141561308e5761308d612fc8565b5b600182019050919050565b7f54686520636f6d6d69746d656e7420686173206265656e207375626d6974746560008201527f6400000000000000000000000000000000000000000000000000000000000000602082015250565b60006130f560218361287c565b915061310082613099565b604082019050919050565b60006020820190508181036000830152613124816130e8565b9050919050565b60006040820190506131406000830185612678565b61314d602083018461263e565b9392505050565b7f6f776e65722063616e6e6f74206265207a65726f206164647265737300000000600082015250565b600061318a601c8361287c565b915061319582613154565b602082019050919050565b600060208201905081810360008301526131b98161317d565b9050919050565b7f4d6573736167652076616c756520697320737570706f73656420746f2062652060008201527f7a65726f20666f722045544820696e7374616e63650000000000000000000000602082015250565b600061321c60358361287c565b9150613227826131c0565b604082019050919050565b6000602082019050818103600083015261324b8161320f565b9050919050565b7f526566756e642076616c756520697320737570706f73656420746f206265207a60008201527f65726f20666f722045544820696e7374616e6365000000000000000000000000602082015250565b60006132ae60348361287c565b91506132b982613252565b604082019050919050565b600060208201905081810360008301526132dd816132a1565b9050919050565b6000815190506132f381612501565b92915050565b60006020828403121561330f5761330e612291565b5b600061331d848285016132e4565b91505092915050565b6000613331826123f7565b915061333c836123f7565b9250817fffffffffffffffffffffffffffffffffffffffffffffffffffffffffffffffff048311821515161561337557613374612fc8565b5b828202905092915050565b7f4e487b7100000000000000000000000000000000000000000000000000000000600052601260045260246000fd5b60006133ba826123f7565b91506133c5836123f7565b9250826133d5576133d4613380565b5b828204905092915050565b60006040820190506133f560008301856126a2565b613402602083018461263e565b9392505050565b7f61546f6b656e20617070726f76616c206661696c656400000000000000000000600082015250565b600061343f60168361287c565b915061344a82613409565b602082019050919050565b6000602082019050818103600083015261346e81613432565b9050919050565b6000613480826123f7565b915061348b836123f7565b92508282101561349e5761349d612fc8565b5b828203905092915050565b60006060820190506134be60008301866126a2565b6134cb602083018561263e565b6134d86040830184612c4f565b949350505050565b60006060820190506134f560008301866126a2565b613502602083018561263e565b61350f60408301846126a2565b949350505050565b60008160011c9050919050565b6000808291508390505b600185111561356e5780860481111561354a57613549612fc8565b5b60018516156135595780820291505b808102905061356785613517565b945061352e565b94509492505050565b6000826135875760019050613643565b816135955760009050613643565b81600181146135ab57600281146135b5576135e4565b6001915050613643565b60ff8411156135c7576135c6612fc8565b5b8360020a9150848211156135de576135dd612fc8565b5b50613643565b5060208310610133831016604e8410600b84101617156136195782820a90508381111561361457613613612fc8565b5b613643565b6136268484846001613524565b9250905081840481111561363d5761363c612fc8565b5b81810290505b9392505050565b600061365582612668565b915061366083612668565b925061367163ffffffff8484613577565b905092915050565b7f4d65726b6c6520747265652069732066756c6c2e204e6f206d6f7265206c656160008201527f66732063616e2062652061646465640000000000000000000000000000000000602082015250565b60006136d5602f8361287c565b91506136e082613679565b604082019050919050565b60006020820190508181036000830152613704816136c8565b9050919050565b600061371682612668565b915061372183612668565b92508263ffffffff0382111561373a57613739612fc8565b5b828201905092915050565b600061375082612668565b915061375b83612668565b92508261376b5761376a613380565b5b828206905092915050565b600061378182612668565b915061378c83612668565b92508261379c5761379b613380565b5b828204905092915050565b60006137b282612668565b915063ffffffff8214156137c9576137c8612fc8565b5b600182019050919050565b60006137df82612668565b91506137ea83612668565b9250828210156137fd576137fc612fc8565b5b828203905092915050565b7f506c656173652073656e6420606d697844656e6f6d696e6174696f6e6020455460008201527f4820616c6f6e672077697468207472616e73616374696f6e0000000000000000602082015250565b600061386460388361287c565b915061386f82613808565b604082019050919050565b6000602082019050818103600083015261389381613857565b9050919050565b6000819050919050565b600061ffff82169050919050565b60006138cd6138c86138c38461389a565b61255a565b6138a4565b9050919050565b6138dd816138b2565b82525050565b60006060820190506138f860008301866126a2565b61390560208301856126a2565b61391260408301846138d4565b949350505050565b6000613925826123f7565b9150613930836123f7565b9250827fffffffffffffffffffffffffffffffffffffffffffffffffffffffffffffffff0382111561396557613964612fc8565b5b828201905092915050565b60008151905061397f81612401565b92915050565b60006020828403121561399b5761399a612291565b5b60006139a984828501613970565b9150509291505056fea2646970667358221220496535aa36cb9e061bc571236ddd796118c396d3a7460d103403d5ccb59c319064736f6c63430008090033",
  "linkReferences": {
    "contracts/MerkleTreeWithHistory.sol": {
      "Hasher": [
        {
          "length": 20,
          "start": 1306
        },
        {
          "length": 20,
          "start": 6387
        }
      ]
    }
  },
  "deployedLinkReferences": {
    "contracts/MerkleTreeWithHistory.sol": {
      "Hasher": [
        {
          "length": 20,
          "start": 3190
        }
      ]
    }
  }
}